{
  "_format": "hh-sol-artifact-1",
  "contractName": "PrivateCampaignDonation",
  "sourceName": "contracts/PrivateDonation.sol",
  "abi": [
    {
      "inputs": [
        {
          "internalType": "contract IConfidentialERC20",
          "name": "_token",
          "type": "address"
        }
      ],
      "stateMutability": "nonpayable",
      "type": "constructor"
    },
    {
      "inputs": [],
      "name": "EnforcedPause",
      "type": "error"
    },
    {
      "inputs": [],
      "name": "ExpectedPause",
      "type": "error"
    },
    {
      "inputs": [
        {
          "internalType": "address",
          "name": "owner",
          "type": "address"
        }
      ],
      "name": "OwnableInvalidOwner",
      "type": "error"
    },
    {
      "inputs": [
        {
          "internalType": "address",
          "name": "account",
          "type": "address"
        }
      ],
      "name": "OwnableUnauthorizedAccount",
      "type": "error"
    },
    {
      "inputs": [],
      "name": "ReentrancyGuardReentrantCall",
      "type": "error"
    },
    {
      "anonymous": false,
      "inputs": [
        {
          "indexed": true,
          "internalType": "bytes32",
          "name": "campaignId",
          "type": "bytes32"
        },
        {
          "indexed": false,
          "internalType": "uint256",
          "name": "timestamp",
          "type": "uint256"
        }
      ],
      "name": "CampaignCompleted",
      "type": "event"
    },
    {
      "anonymous": false,
      "inputs": [
        {
          "indexed": true,
          "internalType": "bytes32",
          "name": "campaignId",
          "type": "bytes32"
        },
        {
          "indexed": true,
          "internalType": "address",
          "name": "organizer",
          "type": "address"
        },
        {
          "indexed": false,
          "internalType": "string",
          "name": "title",
          "type": "string"
        },
        {
          "indexed": false,
          "internalType": "uint256",
          "name": "targetAmount",
          "type": "uint256"
        },
        {
          "indexed": false,
          "internalType": "uint256",
          "name": "deadline",
          "type": "uint256"
        }
      ],
      "name": "CampaignCreated",
      "type": "event"
    },
    {
      "anonymous": false,
      "inputs": [
        {
          "indexed": true,
          "internalType": "bytes32",
          "name": "campaignId",
          "type": "bytes32"
        },
        {
          "indexed": false,
          "internalType": "string",
          "name": "title",
          "type": "string"
        },
        {
          "indexed": false,
          "internalType": "string",
          "name": "description",
          "type": "string"
        },
        {
          "indexed": false,
          "internalType": "string",
          "name": "imageUrl",
          "type": "string"
        }
      ],
      "name": "CampaignUpdated",
      "type": "event"
    },
    {
      "anonymous": false,
      "inputs": [
        {
          "indexed": true,
          "internalType": "bytes32",
          "name": "campaignId",
          "type": "bytes32"
        },
        {
          "indexed": true,
          "internalType": "address",
          "name": "donor",
          "type": "address"
        },
        {
          "indexed": false,
          "internalType": "uint256",
          "name": "timestamp",
          "type": "uint256"
        },
        {
          "indexed": false,
          "internalType": "bool",
          "name": "isAnonymous",
          "type": "bool"
        }
      ],
      "name": "DonationMade",
      "type": "event"
    },
    {
      "anonymous": false,
      "inputs": [
        {
          "indexed": true,
          "internalType": "address",
          "name": "previousOwner",
          "type": "address"
        },
        {
          "indexed": true,
          "internalType": "address",
          "name": "newOwner",
          "type": "address"
        }
      ],
      "name": "OwnershipTransferred",
      "type": "event"
    },
    {
      "anonymous": false,
      "inputs": [
        {
          "indexed": false,
          "internalType": "address",
          "name": "account",
          "type": "address"
        }
      ],
      "name": "Paused",
      "type": "event"
    },
    {
      "anonymous": false,
      "inputs": [
        {
          "indexed": true,
          "internalType": "bytes32",
          "name": "campaignId",
          "type": "bytes32"
        },
        {
          "indexed": false,
          "internalType": "bytes32",
          "name": "totalHandle",
          "type": "bytes32"
        },
        {
          "indexed": false,
          "internalType": "bytes32",
          "name": "countHandle",
          "type": "bytes32"
        }
      ],
      "name": "TotalsHandle",
      "type": "event"
    },
    {
      "anonymous": false,
      "inputs": [
        {
          "indexed": false,
          "internalType": "address",
          "name": "account",
          "type": "address"
        }
      ],
      "name": "Unpaused",
      "type": "event"
    },
    {
      "stateMutability": "payable",
      "type": "fallback"
    },
    {
      "inputs": [],
      "name": "MAX_DONATION_PLAINTEXT",
      "outputs": [
        {
          "internalType": "uint256",
          "name": "",
          "type": "uint256"
        }
      ],
      "stateMutability": "view",
      "type": "function"
    },
    {
      "inputs": [
        {
          "internalType": "uint256",
          "name": "",
          "type": "uint256"
        }
      ],
      "name": "activeCampaigns",
      "outputs": [
        {
          "internalType": "bytes32",
          "name": "",
          "type": "bytes32"
        }
      ],
      "stateMutability": "view",
      "type": "function"
    },
    {
      "inputs": [
        {
          "internalType": "uint256",
          "name": "",
          "type": "uint256"
        }
      ],
      "name": "allCampaigns",
      "outputs": [
        {
          "internalType": "bytes32",
          "name": "",
          "type": "bytes32"
        }
      ],
      "stateMutability": "view",
      "type": "function"
    },
    {
      "inputs": [
        {
          "internalType": "bytes32",
          "name": "campaignId",
          "type": "bytes32"
        }
      ],
      "name": "allowOrganizerDecrypt",
      "outputs": [],
      "stateMutability": "nonpayable",
      "type": "function"
    },
    {
      "inputs": [
        {
          "internalType": "bytes32",
          "name": "",
          "type": "bytes32"
        },
        {
          "internalType": "uint256",
          "name": "",
          "type": "uint256"
        }
      ],
      "name": "campaignDonations",
      "outputs": [
        {
          "internalType": "address",
          "name": "donor",
          "type": "address"
        },
        {
          "internalType": "bytes32",
          "name": "campaignId",
          "type": "bytes32"
        },
        {
          "internalType": "uint256",
          "name": "timestamp",
          "type": "uint256"
        },
        {
          "internalType": "bool",
          "name": "isAnonymous",
          "type": "bool"
        }
      ],
      "stateMutability": "view",
      "type": "function"
    },
    {
      "inputs": [
        {
          "internalType": "bytes32",
          "name": "",
          "type": "bytes32"
        },
        {
          "internalType": "uint256",
          "name": "",
          "type": "uint256"
        }
      ],
      "name": "campaignMilestones",
      "outputs": [
        {
          "internalType": "uint256",
          "name": "",
          "type": "uint256"
        }
      ],
      "stateMutability": "view",
      "type": "function"
    },
    {
      "inputs": [
        {
          "internalType": "bytes32",
          "name": "",
          "type": "bytes32"
        }
      ],
      "name": "campaigns",
      "outputs": [
        {
          "internalType": "bytes32",
          "name": "id",
          "type": "bytes32"
        },
        {
          "internalType": "address",
          "name": "organizer",
          "type": "address"
        },
        {
          "internalType": "string",
          "name": "title",
          "type": "string"
        },
        {
          "internalType": "string",
          "name": "description",
          "type": "string"
        },
        {
          "internalType": "string",
          "name": "imageUrl",
          "type": "string"
        },
        {
          "internalType": "uint256",
          "name": "targetAmount",
          "type": "uint256"
        },
        {
          "internalType": "uint256",
          "name": "deadline",
          "type": "uint256"
        },
        {
          "internalType": "euint128",
          "name": "totalDonations",
          "type": "bytes32"
        },
        {
          "internalType": "euint32",
          "name": "donationCount",
          "type": "bytes32"
        },
        {
          "internalType": "uint256",
          "name": "publicDonorCount",
          "type": "uint256"
        },
        {
          "internalType": "bool",
          "name": "isActive",
          "type": "bool"
        },
        {
          "internalType": "bool",
          "name": "isCompleted",
          "type": "bool"
        },
        {
          "internalType": "bool",
          "name": "finalAmountRevealed",
          "type": "bool"
        },
        {
          "internalType": "enum PrivateCampaignDonation.CampaignCategory",
          "name": "category",
          "type": "uint8"
        }
      ],
      "stateMutability": "view",
      "type": "function"
    },
    {
      "inputs": [
        {
          "internalType": "bytes32",
          "name": "campaignId",
          "type": "bytes32"
        }
      ],
      "name": "completeCampaign",
      "outputs": [],
      "stateMutability": "nonpayable",
      "type": "function"
    },
    {
      "inputs": [
        {
          "internalType": "bytes32",
          "name": "campaignId",
          "type": "bytes32"
        },
        {
          "internalType": "string",
          "name": "title",
          "type": "string"
        },
        {
          "internalType": "string",
          "name": "description",
          "type": "string"
        },
        {
          "internalType": "string",
          "name": "imageUrl",
          "type": "string"
        },
        {
          "internalType": "uint256",
          "name": "targetAmount",
          "type": "uint256"
        },
        {
          "internalType": "uint256",
          "name": "duration",
          "type": "uint256"
        },
        {
          "internalType": "enum PrivateCampaignDonation.CampaignCategory",
          "name": "category",
          "type": "uint8"
        }
      ],
      "name": "createCampaign",
      "outputs": [],
      "stateMutability": "nonpayable",
      "type": "function"
    },
    {
      "inputs": [
        {
          "internalType": "bytes32",
          "name": "campaignId",
          "type": "bytes32"
        },
        {
          "internalType": "externalEuint128",
          "name": "encryptedAmount",
          "type": "bytes32"
        },
        {
          "internalType": "bytes",
          "name": "inputProof",
          "type": "bytes"
        },
        {
          "internalType": "bool",
          "name": "isAnonymous",
          "type": "bool"
        }
      ],
      "name": "donateEncrypted",
      "outputs": [],
      "stateMutability": "nonpayable",
      "type": "function"
    },
    {
      "inputs": [
        {
          "internalType": "bytes32",
          "name": "campaignId",
          "type": "bytes32"
        },
        {
          "internalType": "bool",
          "name": "isAnonymous",
          "type": "bool"
        }
      ],
      "name": "donatePublic",
      "outputs": [],
      "stateMutability": "payable",
      "type": "function"
    },
    {
      "inputs": [
        {
          "internalType": "bytes32",
          "name": "campaignId",
          "type": "bytes32"
        },
        {
          "internalType": "bool",
          "name": "isAnonymous",
          "type": "bool"
        }
      ],
      "name": "donateSimple",
      "outputs": [],
      "stateMutability": "payable",
      "type": "function"
    },
    {
      "inputs": [
        {
          "internalType": "address",
          "name": "",
          "type": "address"
        },
        {
          "internalType": "uint256",
          "name": "",
          "type": "uint256"
        }
      ],
      "name": "donorCampaigns",
      "outputs": [
        {
          "internalType": "bytes32",
          "name": "",
          "type": "bytes32"
        }
      ],
      "stateMutability": "view",
      "type": "function"
    },
    {
      "inputs": [],
      "name": "getActiveCampaigns",
      "outputs": [
        {
          "internalType": "bytes32[]",
          "name": "",
          "type": "bytes32[]"
        }
      ],
      "stateMutability": "view",
      "type": "function"
    },
    {
      "inputs": [],
      "name": "getAllCampaigns",
      "outputs": [
        {
          "internalType": "bytes32[]",
          "name": "",
          "type": "bytes32[]"
        }
      ],
      "stateMutability": "view",
      "type": "function"
    },
    {
      "inputs": [
        {
          "internalType": "bytes32",
          "name": "campaignId",
          "type": "bytes32"
        }
      ],
      "name": "getCampaignInfo",
      "outputs": [
        {
          "internalType": "address",
          "name": "organizer",
          "type": "address"
        },
        {
          "internalType": "string",
          "name": "title",
          "type": "string"
        },
        {
          "internalType": "string",
          "name": "description",
          "type": "string"
        },
        {
          "internalType": "string",
          "name": "imageUrl",
          "type": "string"
        },
        {
          "internalType": "uint256",
          "name": "targetAmount",
          "type": "uint256"
        },
        {
          "internalType": "uint256",
          "name": "deadline",
          "type": "uint256"
        },
        {
          "internalType": "uint256",
          "name": "publicDonorCount",
          "type": "uint256"
        },
        {
          "internalType": "bool",
          "name": "isActive",
          "type": "bool"
        },
        {
          "internalType": "enum PrivateCampaignDonation.CampaignCategory",
          "name": "category",
          "type": "uint8"
        }
      ],
      "stateMutability": "view",
      "type": "function"
    },
    {
      "inputs": [
        {
          "internalType": "address",
          "name": "organizer",
          "type": "address"
        }
      ],
      "name": "getCampaignsByOrganizer",
      "outputs": [
        {
          "internalType": "bytes32[]",
          "name": "",
          "type": "bytes32[]"
        }
      ],
      "stateMutability": "view",
      "type": "function"
    },
    {
      "inputs": [
        {
          "internalType": "address",
          "name": "donor",
          "type": "address"
        }
      ],
      "name": "getDonorHistory",
      "outputs": [
        {
          "internalType": "bytes32[]",
          "name": "",
          "type": "bytes32[]"
        }
      ],
      "stateMutability": "view",
      "type": "function"
    },
    {
      "inputs": [
        {
          "internalType": "bytes32",
          "name": "campaignId",
          "type": "bytes32"
        }
      ],
      "name": "getPublicDonationCount",
      "outputs": [
        {
          "internalType": "uint256",
          "name": "",
          "type": "uint256"
        }
      ],
      "stateMutability": "view",
      "type": "function"
    },
    {
      "inputs": [
        {
          "internalType": "bytes32",
          "name": "campaignId",
          "type": "bytes32"
        },
        {
          "internalType": "uint256",
          "name": "limit",
          "type": "uint256"
        }
      ],
      "name": "getRecentDonations",
      "outputs": [
        {
          "internalType": "address[]",
          "name": "donors",
          "type": "address[]"
        },
        {
          "internalType": "uint256[]",
          "name": "timestamps",
          "type": "uint256[]"
        },
        {
          "internalType": "bool[]",
          "name": "isAnonymous",
          "type": "bool[]"
        }
      ],
      "stateMutability": "view",
      "type": "function"
    },
    {
      "inputs": [],
      "name": "getTotalCampaignsCount",
      "outputs": [
        {
          "internalType": "uint256",
          "name": "",
          "type": "uint256"
        }
      ],
      "stateMutability": "view",
      "type": "function"
    },
    {
      "inputs": [
        {
          "internalType": "address",
          "name": "",
          "type": "address"
        },
        {
          "internalType": "bytes32",
          "name": "",
          "type": "bytes32"
        }
      ],
      "name": "hasDonatedTo",
      "outputs": [
        {
          "internalType": "bool",
          "name": "",
          "type": "bool"
        }
      ],
      "stateMutability": "view",
      "type": "function"
    },
    {
      "inputs": [
        {
          "internalType": "address",
          "name": "",
          "type": "address"
        },
        {
          "internalType": "uint256",
          "name": "",
          "type": "uint256"
        }
      ],
      "name": "organizerCampaigns",
      "outputs": [
        {
          "internalType": "bytes32",
          "name": "",
          "type": "bytes32"
        }
      ],
      "stateMutability": "view",
      "type": "function"
    },
    {
      "inputs": [],
      "name": "owner",
      "outputs": [
        {
          "internalType": "address",
          "name": "",
          "type": "address"
        }
      ],
      "stateMutability": "view",
      "type": "function"
    },
    {
      "inputs": [],
      "name": "pause",
      "outputs": [],
      "stateMutability": "nonpayable",
      "type": "function"
    },
    {
      "inputs": [],
      "name": "paused",
      "outputs": [
        {
          "internalType": "bool",
          "name": "",
          "type": "bool"
        }
      ],
      "stateMutability": "view",
      "type": "function"
    },
    {
      "inputs": [],
      "name": "renounceOwnership",
      "outputs": [],
      "stateMutability": "nonpayable",
      "type": "function"
    },
    {
      "inputs": [
        {
          "internalType": "bytes32",
          "name": "campaignId",
          "type": "bytes32"
        }
      ],
      "name": "revealTotalsPublic",
      "outputs": [],
      "stateMutability": "nonpayable",
      "type": "function"
    },
    {
      "inputs": [],
      "name": "token",
      "outputs": [
        {
          "internalType": "contract IConfidentialERC20",
          "name": "",
          "type": "address"
        }
      ],
      "stateMutability": "view",
      "type": "function"
    },
    {
      "inputs": [
        {
          "internalType": "address",
          "name": "newOwner",
          "type": "address"
        }
      ],
      "name": "transferOwnership",
      "outputs": [],
      "stateMutability": "nonpayable",
      "type": "function"
    },
    {
      "inputs": [],
      "name": "unpause",
      "outputs": [],
      "stateMutability": "nonpayable",
      "type": "function"
    },
    {
      "inputs": [
        {
          "internalType": "bytes32",
          "name": "campaignId",
          "type": "bytes32"
        },
        {
          "internalType": "string",
          "name": "title",
          "type": "string"
        },
        {
          "internalType": "string",
          "name": "description",
          "type": "string"
        },
        {
          "internalType": "string",
          "name": "imageUrl",
          "type": "string"
        }
      ],
      "name": "updateCampaign",
      "outputs": [],
      "stateMutability": "nonpayable",
      "type": "function"
    },
    {
      "stateMutability": "payable",
      "type": "receive"
    }
  ],
  "bytecode": "0x60a0346200026a57601f62002f1f38819003918201601f19168301916001600160401b038311848410176200026e578084926020946040528339810103126200026a57516001600160a01b039081811681036200026a575f60606200006362000282565b82815282602082015282604082015201526200007e62000282565b606073687820221192c5b662b25367f70076a37bc79b6c9182815273848b0066793bcc60346da1f49049357399b8d595806020830152731364cbbf2cdf5032c47d8226a6f6fbd2afcdacac9182604082015273bc91f3dad1a5f19f8390c400196e58073b6a0bc4938491015260018060a01b0319937fed8d60e34876f751cc8b014c560745351147d9de11b9347c854e881b128ea60090858254161790557fed8d60e34876f751cc8b014c560745351147d9de11b9347c854e881b128ea60190848254161790557fed8d60e34876f751cc8b014c560745351147d9de11b9347c854e881b128ea60290838254161790557fed8d60e34876f751cc8b014c560745351147d9de11b9347c854e881b128ea603908282541617905573a02cda4ca3a71d7c46997716f4283aa851c288127f5ea69329017273582817d320489fbd94f775580e90c092699ca6f3d12fdf7d009182541617905560015f553315620002525760018054610100600160a81b0319811633600881811b610100600160a81b0316929092179093556040519491901c167f8be0079c531659141344cd1fd0a4f28419497f9722a3daafe3b4186f6b6457e05f80a3608052612c7c9081620002a382396080518181816101a20152610c720152f35b604051631e4fbdf760e01b81525f6004820152602490fd5b5f80fd5b634e487b7160e01b5f52604160045260245ffd5b60405190608082016001600160401b038111838210176200026e5760405256fe60806040526004361015610018575b366129e9576129e9565b5f803560e01c806306a191a314611fa45780630b4746ea14611da457806310d7b8c614611c245780631465b2c314611bde578063229dcbe314611b5257806324a1f3671461141257806324cd7b21146113ee5780632708e0cf146113d15780632cc6a2e4146113455780633e4cbf42146112a75780633f48563f146112785780633f4ba83a1461120f57806343b09c59146111b357806349b8af26146111655780635c975abb14611142578063676f9400146110fa578063715018a61461108e5780638456cb591461103457806386cdf60414610fbe5780638da5cb5b14610f9457806392f6d54814610a7c57806394470d5114610a435780639eca2f1e1461092a578063a509f4d1146108d9578063a65677121461086d578063b0a6e3e6146106b6578063b999be1b146105c1578063c362b1561461053b578063dc357e2e146104f4578063f2fde38b14610441578063fb13eadf146101c95763fc0c546a14610183575061000e565b346101c657806003193601126101c65760206040516001600160a01b037f0000000000000000000000000000000000000000000000000000000000000000168152f35b80fd5b50346101c6576101d836612524565b9080835260026020526101fc6001600160a01b0360016040862001541615156126de565b825260036020526040822080549180831115610438579190925b61021f836129bd565b9261022d60405194856125a2565b808452610239816129bd565b601f190136602086013761024c816129bd565b9461025a60405196876125a2565b818652610266826129bd565b601f1901366020880137610279826129bd565b9361028760405195866125a2565b828552610293836129bd565b601f1901366020870137835b83811061036d575050505060405193849360608501606086528151809152602060808701920190845b81811061034b57505050848103602086015260208083519283815201920190835b818110610332575050508381036040850152602080845192838152019301915b818110610317575050500390f35b82511515845285945060209384019390920191600101610309565b82518452879650602093840193909201916001016102e9565b82516001600160a01b03168452889750602093840193909201916001016102c8565b81848199979899031161042457806003806103e861038f600195898803612985565b8c8189878d61039e84846126c5565b509098015460ff9850881615610405576001600160a01b0392506103c491508d936129d5565b9116905260026103d4828a6126c5565b5001546103e1868d6129d5565b52876126c5565b500154166103f6828a6129d5565b9015159052019695949661029f565b6001600160a01b0361041b81946103c4946126c5565b505416936129d5565b634e487b7160e01b5f52601160045260245ffd5b50819092610216565b50346101c65760203660031901126101c65761045b612489565b610463612a6d565b6001600160a01b038082169182156104db5774ffffffffffffffffffffffffffffffffffffffff006001549160081b1674ffffffffffffffffffffffffffffffffffffffff001982161760015560081c167f8be0079c531659141344cd1fd0a4f28419497f9722a3daafe3b4186f6b6457e05f80a380f35b604051631e4fbdf760e01b815260048101859052602490fd5b50346101c65760403660031901126101c65760ff60406020926001600160a01b0361051d612489565b16815260058452818120602435825284522054166040519015158152f35b50346101c657806003193601126101c657604051600880548083529083526020808301937ff3f7a9fe364faab93b216da50a3214154f22a0a2b415b23a84c8169e8b636ee392915b8282106105aa576105a68561059a818903826125a2565b604051918291826124e9565b0390f35b835486529485019460019384019390910190610583565b50346101c65760203660031901126101c65760406004359182815260026020526001600160a01b03926105fd84600185852001541615156126de565b81526002602052209060018201541660058201546105a660068401546009850154600a8601549161068a610633600289016125c4565b9761067c61064f6004610648600385016125c4565b93016125c4565b9161066e6040519b8c809c6020610120928392815201528c0190612666565b908a820360408c0152612666565b9088820360608a0152612666565b94608087015260a086015260c085015260ff8116151560e085015260ff61010085019160181c166126a4565b50346101c65760208060031936011261086957600435908183526002815261070a6001600160a01b036106f38160016040882001541615156126de565b83855260028352600160408620015416331461272a565b81835260028152600a6040842001805460ff8116156108245761ffff19166101001790558183526009815260408320546008545f199190828101908111610810578082036107c9575b505060085480156107b55790807f39c59e243b727b972e7c4ce6e5d7e6ce2c886e018b0ce40d214e17624d51b0829392019061078e8261249f565b909182549160031b1b19169055600855828452600981525f6040852055604051428152a280f35b634e487b7160e01b85526031600452602485fd5b6107d29061249f565b90549060031b1c806107fc6107e68461249f565b819391549060031b91821b915f19901b19161790565b905585526009835260408520555f80610753565b634e487b7160e01b86526011600452602486fd5b60405162461bcd60e51b815260048101849052601160248201527f416c726561647920636f6d706c657465640000000000000000000000000000006044820152606490fd5b5080fd5b50346101c65761087c36612524565b919081526003602052604081209081548310156101c657608061089f84846126c5565b506001600160a01b038154169060018101549060ff6003600283015492015416916040519384526020840152604083015215156060820152f35b50346101c65760203660031901126101c6576004356007548110156108695760209060075f527fa66cc928b5edb82af9bd49922954155ab7b0942694bea4ce44661d9a8736c6880154604051908152f35b50346101c65760203660031901126101c65760409060043581526002602052208054906001600160a01b03600182015416906105a661096b600283016125c4565b610977600384016125c4565b92610984600482016125c4565b9360058201549460068301546109ec6007850154926109de6008870154956109d0600a60098a0154990154996040519e8f9e8f906101c092825260208201528160408201520190612666565b8c810360608e015290612666565b908a820360808c0152612666565b9660a089015260c088015260e087015261010086015261012085015260ff8116151561014085015260ff8160081c16151561016085015260ff8160101c16151561018085015260ff6101a085019160181c166126a4565b50346101c65760203660031901126101c657600435906008548210156101c6576020610a6e8361249f565b90546040519160031b1c8152f35b50346101c65760803660031901126101c657600435602460443567ffffffffffffffff8111610f9057610ab390369060040161244c565b92906064359283158015808603610e6d57848852602092600284526001600160a01b0394600198868a60408d200154161515610aee906126de565b878b526002865260408b20600a015460ff16610b09906127f8565b878b526002865260408b20600601544210610b2390612844565b610b2b612a2e565b610b33612a4f565b878b52600286528a6040812092610b4983612890565b9260405193610b5890856125a2565b8084523681830111610f8c5780899283860137830101528a86610bcb7fed8d60e34876f751cc8b014c560745351147d9de11b9347c854e881b128ea601938a8554169060405194858094819363196d0b9b60e01b83528b356004840152338c840152608060448401526084830190612666565b6006606483015203925af1908115610f81578c91610f54575b508b887fed8d60e34876f751cc8b014c560745351147d9de11b9347c854e881b128ea6005416803b1561086957604051630f8e573b60e21b8152600481018490523360248201529082908290604490829084905af18015610f4957610f31575b5087898d86015416606460405180948193637350854d60e01b83523360048401528a8301528660448301528d7f0000000000000000000000000000000000000000000000000000000000000000165af1908115610f26578d91610eec575b5015610e9d5790610cd58392610ccb60075f9601918254818115610e8d575b15610e8357612c07565b8091553090612b8d565b6008820190878c60448b8554945416916040519788938492639cd07acb60e01b8452600484015260048b8401525af1938415610e78575f94610e41575b5090610ccb84610d3193600996918115610e31575b15610e2157612c07565b01805491898301809311610e0f57505584885260038352604088207fa3fa8083ca7f4de3da58ef422576cd8b0731a317f2ef2ad680c85e090574e48c94939291610da4918815610e08578a915b8660405193610d8c85612572565b168352888684015242604084015260608301526128ac565b610dd0575b508315610dca57855b604080514281529515156020870152911693a3815580f35b33610db2565b33875260048152610de48460408920612992565b33875260058152604087209084885252604086208560ff198254161790555f610da9565b3391610d7e565b634e487b7160e01b8b5260116004528afd5b9050610e2b612b2c565b90612c07565b9050610e3b612b2c565b90610d27565b9350908784813d8311610e71575b610e5981836125a2565b81010312610e6d5792519290610ccb610d12565b5f80fd5b503d610e4f565b6040513d5f823e3d90fd5b9050610e2b612a9c565b9050610e97612a9c565b90610cc1565b60405162461bcd60e51b8152600481018890526022818601527f436f6e666964656e7469616c20746f6b656e207472616e73666572206661696c604482015261195960f21b6064820152608490fd5b90508781813d8311610f1f575b610f0381836125a2565b81010312610f1b57518015158103610f1b575f610ca2565b8c80fd5b503d610ef9565b6040513d8f823e3d90fd5b610f3a9061258e565b610f45578b5f610c44565b8b80fd5b6040513d84823e3d90fd5b90508681813d8311610f7a575b610f6b81836125a2565b81010312610e6d57515f610be4565b503d610f61565b6040513d8e823e3d90fd5b8280fd5b8380fd5b50346101c657806003193601126101c65760206001600160a01b0360015460081c16604051908152f35b50346101c657806003193601126101c657604051600780548083529083526020808301937fa66cc928b5edb82af9bd49922954155ab7b0942694bea4ce44661d9a8736c68892915b82821061101d576105a68561059a818903826125a2565b835486529485019460019384019390910190611006565b50346101c657806003193601126101c65761104d612a6d565b611055612a4f565b600160ff19815416176001557f62e78cea01bee320cd4e420270b5ea74000d11b0c9f74754ebdbfc544b05a2586020604051338152a180f35b50346101c657806003193601126101c6576110a7612a6d565b5f6001600160a01b0360015474ffffffffffffffffffffffffffffffffffffffff0019811660015560081c167f8be0079c531659141344cd1fd0a4f28419497f9722a3daafe3b4186f6b6457e08280a380f35b50346101c65760403660031901126101c657611114612489565b6001600160a01b03168152600460205260408120805460243592908310156101c6576020610a6e84846124d4565b50346101c657806003193601126101c657602060ff600154166040519015158152f35b50346101c65760203660031901126101c65760096040602092600435808252600285526111a26001600160a01b03600185852001541615156126de565b815260028452200154604051908152f35b506040366003190112610e6d576111c861247a565b303b15610e6d576040516305a3a37560e11b8152600480359082015290151560248201525f8160448134305af18015610e7857611203575080f35b61120d915061258e565b005b34610e6d575f366003190112610e6d57611227612a6d565b60015460ff8116156112665760ff19166001557f5db9ee0a495bf2e6ff9c91a7834c1ba4fdd244a5e8aa4e537bd38aeae4b073aa6020604051338152a1005b604051638dfc202b60e01b8152600490fd5b34610e6d5761128636612524565b905f52600a60205260405f208054821015610e6d57602091610a6e916124d4565b34610e6d57602080600319360112610e6d576112c1612489565b6112e16001600160a01b0380921691823314908115611334575b50612939565b5f52600460205260405f20906040519081602084549182815201935f5260205f20915f905b82821061131d576105a68561059a818903826125a2565b835486529485019460019384019390910190611306565b905060015460081c163314846112db565b34610e6d576020366003190112610e6d57600435805f5260026020526113986001600160a01b0361138081600160405f2001541615156126de565b825f526002602052600160405f20015416331461272a565b5f52600260205261120d60405f206113c9600860078301926113bc84543090612b8d565b01916113c9308454612b8d565b339054612b8d565b34610e6d575f366003190112610e6d576020600754604051908152f35b34610e6d575f366003190112610e6d57602060405169021e19e0c9bab24000008152f35b34610e6d5760e0366003190112610e6d5760243567ffffffffffffffff8111610e6d5761144390369060040161244c565b9060443567ffffffffffffffff8111610e6d5761146490369060040161244c565b60649291923567ffffffffffffffff8111610e6d5761148790369060040161244c565b9360a435600760c4351015610e6d5761149e612a4f565b6004355f5260026020526001600160a01b03600160405f20015416611b0d576114c8871515612776565b60843515611ac8578015611a83576114e09042612985565b946114e9612a9c565b926114f2612b2c565b946004355f52600260205260405f20936004358555600185013373ffffffffffffffffffffffffffffffffffffffff1982541617905567ffffffffffffffff8a1161182857611544600286015461253a565b8a601f8211611a4f575b90505f601f82116001146119e3575f916119d8575b508a60011b905f198c60031b1c19161760028601555b67ffffffffffffffff8211611828578190611597600387015461253a565b601f81116119a5575b505f90601f8311600114611938575f9261192d575b50508160011b915f199060031b1c19161760038401555b67ffffffffffffffff8211611828576115e8600484015461253a565b601f81116118ef575b505f90601f8311600114611878579282611679969593600a93611671965f9261186d575b50508160011b915f199060031b1c19161760048201555b6084356005820155876006820155826007820155600881019485555f6009820155016001815463ff00000060c43560181b169063ffffffff1916171790553090612b8d565b309054612b8d565b60405161168581612572565b6080368237601960843502608435810460190361042457606490048152603260843502608435810460320361042457606490046020820152604b608435026084358104604b036104245760649004604082015260843560608201526004355f52600a60205260405f209081546004835580600410611850575b50905f5260205f20905f5b6004811061183c57505050600854906004355f5260096020528160405f20556801000000000000000091828110156118285761174e816001611769930160085561249f565b6004929192359083549060031b91821b915f19901b19161790565b905560075491821015611828576001820180600755821015611814576117d991600435907fa66cc928b5edb82af9bd49922954155ab7b0942694bea4ce44661d9a8736c6880155335f5260066020526117c760043560405f20612992565b604051936060855260608501916127d8565b90608435602084015260408301527f6b387e868c5ae9b53f9e972e16dfd32752b9c71f38ac76eb6dc19d157eb7044c339280600435930390a3005b634e487b7160e01b5f52603260045260245ffd5b634e487b7160e01b5f52604160045260245ffd5b600190602083519301928185015501611709565b61186790835f52600460205f2091820191016127c2565b856116fe565b013590508b80611615565b600484015f5260205f20915f5b601f19851681106118d7575083600a9361167196936001936116799a9997601f198116106118be575b505050811b01600482015561162c565b01355f19600384901b60f8161c191690558b80806118ae565b90926020600181928686013581550194019101611885565b61191d90600485015f5260205f20601f850160051c81019160208610611923575b601f0160051c01906127c2565b886115f1565b9091508190611910565b013590508a806115b5565b909250600386015f5260205f20905f935b601f198416851061198d576001945083601f19811610611974575b505050811b0160038401556115cc565b01355f19600384901b60f8161c191690558a8080611964565b81810135835560209485019460019093019201611949565b6119d290600388015f5260205f20601f850160051c8101916020861061192357601f0160051c01906127c2565b8b6115a0565b90508801358b611563565b9050600286015f5260205f20905f5b8a601f198e168210611a375750508b601f19811610611a1e575b505060018a811b016002860155611579565b8901355f1960038d901b60f8161c191690558a80611a0c565b600183946020939484930135815501930191016119f2565b611a7c91600288015f5260205f20906020601f840160051c8301931061192357601f0160051c01906127c2565b8a8a61154e565b60405162461bcd60e51b815260206004820152600c60248201527f4475726174696f6e203e203000000000000000000000000000000000000000006044820152606490fd5b60405162461bcd60e51b815260206004820152600a60248201527f546172676574203e2030000000000000000000000000000000000000000000006044820152606490fd5b60405162461bcd60e51b815260206004820152601260248201527f43616d706169676e2049442065786973747300000000000000000000000000006044820152606490fd5b34610e6d57602080600319360112610e6d57611b6c612489565b611b8b6001600160a01b03809216918233149081156113345750612939565b5f52600660205260405f20906040519081602084549182815201935f5260205f20915f905b828210611bc7576105a68561059a818903826125a2565b835486529485019460019384019390910190611bb0565b34610e6d576040366003190112610e6d57611bf7612489565b6001600160a01b0360243591165f52600660205260405f208054821015610e6d57602091610a6e916124d4565b34610e6d57602080600319360112610e6d5760043590815f5260028152611c776001600160a01b03611c6081600160405f2001541615156126de565b835f5260028352600160405f20015416331461272a565b815f5260028152600a60405f2001805460ff8116611d5f5760ff8160101c16611d1a5791604091620100007f2a5bd1e4cb34b74cce4350303a38c0ef0d357f250e78e422d859c3123638fb779462ff000019161790557f7f4f7cb0db6007b4c3952cbcc0945caa63defc279ec5daf6def3a6e87081c5858251917fbc4b8123465ea07c6492a5784a2366bcc1cc1ea41c327beea775e674e266a9c98352820152a2005b60405162461bcd60e51b815260048101849052601060248201527f416c72656164792072657665616c6564000000000000000000000000000000006044820152606490fd5b60405162461bcd60e51b815260048101849052600f60248201527f43616d706169676e2061637469766500000000000000000000000000000000006044820152606490fd5b6040366003190112610e6d57600435611dbb61247a565b90805f526020600281526001600160a01b03611de181600160405f2001541615156126de565b825f5260028252611dfb60ff600a60405f200154166127f8565b825f5260028252611e14600660405f2001544210612844565b611e1c612a2e565b611e24612a4f565b3415611f5f57825f526002825260405f205f80808034866001870154165af13d15611f5a573d611e5381612890565b90611e6160405192836125a2565b81525f853d92013e5b15611f1557600901805490925f198214610424577fa3fa8083ca7f4de3da58ef422576cd8b0731a317f2ef2ad680c85e090574e48c936001611ee693019055845f526003815260405f20865f14611f0d57855f925b8560405194611ecd86612572565b16845283015242604083015286151560608301526128ac565b8315611f07575f5b604080514281529515156020870152911693a360015f55005b33611eee565b853392611ebf565b60405162461bcd60e51b815260048101849052601360248201527f455448207472616e73666572206661696c6564000000000000000000000000006044820152606490fd5b611e6a565b60405162461bcd60e51b815260048101839052600d60248201527f4d7573742073656e6420455448000000000000000000000000000000000000006044820152606490fd5b34610e6d576080366003190112610e6d5760243567ffffffffffffffff8111610e6d57611fd590369060040161244c565b9060443567ffffffffffffffff8111610e6d57611ff690369060040161244c565b929060643567ffffffffffffffff8111610e6d5761201890369060040161244c565b9190946004355f52600260205261205e6001600160a01b0361204481600160405f2001541615156126de565b6004355f526002602052600160405f20015416331461272a565b612069841515612776565b6004355f52600260205260ff600a60405f2001541615612407576004355f526002602052600260405f200167ffffffffffffffff8511611828576120ad815461253a565b601f81116123d7575b50845f601f8211600114612374575f91612369575b508560011b905f198760031b1c19161790555b6004355f526002602052600360405f200167ffffffffffffffff821161182857612108815461253a565b601f8111612339575b50815f601f82116001146122d5575f916122ca575b508260011b905f198460031b1c19161790555b6004355f526002602052600460405f200167ffffffffffffffff841161182857612163815461253a565b601f811161229a575b505f601f8511600114612209579284926121e7927fbd8241e1220081125a6b4ed04117a376676403663f195f98440f845371c415c19897966121f9965f916121fe575b508560011b905f198760031b1c19161790555b6121d96040519788976060895260608901916127d8565b9186830360208801526127d8565b908382036040850152600435966127d8565b0390a2005b90508a01358b6121af565b601f19851690825f5260205f20915f5b8a828210612282575050926121f995928795927fbd8241e1220081125a6b4ed04117a376676403663f195f98440f845371c415c19a99986121e79610612269575b5050600185811b0190556121c2565b8b01355f19600388901b60f8161c191690558a8061225a565b60018495602093958493013581550194019201612219565b6122c490825f5260205f20601f870160051c8101916020881061192357601f0160051c01906127c2565b8761216c565b905083013588612126565b5f8381526020812092508490601f198216905b81811061231e575010612305575b5050600182811b019055612139565b8401355f19600385901b60f8161c1916905587806122f6565b878401358555600190940193602093840193879350016122e8565b61236390825f5260205f20601f850160051c8101916020861061192357601f0160051c01906127c2565b87612111565b9050860135886120cb565b5f8381526020812092505b601f19881681106123bf575086601f198116106123a6575b5050600185811b0190556120de565b8701355f19600388901b60f8161c191690558780612397565b9091602060018192858c01358155019301910161237f565b61240190825f5260205f20601f880160051c8101916020891061192357601f0160051c01906127c2565b876120b6565b60405162461bcd60e51b815260206004820152600a60248201527f4e6f7420616374697665000000000000000000000000000000000000000000006044820152606490fd5b9181601f84011215610e6d5782359167ffffffffffffffff8311610e6d5760208381860195010111610e6d57565b602435908115158203610e6d57565b600435906001600160a01b0382168203610e6d57565b6008548110156118145760085f527ff3f7a9fe364faab93b216da50a3214154f22a0a2b415b23a84c8169e8b636ee301905f90565b8054821015611814575f5260205f2001905f90565b60209060206040818301928281528551809452019301915f5b828110612510575050505090565b835185529381019392810192600101612502565b6040906003190112610e6d576004359060243590565b90600182811c92168015612568575b602083101461255457565b634e487b7160e01b5f52602260045260245ffd5b91607f1691612549565b6080810190811067ffffffffffffffff82111761182857604052565b67ffffffffffffffff811161182857604052565b90601f8019910116810190811067ffffffffffffffff82111761182857604052565b9060405191825f82546125d68161253a565b908184526020946001916001811690815f146126445750600114612606575b505050612604925003836125a2565b565b5f90815285812095935091905b81831061262c57505061260493508201015f80806125f5565b85548884018501529485019487945091830191612613565b9250505061260494925060ff191682840152151560051b8201015f80806125f5565b91908251928382525f5b848110612690575050825f602080949584010152601f8019910116010190565b602081830181015184830182015201612670565b9060078210156126b15752565b634e487b7160e01b5f52602160045260245ffd5b8054821015611814575f5260205f209060021b01905f90565b156126e557565b60405162461bcd60e51b815260206004820152601760248201527f43616d706169676e20646f6573206e6f742065786973740000000000000000006044820152606490fd5b1561273157565b60405162461bcd60e51b815260206004820152601660248201527f4e6f742063616d706169676e206f7267616e697a6572000000000000000000006044820152606490fd5b1561277d57565b60405162461bcd60e51b815260206004820152600b60248201527f5469746c6520656d7074790000000000000000000000000000000000000000006044820152606490fd5b8181106127cd575050565b5f81556001016127c2565b908060209392818452848401375f828201840152601f01601f1916010190565b156127ff57565b60405162461bcd60e51b815260206004820152601360248201527f43616d706169676e206e6f7420616374697665000000000000000000000000006044820152606490fd5b1561284b57565b60405162461bcd60e51b815260206004820152601860248201527f43616d706169676e20646561646c696e652070617373656400000000000000006044820152606490fd5b67ffffffffffffffff811161182857601f01601f191660200190565b805468010000000000000000811015611828576128ce916001820181556126c5565b6129265760036060916001600160a01b0384511673ffffffffffffffffffffffffffffffffffffffff19825416178155602084015160018201556040840151600282015501910151151560ff80198354169116179055565b634e487b7160e01b5f525f60045260245ffd5b1561294057565b60405162461bcd60e51b815260206004820152600c60248201527f556e617574686f72697a656400000000000000000000000000000000000000006044820152606490fd5b9190820180921161042457565b8054906801000000000000000082101561182857816107e69160016129b9940181556124d4565b9055565b67ffffffffffffffff81116118285760051b60200190565b80518210156118145760209160051b010190565b60405162461bcd60e51b815260206004820152601060248201527f455448206e6f74206163636570746564000000000000000000000000000000006044820152606490fd5b60025f5414612a3d5760025f55565b604051633ee5aeb560e01b8152600490fd5b60ff60015416612a5b57565b60405163d93c066560e01b8152600490fd5b6001600160a01b0360015460081c163303612a8457565b60405163118cdaa760e01b8152336004820152602490fd5b5f60206001600160a01b037fed8d60e34876f751cc8b014c560745351147d9de11b9347c854e881b128ea6015416604460405180948193639cd07acb60e01b8352816004840152600660248401525af1908115610e78575f91612afd575090565b90506020813d602011612b24575b81612b18602093836125a2565b81010312610e6d575190565b3d9150612b0b565b5f60206001600160a01b037fed8d60e34876f751cc8b014c560745351147d9de11b9347c854e881b128ea6015416604460405180948193639cd07acb60e01b8352816004840152600460248401525af1908115610e78575f91612afd575090565b6001600160a01b037fed8d60e34876f751cc8b014c560745351147d9de11b9347c854e881b128ea600541691823b15610e6d57604051635ca4b5b160e11b815260048101929092526001600160a01b03166024820152905f908290604490829084905af18015610e7857612bfe5750565b6126049061258e565b9060209060646001600160a01b037fed8d60e34876f751cc8b014c560745351147d9de11b9347c854e881b128ea6015416935f604051958694859363022f65e760e31b8552600485015260248401528160448401525af1908115610e78575f91612afd57509056fea164736f6c6343000818000a",
  "linkReferences": {},
  "deployedLinkReferences": {}
}