{
  "_format": "hh-sol-artifact-1",
  "contractName": "PrivateCampaignDonation",
  "sourceName": "contracts/PrivateDonation.sol",
  "abi": [
    {
      "inputs": [],
      "stateMutability": "nonpayable",
      "type": "constructor"
    },
    {
      "inputs": [],
      "name": "EnforcedPause",
      "type": "error"
    },
    {
      "inputs": [],
      "name": "ExpectedPause",
      "type": "error"
    },
    {
      "inputs": [],
      "name": "HandlesAlreadySavedForRequestID",
      "type": "error"
    },
    {
      "inputs": [],
      "name": "InvalidKMSSignatures",
      "type": "error"
    },
    {
      "inputs": [],
      "name": "NoHandleFoundForRequestID",
      "type": "error"
    },
    {
      "inputs": [
        {
          "internalType": "address",
          "name": "owner",
          "type": "address"
        }
      ],
      "name": "OwnableInvalidOwner",
      "type": "error"
    },
    {
      "inputs": [
        {
          "internalType": "address",
          "name": "account",
          "type": "address"
        }
      ],
      "name": "OwnableUnauthorizedAccount",
      "type": "error"
    },
    {
      "inputs": [],
      "name": "ReentrancyGuardReentrantCall",
      "type": "error"
    },
    {
      "inputs": [],
      "name": "UnsupportedHandleType",
      "type": "error"
    },
    {
      "anonymous": false,
      "inputs": [
        {
          "indexed": true,
          "internalType": "bytes32",
          "name": "campaignId",
          "type": "bytes32"
        },
        {
          "indexed": false,
          "internalType": "uint256",
          "name": "timestamp",
          "type": "uint256"
        }
      ],
      "name": "CampaignCompleted",
      "type": "event"
    },
    {
      "anonymous": false,
      "inputs": [
        {
          "indexed": true,
          "internalType": "bytes32",
          "name": "campaignId",
          "type": "bytes32"
        },
        {
          "indexed": true,
          "internalType": "address",
          "name": "organizer",
          "type": "address"
        },
        {
          "indexed": false,
          "internalType": "string",
          "name": "title",
          "type": "string"
        },
        {
          "indexed": false,
          "internalType": "uint256",
          "name": "targetAmount",
          "type": "uint256"
        },
        {
          "indexed": false,
          "internalType": "uint256",
          "name": "deadline",
          "type": "uint256"
        }
      ],
      "name": "CampaignCreated",
      "type": "event"
    },
    {
      "anonymous": false,
      "inputs": [
        {
          "indexed": true,
          "internalType": "bytes32",
          "name": "campaignId",
          "type": "bytes32"
        },
        {
          "indexed": false,
          "internalType": "uint256",
          "name": "timestamp",
          "type": "uint256"
        }
      ],
      "name": "CampaignDeadlineReached",
      "type": "event"
    },
    {
      "anonymous": false,
      "inputs": [
        {
          "indexed": true,
          "internalType": "bytes32",
          "name": "campaignId",
          "type": "bytes32"
        },
        {
          "indexed": false,
          "internalType": "string",
          "name": "title",
          "type": "string"
        },
        {
          "indexed": false,
          "internalType": "string",
          "name": "description",
          "type": "string"
        }
      ],
      "name": "CampaignUpdated",
      "type": "event"
    },
    {
      "anonymous": false,
      "inputs": [
        {
          "indexed": true,
          "internalType": "uint256",
          "name": "requestID",
          "type": "uint256"
        }
      ],
      "name": "DecryptionFulfilled",
      "type": "event"
    },
    {
      "anonymous": false,
      "inputs": [
        {
          "indexed": true,
          "internalType": "bytes32",
          "name": "campaignId",
          "type": "bytes32"
        },
        {
          "indexed": true,
          "internalType": "address",
          "name": "donor",
          "type": "address"
        },
        {
          "indexed": false,
          "internalType": "uint256",
          "name": "timestamp",
          "type": "uint256"
        },
        {
          "indexed": false,
          "internalType": "bool",
          "name": "isAnonymous",
          "type": "bool"
        }
      ],
      "name": "DonationMade",
      "type": "event"
    },
    {
      "anonymous": false,
      "inputs": [
        {
          "indexed": true,
          "internalType": "uint256",
          "name": "requestId",
          "type": "uint256"
        },
        {
          "indexed": true,
          "internalType": "bytes32",
          "name": "campaignId",
          "type": "bytes32"
        },
        {
          "indexed": true,
          "internalType": "address",
          "name": "donor",
          "type": "address"
        }
      ],
      "name": "DonationVerificationRequested",
      "type": "event"
    },
    {
      "anonymous": false,
      "inputs": [
        {
          "indexed": true,
          "internalType": "uint256",
          "name": "requestId",
          "type": "uint256"
        },
        {
          "indexed": true,
          "internalType": "bytes32",
          "name": "campaignId",
          "type": "bytes32"
        },
        {
          "indexed": true,
          "internalType": "address",
          "name": "donor",
          "type": "address"
        },
        {
          "indexed": false,
          "internalType": "bool",
          "name": "success",
          "type": "bool"
        }
      ],
      "name": "DonationVerified",
      "type": "event"
    },
    {
      "anonymous": false,
      "inputs": [
        {
          "indexed": true,
          "internalType": "bytes32",
          "name": "campaignId",
          "type": "bytes32"
        },
        {
          "indexed": false,
          "internalType": "uint256",
          "name": "finalAmount",
          "type": "uint256"
        }
      ],
      "name": "FinalAmountRevealed",
      "type": "event"
    },
    {
      "anonymous": false,
      "inputs": [
        {
          "indexed": true,
          "internalType": "bytes32",
          "name": "campaignId",
          "type": "bytes32"
        },
        {
          "indexed": false,
          "internalType": "uint256",
          "name": "milestone",
          "type": "uint256"
        }
      ],
      "name": "MilestoneReached",
      "type": "event"
    },
    {
      "anonymous": false,
      "inputs": [
        {
          "indexed": true,
          "internalType": "address",
          "name": "previousOwner",
          "type": "address"
        },
        {
          "indexed": true,
          "internalType": "address",
          "name": "newOwner",
          "type": "address"
        }
      ],
      "name": "OwnershipTransferred",
      "type": "event"
    },
    {
      "anonymous": false,
      "inputs": [
        {
          "indexed": false,
          "internalType": "address",
          "name": "account",
          "type": "address"
        }
      ],
      "name": "Paused",
      "type": "event"
    },
    {
      "anonymous": false,
      "inputs": [
        {
          "indexed": false,
          "internalType": "address",
          "name": "account",
          "type": "address"
        }
      ],
      "name": "Unpaused",
      "type": "event"
    },
    {
      "inputs": [
        {
          "internalType": "uint256",
          "name": "",
          "type": "uint256"
        }
      ],
      "name": "activeCampaigns",
      "outputs": [
        {
          "internalType": "bytes32",
          "name": "",
          "type": "bytes32"
        }
      ],
      "stateMutability": "view",
      "type": "function"
    },
    {
      "inputs": [
        {
          "internalType": "uint256",
          "name": "",
          "type": "uint256"
        }
      ],
      "name": "allCampaigns",
      "outputs": [
        {
          "internalType": "bytes32",
          "name": "",
          "type": "bytes32"
        }
      ],
      "stateMutability": "view",
      "type": "function"
    },
    {
      "inputs": [
        {
          "internalType": "bytes32",
          "name": "",
          "type": "bytes32"
        },
        {
          "internalType": "uint256",
          "name": "",
          "type": "uint256"
        }
      ],
      "name": "campaignDonations",
      "outputs": [
        {
          "internalType": "address",
          "name": "donor",
          "type": "address"
        },
        {
          "internalType": "bytes32",
          "name": "campaignId",
          "type": "bytes32"
        },
        {
          "internalType": "euint64",
          "name": "amount",
          "type": "bytes32"
        },
        {
          "internalType": "uint256",
          "name": "timestamp",
          "type": "uint256"
        },
        {
          "internalType": "bool",
          "name": "isAnonymous",
          "type": "bool"
        }
      ],
      "stateMutability": "view",
      "type": "function"
    },
    {
      "inputs": [
        {
          "internalType": "bytes32",
          "name": "",
          "type": "bytes32"
        },
        {
          "internalType": "uint256",
          "name": "",
          "type": "uint256"
        }
      ],
      "name": "campaignMilestones",
      "outputs": [
        {
          "internalType": "uint256",
          "name": "",
          "type": "uint256"
        }
      ],
      "stateMutability": "view",
      "type": "function"
    },
    {
      "inputs": [
        {
          "internalType": "bytes32",
          "name": "",
          "type": "bytes32"
        }
      ],
      "name": "campaigns",
      "outputs": [
        {
          "internalType": "bytes32",
          "name": "id",
          "type": "bytes32"
        },
        {
          "internalType": "address",
          "name": "organizer",
          "type": "address"
        },
        {
          "internalType": "string",
          "name": "title",
          "type": "string"
        },
        {
          "internalType": "string",
          "name": "description",
          "type": "string"
        },
        {
          "internalType": "string",
          "name": "imageUrl",
          "type": "string"
        },
        {
          "internalType": "uint256",
          "name": "targetAmount",
          "type": "uint256"
        },
        {
          "internalType": "uint256",
          "name": "deadline",
          "type": "uint256"
        },
        {
          "internalType": "euint64",
          "name": "totalDonations",
          "type": "bytes32"
        },
        {
          "internalType": "euint32",
          "name": "donationCount",
          "type": "bytes32"
        },
        {
          "internalType": "uint256",
          "name": "publicDonatorCount",
          "type": "uint256"
        },
        {
          "internalType": "bool",
          "name": "isActive",
          "type": "bool"
        },
        {
          "internalType": "bool",
          "name": "isCompleted",
          "type": "bool"
        },
        {
          "internalType": "bool",
          "name": "finalAmountRevealed",
          "type": "bool"
        },
        {
          "internalType": "uint256",
          "name": "revealedFinalAmount",
          "type": "uint256"
        },
        {
          "internalType": "enum PrivateCampaignDonation.CampaignCategory",
          "name": "category",
          "type": "uint8"
        }
      ],
      "stateMutability": "view",
      "type": "function"
    },
    {
      "inputs": [
        {
          "internalType": "bytes32",
          "name": "campaignId",
          "type": "bytes32"
        }
      ],
      "name": "completeCampaign",
      "outputs": [],
      "stateMutability": "nonpayable",
      "type": "function"
    },
    {
      "inputs": [
        {
          "internalType": "bytes32",
          "name": "campaignId",
          "type": "bytes32"
        },
        {
          "internalType": "string",
          "name": "title",
          "type": "string"
        },
        {
          "internalType": "string",
          "name": "description",
          "type": "string"
        },
        {
          "internalType": "string",
          "name": "imageUrl",
          "type": "string"
        },
        {
          "internalType": "uint256",
          "name": "targetAmount",
          "type": "uint256"
        },
        {
          "internalType": "uint256",
          "name": "duration",
          "type": "uint256"
        },
        {
          "internalType": "enum PrivateCampaignDonation.CampaignCategory",
          "name": "category",
          "type": "uint8"
        }
      ],
      "name": "createCampaign",
      "outputs": [],
      "stateMutability": "nonpayable",
      "type": "function"
    },
    {
      "inputs": [
        {
          "internalType": "bytes32",
          "name": "campaignId",
          "type": "bytes32"
        },
        {
          "internalType": "externalEuint64",
          "name": "encryptedAmount",
          "type": "bytes32"
        },
        {
          "internalType": "bytes",
          "name": "inputProof",
          "type": "bytes"
        },
        {
          "internalType": "bool",
          "name": "isAnonymous",
          "type": "bool"
        }
      ],
      "name": "donate",
      "outputs": [],
      "stateMutability": "payable",
      "type": "function"
    },
    {
      "inputs": [
        {
          "internalType": "bytes32",
          "name": "campaignId",
          "type": "bytes32"
        },
        {
          "internalType": "bool",
          "name": "isAnonymous",
          "type": "bool"
        }
      ],
      "name": "donateSimple",
      "outputs": [],
      "stateMutability": "payable",
      "type": "function"
    },
    {
      "inputs": [
        {
          "internalType": "address",
          "name": "",
          "type": "address"
        },
        {
          "internalType": "uint256",
          "name": "",
          "type": "uint256"
        }
      ],
      "name": "donorDonations",
      "outputs": [
        {
          "internalType": "bytes32",
          "name": "",
          "type": "bytes32"
        }
      ],
      "stateMutability": "view",
      "type": "function"
    },
    {
      "inputs": [
        {
          "internalType": "address",
          "name": "to",
          "type": "address"
        },
        {
          "internalType": "uint256",
          "name": "amount",
          "type": "uint256"
        }
      ],
      "name": "emergencyWithdraw",
      "outputs": [],
      "stateMutability": "nonpayable",
      "type": "function"
    },
    {
      "inputs": [],
      "name": "getActiveCampaigns",
      "outputs": [
        {
          "internalType": "bytes32[]",
          "name": "",
          "type": "bytes32[]"
        }
      ],
      "stateMutability": "view",
      "type": "function"
    },
    {
      "inputs": [],
      "name": "getAllCampaigns",
      "outputs": [
        {
          "internalType": "bytes32[]",
          "name": "",
          "type": "bytes32[]"
        }
      ],
      "stateMutability": "view",
      "type": "function"
    },
    {
      "inputs": [
        {
          "internalType": "bytes32",
          "name": "campaignId",
          "type": "bytes32"
        }
      ],
      "name": "getCampaignDonationCount",
      "outputs": [
        {
          "internalType": "euint32",
          "name": "",
          "type": "bytes32"
        }
      ],
      "stateMutability": "view",
      "type": "function"
    },
    {
      "inputs": [
        {
          "internalType": "bytes32",
          "name": "campaignId",
          "type": "bytes32"
        }
      ],
      "name": "getCampaignInfo",
      "outputs": [
        {
          "internalType": "address",
          "name": "organizer",
          "type": "address"
        },
        {
          "internalType": "string",
          "name": "title",
          "type": "string"
        },
        {
          "internalType": "string",
          "name": "description",
          "type": "string"
        },
        {
          "internalType": "string",
          "name": "imageUrl",
          "type": "string"
        },
        {
          "internalType": "uint256",
          "name": "targetAmount",
          "type": "uint256"
        },
        {
          "internalType": "uint256",
          "name": "deadline",
          "type": "uint256"
        },
        {
          "internalType": "uint256",
          "name": "publicDonatorCount",
          "type": "uint256"
        },
        {
          "internalType": "bool",
          "name": "isActive",
          "type": "bool"
        },
        {
          "internalType": "enum PrivateCampaignDonation.CampaignCategory",
          "name": "category",
          "type": "uint8"
        }
      ],
      "stateMutability": "view",
      "type": "function"
    },
    {
      "inputs": [
        {
          "internalType": "bytes32",
          "name": "campaignId",
          "type": "bytes32"
        }
      ],
      "name": "getCampaignMetrics",
      "outputs": [
        {
          "internalType": "uint256",
          "name": "targetAmount",
          "type": "uint256"
        },
        {
          "internalType": "uint256",
          "name": "totalDonators",
          "type": "uint256"
        },
        {
          "internalType": "uint256",
          "name": "deadline",
          "type": "uint256"
        },
        {
          "internalType": "bool",
          "name": "isActive",
          "type": "bool"
        },
        {
          "internalType": "uint256",
          "name": "daysLeft",
          "type": "uint256"
        }
      ],
      "stateMutability": "view",
      "type": "function"
    },
    {
      "inputs": [
        {
          "internalType": "bytes32",
          "name": "campaignId",
          "type": "bytes32"
        }
      ],
      "name": "getCampaignTotalDonations",
      "outputs": [
        {
          "internalType": "euint64",
          "name": "",
          "type": "bytes32"
        }
      ],
      "stateMutability": "view",
      "type": "function"
    },
    {
      "inputs": [
        {
          "internalType": "address",
          "name": "organizer",
          "type": "address"
        }
      ],
      "name": "getCampaignsByOrganizer",
      "outputs": [
        {
          "internalType": "bytes32[]",
          "name": "",
          "type": "bytes32[]"
        }
      ],
      "stateMutability": "view",
      "type": "function"
    },
    {
      "inputs": [
        {
          "internalType": "address",
          "name": "donor",
          "type": "address"
        }
      ],
      "name": "getDonorHistory",
      "outputs": [
        {
          "internalType": "bytes32[]",
          "name": "",
          "type": "bytes32[]"
        }
      ],
      "stateMutability": "view",
      "type": "function"
    },
    {
      "inputs": [
        {
          "internalType": "bytes32",
          "name": "campaignId",
          "type": "bytes32"
        }
      ],
      "name": "getPublicDonationCount",
      "outputs": [
        {
          "internalType": "uint256",
          "name": "",
          "type": "uint256"
        }
      ],
      "stateMutability": "view",
      "type": "function"
    },
    {
      "inputs": [
        {
          "internalType": "bytes32",
          "name": "campaignId",
          "type": "bytes32"
        }
      ],
      "name": "getRecentDonations",
      "outputs": [
        {
          "internalType": "address[]",
          "name": "donors",
          "type": "address[]"
        },
        {
          "internalType": "uint256[]",
          "name": "timestamps",
          "type": "uint256[]"
        },
        {
          "internalType": "bool[]",
          "name": "isAnonymous",
          "type": "bool[]"
        }
      ],
      "stateMutability": "view",
      "type": "function"
    },
    {
      "inputs": [],
      "name": "getTotalCampaignsCount",
      "outputs": [
        {
          "internalType": "uint256",
          "name": "",
          "type": "uint256"
        }
      ],
      "stateMutability": "view",
      "type": "function"
    },
    {
      "inputs": [
        {
          "internalType": "address",
          "name": "donor",
          "type": "address"
        },
        {
          "internalType": "bytes32",
          "name": "campaignId",
          "type": "bytes32"
        }
      ],
      "name": "hasDonated",
      "outputs": [
        {
          "internalType": "bool",
          "name": "",
          "type": "bool"
        }
      ],
      "stateMutability": "view",
      "type": "function"
    },
    {
      "inputs": [
        {
          "internalType": "address",
          "name": "",
          "type": "address"
        },
        {
          "internalType": "bytes32",
          "name": "",
          "type": "bytes32"
        }
      ],
      "name": "hasDonatedTo",
      "outputs": [
        {
          "internalType": "bool",
          "name": "",
          "type": "bool"
        }
      ],
      "stateMutability": "view",
      "type": "function"
    },
    {
      "inputs": [
        {
          "internalType": "bytes32",
          "name": "",
          "type": "bytes32"
        },
        {
          "internalType": "uint256",
          "name": "",
          "type": "uint256"
        }
      ],
      "name": "milestoneReached",
      "outputs": [
        {
          "internalType": "bool",
          "name": "",
          "type": "bool"
        }
      ],
      "stateMutability": "view",
      "type": "function"
    },
    {
      "inputs": [],
      "name": "nextRequestId",
      "outputs": [
        {
          "internalType": "uint256",
          "name": "",
          "type": "uint256"
        }
      ],
      "stateMutability": "view",
      "type": "function"
    },
    {
      "inputs": [
        {
          "internalType": "address",
          "name": "",
          "type": "address"
        },
        {
          "internalType": "uint256",
          "name": "",
          "type": "uint256"
        }
      ],
      "name": "organizerCampaigns",
      "outputs": [
        {
          "internalType": "bytes32",
          "name": "",
          "type": "bytes32"
        }
      ],
      "stateMutability": "view",
      "type": "function"
    },
    {
      "inputs": [],
      "name": "owner",
      "outputs": [
        {
          "internalType": "address",
          "name": "",
          "type": "address"
        }
      ],
      "stateMutability": "view",
      "type": "function"
    },
    {
      "inputs": [],
      "name": "pause",
      "outputs": [],
      "stateMutability": "nonpayable",
      "type": "function"
    },
    {
      "inputs": [],
      "name": "paused",
      "outputs": [
        {
          "internalType": "bool",
          "name": "",
          "type": "bool"
        }
      ],
      "stateMutability": "view",
      "type": "function"
    },
    {
      "inputs": [
        {
          "internalType": "uint256",
          "name": "",
          "type": "uint256"
        }
      ],
      "name": "pendingDonations",
      "outputs": [
        {
          "internalType": "address",
          "name": "donor",
          "type": "address"
        },
        {
          "internalType": "bytes32",
          "name": "campaignId",
          "type": "bytes32"
        },
        {
          "internalType": "uint256",
          "name": "ethAmount",
          "type": "uint256"
        },
        {
          "internalType": "euint64",
          "name": "encryptedAmount",
          "type": "bytes32"
        },
        {
          "internalType": "bool",
          "name": "isActive",
          "type": "bool"
        },
        {
          "internalType": "bool",
          "name": "isAnonymous",
          "type": "bool"
        }
      ],
      "stateMutability": "view",
      "type": "function"
    },
    {
      "inputs": [],
      "name": "renounceOwnership",
      "outputs": [],
      "stateMutability": "nonpayable",
      "type": "function"
    },
    {
      "inputs": [
        {
          "internalType": "bytes32",
          "name": "campaignId",
          "type": "bytes32"
        }
      ],
      "name": "revealFinalAmount",
      "outputs": [],
      "stateMutability": "nonpayable",
      "type": "function"
    },
    {
      "inputs": [
        {
          "internalType": "address",
          "name": "newOwner",
          "type": "address"
        }
      ],
      "name": "transferOwnership",
      "outputs": [],
      "stateMutability": "nonpayable",
      "type": "function"
    },
    {
      "inputs": [],
      "name": "unpause",
      "outputs": [],
      "stateMutability": "nonpayable",
      "type": "function"
    },
    {
      "inputs": [
        {
          "internalType": "bytes32",
          "name": "campaignId",
          "type": "bytes32"
        },
        {
          "internalType": "string",
          "name": "title",
          "type": "string"
        },
        {
          "internalType": "string",
          "name": "description",
          "type": "string"
        },
        {
          "internalType": "string",
          "name": "imageUrl",
          "type": "string"
        }
      ],
      "name": "updateCampaign",
      "outputs": [],
      "stateMutability": "nonpayable",
      "type": "function"
    },
    {
      "inputs": [
        {
          "internalType": "uint256",
          "name": "requestId",
          "type": "uint256"
        },
        {
          "internalType": "uint64",
          "name": "decryptedAmount",
          "type": "uint64"
        },
        {
          "internalType": "bytes[]",
          "name": "signatures",
          "type": "bytes[]"
        }
      ],
      "name": "verifyDonationCallback",
      "outputs": [],
      "stateMutability": "nonpayable",
      "type": "function"
    }
  ],
  "bytecode": "0x60806040523462000213575f60606200001762000217565b82815282602082015282604082015201526200003262000217565b606073687820221192c5b662b25367f70076a37bc79b6c9182815273848b0066793bcc60346da1f49049357399b8d595806020830152731364cbbf2cdf5032c47d8226a6f6fbd2afcdacac9182604082015273bc91f3dad1a5f19f8390c400196e58073b6a0bc4938491015260018060a01b0319937fed8d60e34876f751cc8b014c560745351147d9de11b9347c854e881b128ea60090858254161790557fed8d60e34876f751cc8b014c560745351147d9de11b9347c854e881b128ea60190848254161790557fed8d60e34876f751cc8b014c560745351147d9de11b9347c854e881b128ea60290838254161790557fed8d60e34876f751cc8b014c560745351147d9de11b9347c854e881b128ea603908282541617905573a02cda4ca3a71d7c46997716f4283aa851c288127f5ea69329017273582817d320489fbd94f775580e90c092699ca6f3d12fdf7d009182541617905560015f553315620001fb5760018054610100600160a81b0319811633600881811b610100600160a81b0316929092179093556040519291901c6001600160a01b03167f8be0079c531659141344cd1fd0a4f28419497f9722a3daafe3b4186f6b6457e05f80a3613c9090816200024c8239f35b604051631e4fbdf760e01b81525f6004820152602490fd5b5f80fd5b60405190608082016001600160401b038111838210176200023757604052565b634e487b7160e01b5f52604160045260245ffdfe60806040526004361015610011575f80fd5b5f3560e01c806306a191a31461025f5780630de7bfd41461025a578063125eed6d146102555780631465b2c314610250578063229dcbe31461024b57806324a1f367146102465780632708e0cf146102415780633e4cbf421461023c5780633f48563f146102375780633f4ba83a146102325780634395e1bf1461022d57806343b09c591461022857806349b8af26146102235780635c975abb1461021e5780636a84a9851461021957806370e6646114610214578063715018a61461020f5780638456cb591461020a57806386cdf604146102055780638da5cb5b1461020057806394470d51146101fb57806395ccea67146101f65780639aea96b9146101f15780639eca2f1e146101ec578063a509f4d1146101e7578063a6567712146101e2578063a6c6e913146101dd578063ad115e3c146101d8578063ae31139a146101d3578063b0a6e3e6146101ce578063b999be1b146101c9578063c362b156146101c4578063c5e86b12146101bf578063cd1d0a2b146101ba578063dc357e2e146101b5578063e4ce8d5b146101b55763f2fde38b146101b0575f80fd5b611ea5565b611e5c565b611cab565b611be4565b611ab4565b611946565b6117b9565b611666565b611616565b611489565b611406565b61139d565b6112e7565b610f30565b610d99565b610d49565b610d20565b610c94565b610c3c565b610bd2565b610b82565b610b65565b610b43565b610af6565b6108c5565b610875565b61080c565b6107d5565b610749565b61072c565b610699565b6105eb565b610550565b61049c565b61042b565b610296565b9181601f840112156102925782359167ffffffffffffffff8311610292576020838186019501011161029257565b5f80fd5b34610292576080366003190112610292576004803567ffffffffffffffff602435818111610292576102cb9036908501610264565b91604435818111610292576102e39036908701610264565b91606435908111610292576102fb9036908801610264565b90865f52600260205261033b6001600160a01b0361032381600160405f200154161515611f55565b885f526002602052600160405f200154163314611fa1565b610346861515611fed565b865f52600260205260ff600a60405f20015416156103e75782916103d69188996103c4876103e2989760036103b08e7f9a0a95dc44b70152876dc4b3d9686fd7a17ee8a863a46497bc8ec49ae836abeb9f8f8f60026103b06103b6945f52600260205260405f2090565b01612092565b5f52600260205260405f2090565b6103b08b5f52600260205260405f2090565b6040519485948561217b565b0390a2005b60405162461bcd60e51b81526020818a0152601660248201527f43616d706169676e206973206e6f7420616374697665000000000000000000006044820152606490fd5b34610292576020366003190112610292576004355f52600b60205260c060405f2060ff6001600160a01b0382541691600181015490600281015460046003830154920154926040519586526020860152604085015260608401528181161515608084015260081c16151560a0820152f35b34610292576040366003190112610292576004355f52600a60205260405f206024355f52602052602060ff60405f2054166040519015158152f35b600435906001600160a01b038216820361029257565b634e487b7160e01b5f52603260045260245ffd5b6008548110156105365760085f527ff3f7a9fe364faab93b216da50a3214154f22a0a2b415b23a84c8169e8b636ee301905f90565b6104ed565b8054821015610536575f5260205f2001905f90565b34610292576040366003190112610292576105696104d7565b6001600160a01b0360243591165f52600660205260405f208054821015610292576020916105969161053b565b90546040519160031b1c8152f35b9081518082526020808093019301915f5b8281106105c3575050505090565b8351855293810193928101926001016105b5565b9060206105e89281815201906105a4565b90565b3461029257602080600319360112610292576106056104d7565b6106256001600160a01b0380921691823314908115610688575b506121a2565b5f52600660205260405f20906040519081602084549182815201935f5260205f20915f905b8282106106715761066d8561066181890382611107565b604051918291826105d7565b0390f35b83548652948501946001938401939091019061064a565b905060015460081c1633145f61061f565b346102925760e03660031901126102925767ffffffffffffffff602435818111610292576106cb903690600401610264565b604435838111610292576106e3903690600401610264565b929093606435908111610292576106fe903690600401610264565b9060c435946007861015610292576107209660a435956084359560043561278d565b005b5f91031261029257565b34610292575f366003190112610292576020600754604051908152f35b3461029257602080600319360112610292576107636104d7565b6107826001600160a01b038092169182331490811561068857506121a2565b5f52600460205260405f20906040519081602084549182815201935f5260205f20915f905b8282106107be5761066d8561066181890382611107565b8354865294850194600193840193909101906107a7565b34610292576040366003190112610292576024356004355f52600960205260405f208054821015610292576020916105969161053b565b34610292575f36600319011261029257610824612f82565b60015460ff8116156108635760ff19166001557f5db9ee0a495bf2e6ff9c91a7834c1ba4fdd244a5e8aa4e537bd38aeae4b073aa6020604051338152a1005b604051638dfc202b60e01b8152600490fd5b346102925760403660031901126102925761088e6104d7565b6001600160a01b0360243591165f52600460205260405f208054821015610292576020916105969161053b565b8015150361029257565b604080600319360112610292576004357fa3fa8083ca7f4de3da58ef422576cd8b0731a317f2ef2ad680c85e090574e48c60243592610903846108bb565b825f5260026020526109256001600160a01b036001835f200154161515611f55565b825f52600260205261093f60ff600a835f200154166129b9565b825f5260026020526109586006825f2001544210612a05565b610960612fb1565b610968612fd2565b610973341515612a51565b610987678ac7230489e80000341115612a9d565b600961099b845f52600260205260405f2090565b016109a681546122f2565b90556109cf60086109bf855f52600260205260405f2090565b01546109c961375e565b90612ff0565b60086109e3855f52600260205260405f2090565b0155610a2c6109f061383a565b6109f8611b2c565b3381529060208201869052838201524260608201528515156080820152610a27855f52600360205260405f2090565b612ae9565b610a5083610a4b336001600160a01b03165f52600460205260405f2090565b612731565b610a8c610a7f84610a72336001600160a01b03165f52600560205260405f2090565b905f5260205260405f2090565b805460ff19166001179055565b610adb5f80808034610acb610abf610abf6001610ab18d5f52600260205260405f2090565b01546001600160a01b031690565b6001600160a01b031690565b5af1610ad5612b91565b50612bc0565b5142815292151560208401523392604090a361072060015f55565b3461029257602036600319011261029257600435805f526002602052610b2d6001600160a01b03600160405f200154161515611f55565b5f526003602052602060405f2054604051908152f35b34610292575f36600319011261029257602060ff600154166040519015158152f35b34610292575f366003190112610292576020600c54604051908152f35b3461029257602036600319011261029257600435805f526002602052610bb96001600160a01b03600160405f200154161515611f55565b5f5260026020526020600760405f200154604051908152f35b34610292575f36600319011261029257610bea612f82565b5f6001600160a01b0360015474ffffffffffffffffffffffffffffffffffffffff0019811660015560081c167f8be0079c531659141344cd1fd0a4f28419497f9722a3daafe3b4186f6b6457e08280a3005b34610292575f36600319011261029257610c54612f82565b610c5c612fd2565b600160ff19815416176001557f62e78cea01bee320cd4e420270b5ea74000d11b0c9f74754ebdbfc544b05a2586020604051338152a1005b34610292575f36600319011261029257604051806007549182815260208091019260075f527fa66cc928b5edb82af9bd49922954155ab7b0942694bea4ce44661d9a8736c688915f905b828210610d095761066d85610cf581890382611107565b6040519182916020835260208301906105a4565b835486529485019460019384019390910190610cde565b34610292575f3660031901126102925760206001600160a01b0360015460081c16604051908152f35b34610292576020366003190112610292576004356008548110156102925760209060085f527ff3f7a9fe364faab93b216da50a3214154f22a0a2b415b23a84c8169e8b636ee30154604051908152f35b34610292576040366003190112610292576001600160a01b03610dba6104d7565b610dc2612f82565b168015610e29575f80808093602435905af1610ddc612b91565b5015610de457005b60405162461bcd60e51b815260206004820152601160248201527f5769746864726177616c206661696c65640000000000000000000000000000006044820152606490fd5b60405162461bcd60e51b815260206004820152600f60248201527f496e76616c6964206164647265737300000000000000000000000000000000006044820152606490fd5b9081518082526020808093019301915f5b828110610e8d575050505090565b8351151585529381019392810192600101610e7f565b939290936060810160608252855180915260808201906020809701905f5b88828210610f135750505050818103868301528580855192838152019401905f5b818110610eff575050506105e89394506040818403910152610e6e565b825186529487019491870191600101610ee2565b83516001600160a01b031685529384019390920191600101610ec1565b3461029257602036600319011261029257600435805f526002602052610f83610f7e600192610f706001600160a01b03600160405f200154161515611f55565b5f52600360205260405f2090565b612c0c565b8051600a81111561108057600a5b610f9a81612568565b91610fa482612568565b93610fae83612568565b925f5b818110610fc8576040518061066d878a8a84610ea3565b8061105561104488611009878c61103d8f986060611034610ff38f610fee8f8692612ca3565b612313565b809661102f60809a6110118c6110098686612619565b510151151590565b1561105b57611021875f92612619565b906001600160a01b03169052565b612619565b51015192612619565b5288612619565b61104e8389612619565b9015159052565b01610fb1565b6110218761107a61106c8787612619565b51516001600160a01b031690565b92612619565b80610f91565b90600182811c921680156110b4575b60208310146110a057565b634e487b7160e01b5f52602260045260245ffd5b91607f1691611095565b634e487b7160e01b5f52604160045260245ffd5b60a0810190811067ffffffffffffffff8211176110ee57604052565b6110be565b67ffffffffffffffff81116110ee57604052565b90601f8019910116810190811067ffffffffffffffff8211176110ee57604052565b9060405191825f825461113b81611086565b908184526020946001916001811690815f146111a9575060011461116b575b50505061116992500383611107565b565b5f90815285812095935091905b81831061119157505061116993508201015f808061115a565b85548884018501529485019487945091830191611178565b9250505061116994925060ff191682840152151560051b8201015f808061115a565b91908251928382525f5b8481106111f5575050825f602080949584010152601f8019910116010190565b6020818301810151848301820152016111d5565b634e487b7160e01b5f52602160045260245ffd5b6007111561122757565b611209565b9060078210156112275752565b9c9a989694939291909f9e9d9b9997959f8d6101e0928392825260208201611268916001600160a01b03169052565b604001528c01611277916111cb565b8b810360608d0152611288916111cb565b8a810360808c0152611299916111cb565b9b60a08a015260c089015260e088015261010087015261012086015261014085016112c49115159052565b151561016084015215156101808301526101a08201526101c0016111699161122c565b34610292576020366003190112610292576004355f52600260205260405f2080549061066d61132060018301546001600160a01b031690565b61132c60028401611129565b9261133960038201611129565b9461134660048301611129565b9260058301549060068401546007850154600886015490600987015492600a8801549561137c600c600b8b01549a015460ff1690565b996040519d8e9d8e9860ff8b60101c169b60ff808d60081c169c169a611239565b34610292576020366003190112610292576004356007548110156102925760209060075f527fa66cc928b5edb82af9bd49922954155ab7b0942694bea4ce44661d9a8736c6880154604051908152f35b8054821015610536575f52600560205f20910201905f90565b34610292576040366003190112610292576024356004355f52600360205260405f209081548110156102925761143b916113ed565b508054600182015460028301546003840154600490940154604080516001600160a01b039095168552602085019390935291830152606082019290925260ff9091161515608082015260a090f35b60803660031901126102925760443560043567ffffffffffffffff8211610292576115e66115616115696114c46115ce953690600401610264565b9290606435936114d3856108bb565b865f5260026020526114f66001600160a01b03600160405f200154161515611f55565b865f52600260205261151160ff600a60405f200154166129b9565b865f52600260205261152b600660405f2001544210612a05565b611533612fb1565b61153b612fd2565b611546341515612a51565b61155a678ac7230489e80000341115612a9d565b3691611bae565b60243561301f565b600c5494859261158061157b85612cb0565b600c55565b6115b761158b611b39565b338152918760208401523460408401528460608401526115ae6080840160019052565b151560a0830152565b6115c9845f52600b60205260405f2090565b612cbe565b6115d6612d52565b906115e0826125dc565b5261317f565b5033917f12bb3b7afedba3afe258ec48ccdddc1d63afee0a6cc500854a7d8610c4d657f85f80a461072060015f55565b3461029257602036600319011261029257600435805f52600260205261164d6001600160a01b03600160405f200154161515611f55565b5f5260026020526020600860405f200154604051908152f35b3461029257602036600319011261029257600435805f5260026020526116b96001600160a01b036116a181600160405f200154161515611f55565b825f526002602052600160405f200154163314611fa1565b805f52600260205260ff600a60405f20015416611774576117016116fc6116f8600a6116ed855f52600260205260405f2090565b015460101c60ff1690565b1590565b612d7d565b61172a600a611718835f52600260205260405f2090565b01805462ff0000191662010000179055565b7f38859ea9eabca4259c78a448e4a58d99d537ef0d957ddc7b332b23fee1c813ba6103e2600b611762845f52600260205260405f2090565b01546040519081529081906020820190565b60405162461bcd60e51b815260206004820152601560248201527f43616d706169676e207374696c6c2061637469766500000000000000000000006044820152606490fd5b3461029257602036600319011261029257600435805f5260026020526117f46001600160a01b036116a181600160405f200154161515611f55565b805f52600260205260ff600a60405f20015416156118905761182e600a611823835f52600260205260405f2090565b01805460ff19169055565b611855600a611845835f52600260205260405f2090565b01805461ff001916610100179055565b61185e816132e8565b6040514281527f39c59e243b727b972e7c4ce6e5d7e6ce2c886e018b0ce40d214e17624d51b0829080602081016103e2565b60405162461bcd60e51b815260206004820152601a60248201527f43616d706169676e20616c726561647920636f6d706c657465640000000000006044820152606490fd5b94999896929361191a611169999561190c6101009995611928956001600160a01b0361012091168b528060208c01528a01906111cb565b9088820360408a01526111cb565b9086820360608801526111cb565b98608085015260a084015260c0830152151560e0820152019061122c565b3461029257602036600319011261029257600435805f52600260205260405f20600101546001600160a01b0316151561197e90611f55565b5f52600260205260405f20611991611b59565b8154815260018201546001600160a01b0316602082019081526119b660028401611129565b60408301908152906119ca60038501611129565b60608401908152926119de60048601611129565b946080820195865260058101549260a08301938452600682015460c08401908152600783015460e085015260088301546101008501526009830154916101208501928352600a8401549361014086019460ff8116611a3e90879015159052565b60ff600882901c16151561016088015260101c60ff161515610180870152600b8101546101a0870152600c015460ff16946101c00194611a7e9086612320565b516001600160a01b031695519651975194519051915192511515935194611aa48661121d565b60405198899861066d988a6118d5565b34610292575f36600319011261029257604051806008549182815260208091019260085f527ff3f7a9fe364faab93b216da50a3214154f22a0a2b415b23a84c8169e8b636ee3915f905b828210611b155761066d85610cf581890382611107565b835486529485019460019384019390910190611afe565b60405190611169826110d2565b6040519060c0820182811067ffffffffffffffff8211176110ee57604052565b604051906101e0820182811067ffffffffffffffff8211176110ee57604052565b67ffffffffffffffff81116110ee5760051b60200190565b67ffffffffffffffff81116110ee57601f01601f191660200190565b929192611bba82611b92565b91611bc86040519384611107565b829481845281830111610292578281602093845f960137010152565b346102925760603660031901126102925767ffffffffffffffff60248035828116810361029257604491604435908482116102925736602383011215610292578160040135611c3281611b7a565b94611c406040519687611107565b8186526020966024602088019360051b860101943686116102925760248101935b868510611c75576107208989600435612e38565b843583811161029257820136604382011215610292578a91611ca083923690888b8201359101611bae565b815201940193611c61565b3461029257602036600319011261029257600435805f526002602052611ce26001600160a01b03600160405f200154161515611f55565b5f52600260205260405f20611cf5611b59565b81548152611d20611d1060018401546001600160a01b031690565b6001600160a01b03166020830152565b611d2c60028301611129565b6040820152611d3d60038301611129565b6060820152611d4e60048301611129565b608082015261066d600583015460a0830190815260068401549360c08401948552600781015460e08501526008810154610100850152611df360098201549461012081019586526101c0611dec600c600a86015495611dd960ff610140870198611dbc8282168b9015159052565b600881901c8216151561016089015260101c161515610180870152565b600b8101546101a0860152015460ff1690565b9101612320565b5f918551804210611e38575b505193519451905115155b90604051958695869192608093969594919660a0840197845260208401526040830152151560608201520152565b611e0a919350611e4c611e55914290612ca3565b62015180900490565b9290611dff565b34610292576040366003190112610292576001600160a01b03611e7d6104d7565b165f52600560205260405f206024355f52602052602060ff60405f2054166040519015158152f35b3461029257602036600319011261029257611ebe6104d7565b611ec6612f82565b6001600160a01b03808216918215611f3d5774ffffffffffffffffffffffffffffffffffffffff006001549160081b1674ffffffffffffffffffffffffffffffffffffffff001982161760015560081c167f8be0079c531659141344cd1fd0a4f28419497f9722a3daafe3b4186f6b6457e05f80a3005b604051631e4fbdf760e01b81525f6004820152602490fd5b15611f5c57565b60405162461bcd60e51b815260206004820152601760248201527f43616d706169676e20646f6573206e6f742065786973740000000000000000006044820152606490fd5b15611fa857565b60405162461bcd60e51b815260206004820152601660248201527f4e6f742063616d706169676e206f7267616e697a6572000000000000000000006044820152606490fd5b15611ff457565b60405162461bcd60e51b815260206004820152601560248201527f5469746c652063616e6e6f7420626520656d70747900000000000000000000006044820152606490fd5b818110612044575050565b5f8155600101612039565b9190601f811161205e57505050565b611169925f5260205f20906020601f840160051c83019310612088575b601f0160051c0190612039565b909150819061207b565b90929167ffffffffffffffff81116110ee576120b8816120b28454611086565b8461204f565b5f601f82116001146120f65781906120e79394955f926120eb575b50508160011b915f199060031b1c19161790565b9055565b013590505f806120d3565b601f19821694612109845f5260205f2090565b915f5b87811061214357508360019596971061212a575b505050811b019055565b01355f19600384901b60f8161c191690555f8080612120565b9092602060018192868601358155019401910161210c565b908060209392818452848401375f828201840152601f01601f1916010190565b9290612194906105e8959360408652604086019161215b565b92602081850391015261215b565b156121a957565b60405162461bcd60e51b815260206004820152601360248201527f556e617574686f72697a656420616363657373000000000000000000000000006044820152606490fd5b156121f557565b60405162461bcd60e51b815260206004820152601a60248201527f43616d706169676e20494420616c7265616479206578697374730000000000006044820152606490fd5b1561224157565b60405162461bcd60e51b8152602060048201526024808201527f54617267657420616d6f756e74206d75737420626520677265617465722074686044820152630616e20360e41b6064820152608490fd5b1561229957565b60405162461bcd60e51b815260206004820152601f60248201527f4475726174696f6e206d7573742062652067726561746572207468616e2030006044820152606490fd5b634e487b7160e01b5f52601160045260245ffd5b906001820180921161230057565b6122de565b906020820180921161230057565b9190820180921161230057565b60078210156112275752565b919091825167ffffffffffffffff81116110ee5761234e816120b28454611086565b602080601f831160011461238a575081906120e79394955f9261237f5750508160011b915f199060031b1c19161790565b015190505f806120d3565b90601f1983169561239e855f5260205f2090565b925f905b8882106123d8575050836001959697106123c057505050811b019055565b01515f1960f88460031b161c191690555f8080612120565b806001859682949686015181550195019301906123a2565b9060078110156112275760ff80198354169116179055565b600c6101c0611169938051845561245861242c60208301516001600160a01b031690565b60018601906001600160a01b031673ffffffffffffffffffffffffffffffffffffffff19825416179055565b61246960408201516002860161232c565b61247a60608201516003860161232c565b61248b60808201516004860161232c565b60a0810151600585015560c0810151600685015560e0810151600785015561010081015160088501556101208101516009850155612530600a85016124e96124d7610140850151151590565b829060ff801983541691151516179055565b6125106124fa610160850151151590565b825461ff00191690151560081b61ff0016178255565b6101808301511515815462ff0000191690151560101b62ff000016179055565b6101a0810151600b8501550151916125478361121d565b016123f0565b6040519061255a826110d2565b600482526080366020840137565b9061257282611b7a565b61257f6040519182611107565b8281528092612590601f1991611b7a565b0190602036910137565b9060198202918083046019149015171561230057565b9060328202918083046032149015171561230057565b90604b820291808304604b149015171561230057565b8051156105365760200190565b8051600110156105365760400190565b8051600210156105365760600190565b8051600310156105365760800190565b80518210156105365760209160051b010190565b81519167ffffffffffffffff83116110ee57600160401b83116110ee578154838355808410612687575b506020809101915f5260205f20905f5b848110612675575050505050565b83518382015592810192600101612667565b61269d90835f528460205f209182019101612039565b5f612657565b600754600160401b8110156110ee5760018101806007558110156105365760075f527fa66cc928b5edb82af9bd49922954155ab7b0942694bea4ce44661d9a8736c6880155565b600854600160401b8110156110ee5760018101806008558110156105365760085f527ff3f7a9fe364faab93b216da50a3214154f22a0a2b415b23a84c8169e8b636ee30155565b805490600160401b8210156110ee57816127539160016120e79401815561053b565b819391549060031b91821b915f19901b19161790565b90612783906040939695949660608452606084019161215b565b9460208201520152565b978199838a936128986128ff96998c9b61288c6129b49b9a7f6b387e868c5ae9b53f9e972e16dfd32752b9c71f38ac76eb6dc19d157eb7044c9f6128e89961280e61281f926127fc6001600160a01b038f6001610ab16127f5925f52600260205260405f2090565b16156121ee565b6128078b1515611fed565b151561223a565b612819811515612292565b42612313565b9b61288061282b61383a565b976128346137d9565b9961283f338b61389b565b612849338c61389b565b6128528a612f78565b5061285c8b612f78565b5061155a612868611b59565b9e8f9081526020339101906001600160a01b03169052565b60408c01523691611bae565b60608901523691611bae565b60808601528960a08601528660c086015260e08501526101008401525f6101208401526128c9610140840160019052565b5f6101608401525f6101808401525f6101a08401526101c08301612320565b6128fa885f52600260205260405f2090565b612408565b61297561290a61254d565b61291d6129168761259a565b6064900490565b612926826125dc565b52612933612916876125b0565b61293c826125e9565b52612949612916876125c6565b612952826125f9565b528561295d82612609565b52612970885f52600960205260405f2090565b61262d565b61297e866126a3565b612987866126ea565b6129a686610a4b336001600160a01b03165f52600660205260405f2090565b604051938493339885612769565b0390a3565b156129c057565b60405162461bcd60e51b815260206004820152601360248201527f43616d706169676e206e6f7420616374697665000000000000000000000000006044820152606490fd5b15612a0c57565b60405162461bcd60e51b815260206004820152601860248201527f43616d706169676e20646561646c696e652070617373656400000000000000006044820152606490fd5b15612a5857565b60405162461bcd60e51b815260206004820152601b60248201527f4d7573742073656e6420455448207769746820646f6e6174696f6e00000000006044820152606490fd5b15612aa457565b60405162461bcd60e51b815260206004820152601260248201527f446f6e6174696f6e20746f6f206c6172676500000000000000000000000000006044820152606490fd5b8054600160401b8110156110ee57612b06916001820181556113ed565b612b7e576004608083612b496001600160a01b0361116996511685906001600160a01b031673ffffffffffffffffffffffffffffffffffffffff19825416179055565b6020810151600185015560408101516002850155606081015160038501550151151591019060ff801983541691151516179055565b634e487b7160e01b5f525f60045260245ffd5b3d15612bbb573d90612ba282611b92565b91612bb06040519384611107565b82523d5f602084013e565b606090565b15612bc757565b60405162461bcd60e51b815260206004820152600f60248201527f5472616e73666572206661696c656400000000000000000000000000000000006044820152606490fd5b908154612c1881611b7a565b92604093612c296040519182611107565b82815280946020809201925f5260205f20905f935b858510612c4d57505050505050565b6005846001928451612c5e816110d2565b6001600160a01b03875416815284870154838201526002870154868201526003870154606082015260ff60048801541615156080820152815201930194019391612c3e565b9190820391821161230057565b5f1981146123005760010190565b9060a0600461116993612cfe6001600160a01b0385511682906001600160a01b031673ffffffffffffffffffffffffffffffffffffffff19825416179055565b6020840151600182015560408401516002820155606084015160038201550191612d3a60808201511515849060ff801983541691151516179055565b0151815461ff00191690151560081b61ff0016179055565b604051906040820182811067ffffffffffffffff8211176110ee576040526001825260203681840137565b15612d8457565b60405162461bcd60e51b815260206004820152601760248201527f416d6f756e7420616c72656164792072657665616c65640000000000000000006044820152606490fd5b9060405160c081019080821067ffffffffffffffff8311176110ee576111699160405260a060ff600483966001600160a01b03815416855260018101546020860152600281015460408601526003810154606086015201548181161515608085015260081c1691019015159052565b91825f52600b60205260ff600460405f2001541615612f3357612e5b90836133d0565b612e75612e70835f52600b60205260405f2090565b612dc9565b9067ffffffffffffffff604083015191161491825f14612f2557612e988261351f565b612eca612ead825f52600b60205260405f2090565b60045f918281558260018201558260028201558260038201550155565b7f5a18205e564acb85534f67e9a0d3b29faee462644c685fceabdc14a92d758efb612f206001600160a01b03612f0c602086015195516001600160a01b031690565b604051961515875216949081906020820190565b0390a4565b612f2e826134b2565b612e98565b60405162461bcd60e51b815260206004820152601c60248201527f496e76616c6964206f722070726f6365737365642072657175657374000000006044820152606490fd5b6105e8308261389b565b6001600160a01b0360015460081c163303612f9957565b60405163118cdaa760e01b8152336004820152602490fd5b60025f5414612fc05760025f55565b604051633ee5aeb560e01b8152600490fd5b60ff60015416612fde57565b60405163d93c066560e01b8152600490fd5b906105e8918015613011575b8161391557905061300b6137d9565b90613915565b5061301a6137d9565b612ffc565b61307d9160209161305d610abf610abf7fed8d60e34876f751cc8b014c560745351147d9de11b9347c854e881b128ea601546001600160a01b031690565b905f60405180968195829463196d0b9b60e01b845233906004850161397d565b03925af190811561314b575f9161311c575b506130c7610abf610abf7fed8d60e34876f751cc8b014c560745351147d9de11b9347c854e881b128ea600546001600160a01b031690565b803b1561029257604051630f8e573b60e21b815260048101839052336024820152905f908290604490829084905af1801561311757613104575090565b806131116105e8926110f3565b80610722565b61314b565b61313e915060203d602011613144575b6131368183611107565b810190613745565b5f61308f565b503d61312c565b6040513d5f823e3d90fd5b929161316f9184526060602085015260608401906105a4565b9160406362f4358960e11b910152565b9190917f5ea69329017273582817d320489fbd94f775580e90c092699ca6f3d12fdf7d01928354936131de610abf610abf7fed8d60e34876f751cc8b014c560745351147d9de11b9347c854e881b128ea600546001600160a01b031690565b803b15610292575f6040518092637d6e912360e11b82528183816132058a600483016105d7565b03925af18015613117576132d5575b5061324c610abf610abf7f5ea69329017273582817d320489fbd94f775580e90c092699ca6f3d12fdf7d00546001600160a01b031690565b91823b15610292575f9060405193848092633263b83b60e01b825281613276898c60048401613156565b03925af18015613117576111699361329e93613298926132c2575b50866139af565b54612cb0565b7f5ea69329017273582817d320489fbd94f775580e90c092699ca6f3d12fdf7d0155565b806131116132cf926110f3565b5f613291565b806131116132e2926110f3565b5f613214565b5f905b600891825492838210156133ca57805f5282827ff3f7a9fe364faab93b216da50a3214154f22a0a2b415b23a84c8169e8b636ee3015414613331575060010191506132eb565b91505f1992838101908111612300576133599161335061337592610501565b93905491610501565b91909360031b1c9083549060031b91821b915f19901b19161790565b905580549182156133b65782019180831015610536577ff3f7a9fe364faab93b216da50a3214154f22a0a2b415b23a84c8169e8b636ee25f91838352015555565b634e487b7160e01b5f52603160045260245ffd5b50505050565b90815f527f5ea69329017273582817d320489fbd94f775580e90c092699ca6f3d12fdf7d026020908060205260405f2054156134a057835f5260205260405f206040519182602083549182815201925f5260205f20915f905b828210613489575050505091816134486116f89361344d950382611107565b613b47565b613477577f1af0453083661051f6e56e5c070792320652e612154bf9af8637bb1e7655b99d5f80a2565b60405163cf6c44e960e01b8152600490fd5b835485529384019360019384019390910190613429565b60405163d66ca67560e01b8152600490fd5b5f8080809360406001600160a01b03825116910151905af16134d2612b91565b50156134da57565b60405162461bcd60e51b815260206004820152600d60248201527f526566756e64206661696c6564000000000000000000000000000000000000006044820152606490fd5b61360f907fa3fa8083ca7f4de3da58ef422576cd8b0731a317f2ef2ad680c85e090574e48c6001600160a01b03613728613721602085016136dd600761356e83515f52600260205260405f2090565b01546135806060890191825190613c5a565b600761359585515f52600260205260405f2090565b01556135af60086109bf85515f52600260205260405f2090565b60086135c485515f52600260205260405f2090565b015560096135db84515f52600260205260405f2090565b016135e681546122f2565b90556136566135fc89516001600160a01b031690565b6136438551845160a08d019d8e51151590565b9161362a61361b611b2c565b6001600160a01b039096168652565b6020850152604084015242606084015215156080830152565b610a2785515f52600360205260405f2090565b61368c61368461366d8a516001600160a01b031690565b6001600160a01b03165f52600460205260405f2090565b845190612731565b6136cb610a7f6136bd6136a68b516001600160a01b031690565b6001600160a01b03165f52600560205260405f2090565b85515f5260205260405f2090565b5187516001600160a01b03169061389b565b6137125f808080613702610abf610abf6001610ab18a515f52600260205260405f2090565b60408c0151905af1610ad5612b91565b5194516001600160a01b031690565b9451151590565b6040805142815291151560208301529490911693819081016129b4565b90816020910312610292575190565b6054111561122757565b5f60206001600160a01b037fed8d60e34876f751cc8b014c560745351147d9de11b9347c854e881b128ea6015416604460405180948193639cd07acb60e01b835260016004840152600460248401525af1908115613117575f916137c0575090565b6105e8915060203d602011613144576131368183611107565b5f60206001600160a01b037fed8d60e34876f751cc8b014c560745351147d9de11b9347c854e881b128ea6015416604460405180948193639cd07acb60e01b8352816004840152600460248401525af1908115613117575f916137c0575090565b5f60206001600160a01b037fed8d60e34876f751cc8b014c560745351147d9de11b9347c854e881b128ea6015416604460405180948193639cd07acb60e01b8352816004840152600560248401525af1908115613117575f916137c0575090565b6001600160a01b037fed8d60e34876f751cc8b014c560745351147d9de11b9347c854e881b128ea600541691823b1561029257604051635ca4b5b160e11b815260048101929092526001600160a01b03166024820152905f908290604490829084905af180156131175761390c5750565b611169906110f3565b9060209060646001600160a01b037fed8d60e34876f751cc8b014c560745351147d9de11b9347c854e881b128ea6015416935f604051958694859363022f65e760e31b8552600485015260248401528160448401525af1908115613117575f916137c0575090565b93926139aa906001600160a01b0360059460609488521660208701526080604087015260808601906111cb565b930152565b805f527f5ea69329017273582817d320489fbd94f775580e90c092699ca6f3d12fdf7d026020918160205260405f2054613a72575f5260205260405f209082519267ffffffffffffffff84116110ee57600160401b84116110ee578254848455808510613a4c575b506020613a299101925f5260205f2090565b905f5b848110613a3a575050505050565b83518382015592810192600101613a2c565b835f528460205f2091820191015b818110613a675750613a17565b5f8155600101613a5a565b604051633f06d22b60e01b8152600490fd5b90613a8e82611b92565b613a9b6040519182611107565b8281528092612590601f1991611b92565b9081602091031261029257516105e8816108bb565b9190613ad8613ae7916060855260608501906105a4565b602092848203848601526111cb565b9160408184039101528251908183528083019281808460051b8301019501935f915b848310613b195750505050505090565b9091929394958480613b37600193601f198682030187528a516111cb565b9801930193019194939290613b09565b80515f905f905b808210613c0b57505091602091613b67613bcd94612305565b613b7081613a84565b906024858301375f613baf610abf610abf7fed8d60e34876f751cc8b014c560745351147d9de11b9347c854e881b128ea602546001600160a01b031690565b9260405196879586948593632c027b1360e21b855260048501613ac1565b03925af1908115613117575f91613be2575090565b6105e8915060203d602011613c04575b613bfc8183611107565b810190613aac565b503d613bf2565b90916009613c198486612619565b51601e1a613c2681613754565b613c2f81613754565b1015613c4857613c40600191612305565b920190613b4e565b60405163ce54a8d160e01b8152600490fd5b906105e8918015613c75575b8161391557905061300b61383a565b50613c7e61383a565b613c6656fea164736f6c6343000818000a",
  "linkReferences": {},
  "deployedLinkReferences": {}
}