{
  "_format": "hh-sol-artifact-1",
  "contractName": "PrivateDonation",
  "sourceName": "contracts/PrivateDonation.sol",
  "abi": [
    {
      "inputs": [],
      "stateMutability": "nonpayable",
      "type": "constructor"
    },
    {
      "inputs": [],
      "name": "EnforcedPause",
      "type": "error"
    },
    {
      "inputs": [],
      "name": "ExpectedPause",
      "type": "error"
    },
    {
      "inputs": [],
      "name": "HandlesAlreadySavedForRequestID",
      "type": "error"
    },
    {
      "inputs": [],
      "name": "InvalidKMSSignatures",
      "type": "error"
    },
    {
      "inputs": [],
      "name": "NoHandleFoundForRequestID",
      "type": "error"
    },
    {
      "inputs": [
        {
          "internalType": "address",
          "name": "owner",
          "type": "address"
        }
      ],
      "name": "OwnableInvalidOwner",
      "type": "error"
    },
    {
      "inputs": [
        {
          "internalType": "address",
          "name": "account",
          "type": "address"
        }
      ],
      "name": "OwnableUnauthorizedAccount",
      "type": "error"
    },
    {
      "inputs": [],
      "name": "ReentrancyGuardReentrantCall",
      "type": "error"
    },
    {
      "inputs": [],
      "name": "UnsupportedHandleType",
      "type": "error"
    },
    {
      "anonymous": false,
      "inputs": [
        {
          "indexed": true,
          "internalType": "bytes32",
          "name": "creatorId",
          "type": "bytes32"
        },
        {
          "indexed": true,
          "internalType": "address",
          "name": "wallet",
          "type": "address"
        },
        {
          "indexed": false,
          "internalType": "string",
          "name": "name",
          "type": "string"
        }
      ],
      "name": "CreatorRegistered",
      "type": "event"
    },
    {
      "anonymous": false,
      "inputs": [
        {
          "indexed": true,
          "internalType": "bytes32",
          "name": "creatorId",
          "type": "bytes32"
        },
        {
          "indexed": false,
          "internalType": "string",
          "name": "name",
          "type": "string"
        },
        {
          "indexed": false,
          "internalType": "string",
          "name": "description",
          "type": "string"
        }
      ],
      "name": "CreatorUpdated",
      "type": "event"
    },
    {
      "anonymous": false,
      "inputs": [
        {
          "indexed": true,
          "internalType": "uint256",
          "name": "requestID",
          "type": "uint256"
        }
      ],
      "name": "DecryptionFulfilled",
      "type": "event"
    },
    {
      "anonymous": false,
      "inputs": [
        {
          "indexed": true,
          "internalType": "bytes32",
          "name": "creatorId",
          "type": "bytes32"
        },
        {
          "indexed": true,
          "internalType": "address",
          "name": "donor",
          "type": "address"
        },
        {
          "indexed": false,
          "internalType": "uint256",
          "name": "timestamp",
          "type": "uint256"
        }
      ],
      "name": "DonationMade",
      "type": "event"
    },
    {
      "anonymous": false,
      "inputs": [
        {
          "indexed": true,
          "internalType": "uint256",
          "name": "requestId",
          "type": "uint256"
        },
        {
          "indexed": true,
          "internalType": "bytes32",
          "name": "creatorId",
          "type": "bytes32"
        },
        {
          "indexed": true,
          "internalType": "address",
          "name": "donor",
          "type": "address"
        }
      ],
      "name": "DonationVerificationRequested",
      "type": "event"
    },
    {
      "anonymous": false,
      "inputs": [
        {
          "indexed": true,
          "internalType": "uint256",
          "name": "requestId",
          "type": "uint256"
        },
        {
          "indexed": true,
          "internalType": "bytes32",
          "name": "creatorId",
          "type": "bytes32"
        },
        {
          "indexed": true,
          "internalType": "address",
          "name": "donor",
          "type": "address"
        },
        {
          "indexed": false,
          "internalType": "bool",
          "name": "success",
          "type": "bool"
        }
      ],
      "name": "DonationVerified",
      "type": "event"
    },
    {
      "anonymous": false,
      "inputs": [
        {
          "indexed": true,
          "internalType": "address",
          "name": "previousOwner",
          "type": "address"
        },
        {
          "indexed": true,
          "internalType": "address",
          "name": "newOwner",
          "type": "address"
        }
      ],
      "name": "OwnershipTransferred",
      "type": "event"
    },
    {
      "anonymous": false,
      "inputs": [
        {
          "indexed": false,
          "internalType": "address",
          "name": "account",
          "type": "address"
        }
      ],
      "name": "Paused",
      "type": "event"
    },
    {
      "anonymous": false,
      "inputs": [
        {
          "indexed": false,
          "internalType": "address",
          "name": "account",
          "type": "address"
        }
      ],
      "name": "Unpaused",
      "type": "event"
    },
    {
      "inputs": [
        {
          "internalType": "uint256",
          "name": "",
          "type": "uint256"
        }
      ],
      "name": "allCreators",
      "outputs": [
        {
          "internalType": "bytes32",
          "name": "",
          "type": "bytes32"
        }
      ],
      "stateMutability": "view",
      "type": "function"
    },
    {
      "inputs": [
        {
          "internalType": "bytes32",
          "name": "",
          "type": "bytes32"
        },
        {
          "internalType": "uint256",
          "name": "",
          "type": "uint256"
        }
      ],
      "name": "creatorDonations",
      "outputs": [
        {
          "internalType": "address",
          "name": "donor",
          "type": "address"
        },
        {
          "internalType": "bytes32",
          "name": "creatorId",
          "type": "bytes32"
        },
        {
          "internalType": "euint64",
          "name": "amount",
          "type": "bytes32"
        },
        {
          "internalType": "uint256",
          "name": "timestamp",
          "type": "uint256"
        }
      ],
      "stateMutability": "view",
      "type": "function"
    },
    {
      "inputs": [
        {
          "internalType": "bytes32",
          "name": "",
          "type": "bytes32"
        }
      ],
      "name": "creators",
      "outputs": [
        {
          "internalType": "address",
          "name": "wallet",
          "type": "address"
        },
        {
          "internalType": "string",
          "name": "name",
          "type": "string"
        },
        {
          "internalType": "string",
          "name": "description",
          "type": "string"
        },
        {
          "internalType": "euint64",
          "name": "totalDonations",
          "type": "bytes32"
        },
        {
          "internalType": "euint32",
          "name": "donationCount",
          "type": "bytes32"
        },
        {
          "internalType": "bool",
          "name": "isRegistered",
          "type": "bool"
        }
      ],
      "stateMutability": "view",
      "type": "function"
    },
    {
      "inputs": [
        {
          "internalType": "bytes32",
          "name": "creatorId",
          "type": "bytes32"
        },
        {
          "internalType": "externalEuint64",
          "name": "encryptedAmount",
          "type": "bytes32"
        },
        {
          "internalType": "bytes",
          "name": "inputProof",
          "type": "bytes"
        }
      ],
      "name": "donate",
      "outputs": [],
      "stateMutability": "payable",
      "type": "function"
    },
    {
      "inputs": [
        {
          "internalType": "address",
          "name": "",
          "type": "address"
        },
        {
          "internalType": "uint256",
          "name": "",
          "type": "uint256"
        }
      ],
      "name": "donorDonations",
      "outputs": [
        {
          "internalType": "bytes32",
          "name": "",
          "type": "bytes32"
        }
      ],
      "stateMutability": "view",
      "type": "function"
    },
    {
      "inputs": [
        {
          "internalType": "address",
          "name": "to",
          "type": "address"
        },
        {
          "internalType": "uint256",
          "name": "amount",
          "type": "uint256"
        }
      ],
      "name": "emergencyWithdraw",
      "outputs": [],
      "stateMutability": "nonpayable",
      "type": "function"
    },
    {
      "inputs": [],
      "name": "getAllCreators",
      "outputs": [
        {
          "internalType": "bytes32[]",
          "name": "",
          "type": "bytes32[]"
        }
      ],
      "stateMutability": "view",
      "type": "function"
    },
    {
      "inputs": [
        {
          "internalType": "bytes32",
          "name": "creatorId",
          "type": "bytes32"
        }
      ],
      "name": "getCreatorDonationCount",
      "outputs": [
        {
          "internalType": "euint32",
          "name": "",
          "type": "bytes32"
        }
      ],
      "stateMutability": "view",
      "type": "function"
    },
    {
      "inputs": [
        {
          "internalType": "bytes32",
          "name": "creatorId",
          "type": "bytes32"
        }
      ],
      "name": "getCreatorInfo",
      "outputs": [
        {
          "internalType": "address",
          "name": "wallet",
          "type": "address"
        },
        {
          "internalType": "string",
          "name": "name",
          "type": "string"
        },
        {
          "internalType": "string",
          "name": "description",
          "type": "string"
        },
        {
          "internalType": "bool",
          "name": "isRegistered",
          "type": "bool"
        }
      ],
      "stateMutability": "view",
      "type": "function"
    },
    {
      "inputs": [
        {
          "internalType": "bytes32",
          "name": "creatorId",
          "type": "bytes32"
        }
      ],
      "name": "getCreatorTotalDonations",
      "outputs": [
        {
          "internalType": "euint64",
          "name": "",
          "type": "bytes32"
        }
      ],
      "stateMutability": "view",
      "type": "function"
    },
    {
      "inputs": [
        {
          "internalType": "address",
          "name": "donor",
          "type": "address"
        }
      ],
      "name": "getDonorHistory",
      "outputs": [
        {
          "internalType": "bytes32[]",
          "name": "",
          "type": "bytes32[]"
        }
      ],
      "stateMutability": "view",
      "type": "function"
    },
    {
      "inputs": [
        {
          "internalType": "bytes32",
          "name": "creatorId",
          "type": "bytes32"
        }
      ],
      "name": "getPublicDonationCount",
      "outputs": [
        {
          "internalType": "uint256",
          "name": "",
          "type": "uint256"
        }
      ],
      "stateMutability": "view",
      "type": "function"
    },
    {
      "inputs": [],
      "name": "getTotalCreatorsCount",
      "outputs": [
        {
          "internalType": "uint256",
          "name": "",
          "type": "uint256"
        }
      ],
      "stateMutability": "view",
      "type": "function"
    },
    {
      "inputs": [
        {
          "internalType": "address",
          "name": "donor",
          "type": "address"
        },
        {
          "internalType": "bytes32",
          "name": "creatorId",
          "type": "bytes32"
        }
      ],
      "name": "hasDonated",
      "outputs": [
        {
          "internalType": "bool",
          "name": "",
          "type": "bool"
        }
      ],
      "stateMutability": "view",
      "type": "function"
    },
    {
      "inputs": [
        {
          "internalType": "address",
          "name": "",
          "type": "address"
        },
        {
          "internalType": "bytes32",
          "name": "",
          "type": "bytes32"
        }
      ],
      "name": "hasDonatedTo",
      "outputs": [
        {
          "internalType": "bool",
          "name": "",
          "type": "bool"
        }
      ],
      "stateMutability": "view",
      "type": "function"
    },
    {
      "inputs": [],
      "name": "nextRequestId",
      "outputs": [
        {
          "internalType": "uint256",
          "name": "",
          "type": "uint256"
        }
      ],
      "stateMutability": "view",
      "type": "function"
    },
    {
      "inputs": [],
      "name": "owner",
      "outputs": [
        {
          "internalType": "address",
          "name": "",
          "type": "address"
        }
      ],
      "stateMutability": "view",
      "type": "function"
    },
    {
      "inputs": [],
      "name": "pause",
      "outputs": [],
      "stateMutability": "nonpayable",
      "type": "function"
    },
    {
      "inputs": [],
      "name": "paused",
      "outputs": [
        {
          "internalType": "bool",
          "name": "",
          "type": "bool"
        }
      ],
      "stateMutability": "view",
      "type": "function"
    },
    {
      "inputs": [
        {
          "internalType": "uint256",
          "name": "",
          "type": "uint256"
        }
      ],
      "name": "pendingDonations",
      "outputs": [
        {
          "internalType": "address",
          "name": "donor",
          "type": "address"
        },
        {
          "internalType": "bytes32",
          "name": "creatorId",
          "type": "bytes32"
        },
        {
          "internalType": "uint256",
          "name": "ethAmount",
          "type": "uint256"
        },
        {
          "internalType": "euint64",
          "name": "encryptedAmount",
          "type": "bytes32"
        },
        {
          "internalType": "bool",
          "name": "isActive",
          "type": "bool"
        }
      ],
      "stateMutability": "view",
      "type": "function"
    },
    {
      "inputs": [
        {
          "internalType": "bytes32",
          "name": "creatorId",
          "type": "bytes32"
        },
        {
          "internalType": "string",
          "name": "name",
          "type": "string"
        },
        {
          "internalType": "string",
          "name": "description",
          "type": "string"
        }
      ],
      "name": "registerCreator",
      "outputs": [],
      "stateMutability": "nonpayable",
      "type": "function"
    },
    {
      "inputs": [],
      "name": "renounceOwnership",
      "outputs": [],
      "stateMutability": "nonpayable",
      "type": "function"
    },
    {
      "inputs": [
        {
          "internalType": "address",
          "name": "newOwner",
          "type": "address"
        }
      ],
      "name": "transferOwnership",
      "outputs": [],
      "stateMutability": "nonpayable",
      "type": "function"
    },
    {
      "inputs": [],
      "name": "unpause",
      "outputs": [],
      "stateMutability": "nonpayable",
      "type": "function"
    },
    {
      "inputs": [
        {
          "internalType": "bytes32",
          "name": "creatorId",
          "type": "bytes32"
        },
        {
          "internalType": "string",
          "name": "name",
          "type": "string"
        },
        {
          "internalType": "string",
          "name": "description",
          "type": "string"
        }
      ],
      "name": "updateCreator",
      "outputs": [],
      "stateMutability": "nonpayable",
      "type": "function"
    },
    {
      "inputs": [
        {
          "internalType": "bytes32",
          "name": "creatorId",
          "type": "bytes32"
        },
        {
          "internalType": "address",
          "name": "newWallet",
          "type": "address"
        }
      ],
      "name": "updateCreatorWallet",
      "outputs": [],
      "stateMutability": "nonpayable",
      "type": "function"
    },
    {
      "inputs": [
        {
          "internalType": "uint256",
          "name": "requestId",
          "type": "uint256"
        },
        {
          "internalType": "uint64",
          "name": "decryptedAmount",
          "type": "uint64"
        },
        {
          "internalType": "bytes[]",
          "name": "signatures",
          "type": "bytes[]"
        }
      ],
      "name": "verifyDonationCallback",
      "outputs": [],
      "stateMutability": "nonpayable",
      "type": "function"
    }
  ],
  "bytecode": "0x608060405234801562000010575f80fd5b50336200018e620000b2604080516080810182525f808252602082018190529181018290526060810191909152506040805160808101825273687820221192c5b662b25367f70076a37bc79b6c815273848b0066793bcc60346da1f49049357399b8d5956020820152731364cbbf2cdf5032c47d8226a6f6fbd2afcdacac9181019190915273bc91f3dad1a5f19f8390c400196e58073b6a0bc4606082015290565b80517fed8d60e34876f751cc8b014c560745351147d9de11b9347c854e881b128ea60080546001600160a01b03199081166001600160a01b039384161790915560208301517fed8d60e34876f751cc8b014c560745351147d9de11b9347c854e881b128ea6018054831691841691909117905560408301517fed8d60e34876f751cc8b014c560745351147d9de11b9347c854e881b128ea6028054831691841691909117905560608301517fed8d60e34876f751cc8b014c560745351147d9de11b9347c854e881b128ea6038054909216921691909117905550565b7f5ea69329017273582817d320489fbd94f775580e90c092699ca6f3d12fdf7d0080546001600160a01b03191673a02cda4ca3a71d7c46997716f4283aa851c2881217905560015f556001600160a01b0381166200020557604051631e4fbdf760e01b81525f600482015260240160405180910390fd5b620002108162000217565b5062000270565b600180546001600160a01b03838116610100818102610100600160a81b031985161790945560405193909204169182907f8be0079c531659141344cd1fd0a4f28419497f9722a3daafe3b4186f6b6457e0905f90a35050565b612dbb806200027e5f395ff3fe6080604052600436106101a4575f3560e01c80636fe06f1c116100e7578063c5e86b1211610087578063dc357e2e11610062578063dc357e2e1461051d578063e4ce8d5b14610556578063f2fde38b14610575578063f97fac4d14610594575f80fd5b8063c5e86b12146104c0578063ccd0fe4d146104df578063d1669e3a146104fe575f80fd5b8063888e5d9e116100c2578063888e5d9e1461041c5780638da5cb5b1461043b57806395ccea67146104705780639ec21dc21461048f575f80fd5b80636fe06f1c146103d5578063715018a6146103f45780638456cb5914610408575f80fd5b80633f4ba83a11610152578063531464cb1161012d578063531464cb146103255780635c975abb1461035457806363a530cd146103775780636a84a985146103c0575f80fd5b80633f4ba83a146102d35780634395e1bf146102e757806349b8af2614610306575f80fd5b806336b90eda1161018257806336b90eda146102765780633902bf72146102945780633e4cbf42146102a7575f80fd5b80630de7bfd4146101a85780631e6996a3146102365780632026b97414610257575b5f80fd5b3480156101b3575f80fd5b506101fd6101c2366004612538565b60076020525f9081526040902080546001820154600283015460038401546004909401546001600160a01b0390931693919290919060ff1685565b604080516001600160a01b03909616865260208601949094529284019190915260608301521515608082015260a0015b60405180910390f35b348015610241575f80fd5b50610255610250366004612594565b6105a8565b005b348015610262575f80fd5b50610255610271366004612594565b61083a565b348015610281575f80fd5b506006545b60405190815260200161022d565b6102556102a2366004612608565b6109c9565b3480156102b2575f80fd5b506102c66102c1366004612672565b610c3f565b60405161022d91906126c5565b3480156102de575f80fd5b50610255610d2c565b3480156102f2575f80fd5b506102866103013660046126d7565b610d3e565b348015610311575f80fd5b50610286610320366004612538565b610d69565b348015610330575f80fd5b5061034461033f366004612538565b610ddb565b60405161022d9493929190612742565b34801561035f575f80fd5b5060015460ff165b604051901515815260200161022d565b348015610382575f80fd5b50610396610391366004612789565b610f84565b604080516001600160a01b039095168552602085019390935291830152606082015260800161022d565b3480156103cb575f80fd5b5061028660085481565b3480156103e0575f80fd5b506102866103ef366004612538565b610fd0565b3480156103ff575f80fd5b50610255611041565b348015610413575f80fd5b50610255611052565b348015610427575f80fd5b50610286610436366004612538565b611062565b348015610446575f80fd5b5060015461010090046001600160a01b03166040516001600160a01b03909116815260200161022d565b34801561047b575f80fd5b5061025561048a3660046126d7565b611081565b34801561049a575f80fd5b506104ae6104a9366004612538565b611183565b60405161022d969594939291906127a9565b3480156104cb575f80fd5b506102556104da366004612842565b6112d2565b3480156104ea575f80fd5b506102556104f936600461296d565b61144c565b348015610509575f80fd5b50610286610518366004612538565b6115b4565b348015610528575f80fd5b506103676105373660046126d7565b600560209081525f928352604080842090915290825290205460ff1681565b348015610561575f80fd5b506103676105703660046126d7565b611625565b348015610580575f80fd5b5061025561058f366004612672565b611652565b34801561059f575f80fd5b506102c661168f565b5f8581526002602052604090206005015460ff161561060e5760405162461bcd60e51b815260206004820152601a60248201527f43726561746f7220616c7265616479207265676973746572656400000000000060448201526064015b60405180910390fd5b8261065b5760405162461bcd60e51b815260206004820152601460248201527f4e616d652063616e6e6f7420626520656d7074790000000000000000000000006044820152606401610605565b5f6106655f6116e5565b90505f6106715f6116fb565b905061067d823361170d565b50610688813361170d565b506106928261171f565b5061069c8161171f565b506040518060c00160405280336001600160a01b0316815260200187878080601f0160208091040260200160405190810160405280939291908181526020018383808284375f92019190915250505090825250604080516020601f8801819004810282018101909252868152918101919087908790819084018382808284375f92018290525093855250505060208083018690526040808401869052600160609094018490528b835260028252909120835181546001600160a01b0319166001600160a01b0390911617815590830151909182019061077b9082612a0d565b50604082015160028201906107909082612a0d565b50606082015160038201556080820151600482015560a0909101516005909101805460ff1916911515919091179055600680546001810182555f919091527ff652222313e28459528d920b65115c16c04f3efc82aaedc97be59f3f377c0d3f01879055604051339088907f060efb1f7467891e9671864d215c4fa9f5286ff6daff3b11776b2e38c160e1f090610829908a908a90612af5565b60405180910390a350505050505050565b5f85815260026020526040902060050154859060ff166108955760405162461bcd60e51b815260206004820152601660248201527510dc99585d1bdc881b9bdd081c9959da5cdd195c995960521b6044820152606401610605565b5f8681526002602052604090205486906001600160a01b031633146108fc5760405162461bcd60e51b815260206004820152601160248201527f4e6f742063726561746f72206f776e65720000000000000000000000000000006044820152606401610605565b846109495760405162461bcd60e51b815260206004820152601460248201527f4e616d652063616e6e6f7420626520656d7074790000000000000000000000006044820152606401610605565b5f878152600260205260409020600101610964868883612b08565b505f87815260026020819052604090912001610981848683612b08565b50867f0400ab4e138e54adc0a1b7be3b2a10ef81d0fc33a1d7487353f0c715a8e76221878787876040516109b89493929190612bc2565b60405180910390a250505050505050565b5f84815260026020526040902060050154849060ff16610a245760405162461bcd60e51b815260206004820152601660248201527510dc99585d1bdc881b9bdd081c9959da5cdd195c995960521b6044820152606401610605565b610a2c61172e565b610a34611756565b5f3411610a835760405162461bcd60e51b815260206004820152601b60248201527f4d7573742073656e6420455448207769746820646f6e6174696f6e00000000006044820152606401610605565b678ac7230489e80000341115610adb5760405162461bcd60e51b815260206004820152601260248201527f446f6e6174696f6e20746f6f206c6172676500000000000000000000000000006044820152606401610605565b5f610b1b8585858080601f0160208091040260200160405190810160405280939291908181526020018383808284375f9201919091525061177a92505050565b600880549192505f919082610b2f83612bfc565b909155506040805160a08101825233815260208082018b815234838501908152606084018881526001608086018181525f89815260078752888120975188546001600160a01b0319166001600160a01b03909116178855945187830155925160028701559051600386015590516004909401805460ff1916941515949094179093558351838152808501909452939450828101908036833701905050905082815f81518110610be057610be0612c14565b6020908102919091010152610bfd816362f4358960e11b8461178e565b506040513390899084907f12bb3b7afedba3afe258ec48ccdddc1d63afee0a6cc500854a7d8610c4d657f8905f90a4505050610c3860015f55565b5050505050565b6060336001600160a01b0383161480610c79575060015461010090046001600160a01b03166001600160a01b0316336001600160a01b0316145b610cc55760405162461bcd60e51b815260206004820152601360248201527f556e617574686f72697a656420616363657373000000000000000000000000006044820152606401610605565b6001600160a01b0382165f9081526004602090815260409182902080548351818402810184019094528084529091830182828015610d2057602002820191905f5260205f20905b815481526020019060010190808311610d0c575b50505050509050919050565b610d346118da565b610d3c61190d565b565b6004602052815f5260405f208181548110610d57575f80fd5b905f5260205f20015f91509150505481565b5f81815260026020526040812060050154829060ff16610dc45760405162461bcd60e51b815260206004820152601660248201527510dc99585d1bdc881b9bdd081c9959da5cdd195c995960521b6044820152606401610605565b5f8381526003602052604090205491505b50919050565b5f818152600260209081526040808320815160c0810190925280546001600160a01b031682526001810180546060948594879485949193909284019190610e2190612997565b80601f0160208091040260200160405190810160405280929190818152602001828054610e4d90612997565b8015610e985780601f10610e6f57610100808354040283529160200191610e98565b820191905f5260205f20905b815481529060010190602001808311610e7b57829003601f168201915b50505050508152602001600282018054610eb190612997565b80601f0160208091040260200160405190810160405280929190818152602001828054610edd90612997565b8015610f285780601f10610eff57610100808354040283529160200191610f28565b820191905f5260205f20905b815481529060010190602001808311610f0b57829003601f168201915b505050505081526020016003820154815260200160048201548152602001600582015f9054906101000a900460ff1615151515815250509050805f0151816020015182604001518360a001519450945094509450509193509193565b6003602052815f5260405f208181548110610f9d575f80fd5b5f91825260209091206004909102018054600182015460028301546003909301546001600160a01b039092169450925084565b5f81815260026020526040812060050154829060ff1661102b5760405162461bcd60e51b815260206004820152601660248201527510dc99585d1bdc881b9bdd081c9959da5cdd195c995960521b6044820152606401610605565b50505f9081526002602052604090206004015490565b6110496118da565b610d3c5f61195f565b61105a6118da565b610d3c6119cf565b60068181548110611071575f80fd5b5f91825260209091200154905081565b6110896118da565b6001600160a01b0382166110df5760405162461bcd60e51b815260206004820152600f60248201527f496e76616c6964206164647265737300000000000000000000000000000000006044820152606401610605565b5f826001600160a01b0316826040515f6040518083038185875af1925050503d805f8114611128576040519150601f19603f3d011682016040523d82523d5f602084013e61112d565b606091505b505090508061117e5760405162461bcd60e51b815260206004820152601160248201527f5769746864726177616c206661696c65640000000000000000000000000000006044820152606401610605565b505050565b60026020525f9081526040902080546001820180546001600160a01b0390921692916111ae90612997565b80601f01602080910402602001604051908101604052809291908181526020018280546111da90612997565b80156112255780601f106111fc57610100808354040283529160200191611225565b820191905f5260205f20905b81548152906001019060200180831161120857829003601f168201915b50505050509080600201805461123a90612997565b80601f016020809104026020016040519081016040528092919081815260200182805461126690612997565b80156112b15780601f10611288576101008083540402835291602001916112b1565b820191905f5260205f20905b81548152906001019060200180831161129457829003601f168201915b50505050600383015460048401546005909401549293909290915060ff1686565b5f8381526007602052604090206004015460ff166113325760405162461bcd60e51b815260206004820152601c60248201527f496e76616c6964206f722070726f6365737365642072657175657374000000006044820152606401610605565b61133c8382611a0a565b5f83815260076020908152604091829020825160a08101845281546001600160a01b031681526001820154928101929092526002810154928201839052600381015460608301526004015460ff16151560808201529067ffffffffffffffff84161480156113b3576113ae8583611a71565b6113bd565b6113bd8583611d5e565b5f85815260076020908152604080832080546001600160a01b0319168155600181018490556002810184905560038101939093556004909201805460ff19169055835184820151925184151581526001600160a01b03909116929188917f5a18205e564acb85534f67e9a0d3b29faee462644c685fceabdc14a92d758efb910160405180910390a45050505050565b5f82815260026020526040902060050154829060ff166114a75760405162461bcd60e51b815260206004820152601660248201527510dc99585d1bdc881b9bdd081c9959da5cdd195c995960521b6044820152606401610605565b5f8381526002602052604090205483906001600160a01b0316331461150e5760405162461bcd60e51b815260206004820152601160248201527f4e6f742063726561746f72206f776e65720000000000000000000000000000006044820152606401610605565b6001600160a01b0383166115645760405162461bcd60e51b815260206004820152601660248201527f496e76616c69642077616c6c65742061646472657373000000000000000000006044820152606401610605565b5f84815260026020526040902080546001600160a01b0319166001600160a01b03851617815560030154611598908461170d565b505f84815260026020526040902060040154610c38908461170d565b5f81815260026020526040812060050154829060ff1661160f5760405162461bcd60e51b815260206004820152601660248201527510dc99585d1bdc881b9bdd081c9959da5cdd195c995960521b6044820152606401610605565b50505f9081526002602052604090206003015490565b6001600160a01b0382165f90815260056020908152604080832084845290915290205460ff165b92915050565b61165a6118da565b6001600160a01b03811661168357604051631e4fbdf760e01b81525f6004820152602401610605565b61168c8161195f565b50565b606060068054806020026020016040519081016040528092919081815260200182805480156116db57602002820191905f5260205f20905b8154815260200190600101908083116116c7575b5050505050905090565b5f61164c8267ffffffffffffffff166005611e01565b5f61164c8263ffffffff166004611e01565b5f6117188383611ebe565b5090919050565b5f61172a8230611ebe565b5090565b60025f540361175057604051633ee5aeb560e01b815260040160405180910390fd5b60025f55565b60015460ff1615610d3c5760405163d93c066560e01b815260040160405180910390fd5b5f61178783836005611f47565b9392505050565b7f5ea69329017273582817d320489fbd94f775580e90c092699ca6f3d12fdf7d01547fed8d60e34876f751cc8b014c560745351147d9de11b9347c854e881b128ea6008054604051637d6e912360e11b81527f5ea69329017273582817d320489fbd94f775580e90c092699ca6f3d12fdf7d0092916001600160a01b03169063fadd2246906118219089906004016126c5565b5f604051808303815f87803b158015611838575f80fd5b505af115801561184a573d5f803e3d5ffd5b50508354604051633263b83b60e01b81526001600160a01b039091169250633263b83b915086906118839087908b908b90600401612c28565b5f604051808303818588803b15801561189a575f80fd5b505af11580156118ac573d5f803e3d5ffd5b50505050506118bb8387612067565b600182018054905f6118cc83612bfc565b919050555050509392505050565b6001546001600160a01b03610100909104163314610d3c5760405163118cdaa760e01b8152336004820152602401610605565b6119156120fa565b6001805460ff191690557f5db9ee0a495bf2e6ff9c91a7834c1ba4fdd244a5e8aa4e537bd38aeae4b073aa335b6040516001600160a01b03909116815260200160405180910390a1565b600180546001600160a01b038381166101008181027fffffffffffffffffffffff0000000000000000000000000000000000000000ff85161790945560405193909204169182907f8be0079c531659141344cd1fd0a4f28419497f9722a3daafe3b4186f6b6457e0905f90a35050565b6119d7611756565b6001805460ff1916811790557f62e78cea01bee320cd4e420270b5ea74000d11b0c9f74754ebdbfc544b05a25833611942565b5f611a148361211d565b90505f611a2182846121ee565b905080611a415760405163cf6c44e960e01b815260040160405180910390fd5b60405184907f1af0453083661051f6e56e5c070792320652e612154bf9af8637bb1e7655b99d905f90a250505050565b611a9760025f836020015181526020019081526020015f20600301548260600151612309565b602080830180515f90815260029092526040808320600301939093555181522060040154611ace90611ac960016116fb565b612337565b60025f836020015181526020019081526020015f20600401819055505f6040518060800160405280835f01516001600160a01b03168152602001836020015181526020018360600151815260200142815250905060035f836020015181526020019081526020015f2081908060018154018082558091505060019003905f5260205f2090600402015f909190919091505f820151815f015f6101000a8154816001600160a01b0302191690836001600160a01b03160217905550602082015181600101556040820151816002015560608201518160030155505060045f835f01516001600160a01b03166001600160a01b031681526020019081526020015f208260200151908060018154018082558091505060019003905f5260205f20015f9091909190915055600160055f845f01516001600160a01b03166001600160a01b031681526020019081526020015f205f846020015181526020019081526020015f205f6101000a81548160ff021916908315150217905550611c588260600151835f015161170d565b506020828101515f90815260029091526040808220548185015191516001600160a01b0390911691908381818185875af1925050503d805f8114611cb7576040519150601f19603f3d011682016040523d82523d5f602084013e611cbc565b606091505b5050905080611d0d5760405162461bcd60e51b815260206004820152600f60248201527f5472616e73666572206661696c656400000000000000000000000000000000006044820152606401610605565b825f01516001600160a01b031683602001517f30368ef9b7d71f9735e67b5dbd5bf5c1bbaf2f6dfee25a0d0a3605ea0d588ccd42604051611d5091815260200190565b60405180910390a350505050565b805160408083015190515f926001600160a01b031691908381818185875af1925050503d805f8114611dab576040519150601f19603f3d011682016040523d82523d5f602084013e611db0565b606091505b505090508061117e5760405162461bcd60e51b815260206004820152600d60248201527f526566756e64206661696c6564000000000000000000000000000000000000006044820152606401610605565b7fed8d60e34876f751cc8b014c560745351147d9de11b9347c854e881b128ea60154604051639cd07acb60e01b81525f917fed8d60e34876f751cc8b014c560745351147d9de11b9347c854e881b128ea600916001600160a01b0390911690639cd07acb90611e769087908790600401612c8d565b6020604051808303815f875af1158015611e92573d5f803e3d5ffd5b505050506040513d601f19601f82011682018060405250810190611eb69190612ca1565b949350505050565b5f7fed8d60e34876f751cc8b014c560745351147d9de11b9347c854e881b128ea6008054604051635ca4b5b160e11b8152600481018690526001600160a01b03858116602483015292935091169063b9496b62906044015f604051808303815f87803b158015611f2c575f80fd5b505af1158015611f3e573d5f803e3d5ffd5b50505050505050565b7fed8d60e34876f751cc8b014c560745351147d9de11b9347c854e881b128ea6015460405163196d0b9b60e01b81525f917fed8d60e34876f751cc8b014c560745351147d9de11b9347c854e881b128ea600916001600160a01b039091169063196d0b9b90611fc0908890339089908990600401612cb8565b6020604051808303815f875af1158015611fdc573d5f803e3d5ffd5b505050506040513d601f19601f820116820180604052508101906120009190612ca1565b8154604051630f8e573b60e21b8152600481018390523360248201529193506001600160a01b031690633e395cec906044015f604051808303815f87803b158015612049575f80fd5b505af115801561205b573d5f803e3d5ffd5b50505050509392505050565b5f8281527f5ea69329017273582817d320489fbd94f775580e90c092699ca6f3d12fdf7d0260205260409020547f5ea69329017273582817d320489fbd94f775580e90c092699ca6f3d12fdf7d0090156120d457604051633f06d22b60e01b815260040160405180910390fd5b5f838152600282016020908152604090912083516120f4928501906124e4565b50505050565b60015460ff16610d3c57604051638dfc202b60e01b815260040160405180910390fd5b5f8181527f5ea69329017273582817d320489fbd94f775580e90c092699ca6f3d12fdf7d0260205260408120546060917f5ea69329017273582817d320489fbd94f775580e90c092699ca6f3d12fdf7d0091900361218e5760405163d66ca67560e01b815260040160405180910390fd5b5f838152600282016020908152604091829020805483518184028101840190945280845290918301828280156121e157602002820191905f5260205f20905b8154815260200190600101908083116121cd575b5050505050915050919050565b5f6024816121fb85612357565b90505f8167ffffffffffffffff811115612217576122176127fd565b6040519080825280601f01601f191660200182016040528015612241576020820181803683370190505b509050818360208301377fed8d60e34876f751cc8b014c560745351147d9de11b9347c854e881b128ea60254604051632c027b1360e21b81527fed8d60e34876f751cc8b014c560745351147d9de11b9347c854e881b128ea600916001600160a01b03169063b009ec4c906122be908a9086908b90600401612cf7565b6020604051808303815f875af11580156122da573d5f803e3d5ffd5b505050506040513d601f19601f820116820180604052508101906122fe9190612d7c565b979650505050505050565b5f8261231b576123185f6116e5565b92505b8161232c576123295f6116e5565b91505b61178783835f612404565b5f82612349576123465f6116fb565b92505b8161232c576123295f6116fb565b80515f9081805b828110156123f8575f85828151811061237957612379612c14565b6020026020010151601e6020811061239357612393612c14565b1a60538111156123a5576123a5612c59565b905060098160538111156123bb576123bb612c59565b60ff1610156123d6576123cf602084612d9b565b92506123ef565b60405163ce54a8d160e01b815260040160405180910390fd5b5060010161235e565b50611eb6602082612d9b565b5f8082156124175750600160f81b61241a565b505f5b5f7fed8d60e34876f751cc8b014c560745351147d9de11b9347c854e881b128ea600600181015460405163022f65e760e31b815260048101899052602481018890527fff00000000000000000000000000000000000000000000000000000000000000851660448201529192506001600160a01b03169063117b2f38906064016020604051808303815f875af11580156124b6573d5f803e3d5ffd5b505050506040513d601f19601f820116820180604052508101906124da9190612ca1565b9695505050505050565b828054828255905f5260205f2090810192821561251d579160200282015b8281111561251d578251825591602001919060010190612502565b5061172a9291505b8082111561172a575f8155600101612525565b5f60208284031215612548575f80fd5b5035919050565b5f8083601f84011261255f575f80fd5b50813567ffffffffffffffff811115612576575f80fd5b60208301915083602082850101111561258d575f80fd5b9250929050565b5f805f805f606086880312156125a8575f80fd5b85359450602086013567ffffffffffffffff808211156125c6575f80fd5b6125d289838a0161254f565b909650945060408801359150808211156125ea575f80fd5b506125f78882890161254f565b969995985093965092949392505050565b5f805f806060858703121561261b575f80fd5b8435935060208501359250604085013567ffffffffffffffff81111561263f575f80fd5b61264b8782880161254f565b95989497509550505050565b80356001600160a01b038116811461266d575f80fd5b919050565b5f60208284031215612682575f80fd5b61178782612657565b5f815180845260208085019450602084015f5b838110156126ba5781518752958201959082019060010161269e565b509495945050505050565b602081525f611787602083018461268b565b5f80604083850312156126e8575f80fd5b6126f183612657565b946020939093013593505050565b5f81518084525f5b8181101561272357602081850181015186830182015201612707565b505f602082860101526020601f19601f83011685010191505092915050565b6001600160a01b0385168152608060208201525f61276360808301866126ff565b828103604084015261277581866126ff565b915050821515606083015295945050505050565b5f806040838503121561279a575f80fd5b50508035926020909101359150565b6001600160a01b038716815260c060208201525f6127ca60c08301886126ff565b82810360408401526127dc81886126ff565b606084019690965250506080810192909252151560a0909101529392505050565b634e487b7160e01b5f52604160045260245ffd5b604051601f8201601f1916810167ffffffffffffffff8111828210171561283a5761283a6127fd565b604052919050565b5f805f60608486031215612854575f80fd5b8335925060208085013567ffffffffffffffff8082168214612874575f80fd5b909350604090868201358181111561288a575f80fd5b8701601f8101891361289a575f80fd5b8035828111156128ac576128ac6127fd565b8060051b6128bb868201612811565b918252828101860191868101908c8411156128d4575f80fd5b87850192505b8383101561295b578235868111156128f0575f80fd5b8501603f81018e13612900575f80fd5b8881013587811115612914576129146127fd565b612926601f8201601f19168b01612811565b8181528f8a838501011115612939575f80fd5b818a84018c8301375f9181018b019190915283525091870191908701906128da565b80985050505050505050509250925092565b5f806040838503121561297e575f80fd5b8235915061298e60208401612657565b90509250929050565b600181811c908216806129ab57607f821691505b602082108103610dd557634e487b7160e01b5f52602260045260245ffd5b601f82111561117e57805f5260205f20601f840160051c810160208510156129ee5750805b601f840160051c820191505b81811015610c38575f81556001016129fa565b815167ffffffffffffffff811115612a2757612a276127fd565b612a3b81612a358454612997565b846129c9565b602080601f831160018114612a6e575f8415612a575750858301515b5f19600386901b1c1916600185901b178555612ac5565b5f85815260208120601f198616915b82811015612a9c57888601518255948401946001909101908401612a7d565b5085821015612ab957878501515f19600388901b60f8161c191681555b505060018460011b0185555b505050505050565b81835281816020850137505f828201602090810191909152601f909101601f19169091010190565b602081525f611eb6602083018486612acd565b67ffffffffffffffff831115612b2057612b206127fd565b612b3483612b2e8354612997565b836129c9565b5f601f841160018114612b65575f8515612b4e5750838201355b5f19600387901b1c1916600186901b178355610c38565b5f83815260208120601f198716915b82811015612b945786850135825560209485019460019092019101612b74565b5086821015612bb0575f1960f88860031b161c19848701351681555b505060018560011b0183555050505050565b604081525f612bd5604083018688612acd565b82810360208401526122fe818587612acd565b634e487b7160e01b5f52601160045260245ffd5b5f60018201612c0d57612c0d612be8565b5060010190565b634e487b7160e01b5f52603260045260245ffd5b838152606060208201525f612c40606083018561268b565b905063ffffffff60e01b83166040830152949350505050565b634e487b7160e01b5f52602160045260245ffd5b60548110612c8957634e487b7160e01b5f52602160045260245ffd5b9052565b828152604081016117876020830184612c6d565b5f60208284031215612cb1575f80fd5b5051919050565b8481526001600160a01b0384166020820152608060408201525f612cdf60808301856126ff565b9050612cee6060830184612c6d565b95945050505050565b606081525f612d09606083018661268b565b602083820381850152612d1c82876126ff565b915083820360408501528185518084528284019150828160051b8501018388015f5b83811015612d6c57601f19878403018552612d5a8383516126ff565b94860194925090850190600101612d3e565b50909a9950505050505050505050565b5f60208284031215612d8c575f80fd5b81518015158114611787575f80fd5b8082018082111561164c5761164c612be856fea164736f6c6343000818000a",
  "linkReferences": {},
  "deployedLinkReferences": {}
}