{
  "_format": "hh-sol-artifact-1",
  "contractName": "ZLETHWrapper",
  "sourceName": "contracts/ZLETHWrapper.sol",
  "abi": [
    {
      "inputs": [],
      "stateMutability": "nonpayable",
      "type": "constructor"
    },
    {
      "inputs": [],
      "name": "HandlesAlreadySavedForRequestID",
      "type": "error"
    },
    {
      "inputs": [],
      "name": "InsufficientETH",
      "type": "error"
    },
    {
      "inputs": [],
      "name": "InvalidKMSSignatures",
      "type": "error"
    },
    {
      "inputs": [],
      "name": "InvalidReceiver",
      "type": "error"
    },
    {
      "inputs": [],
      "name": "InvalidRequest",
      "type": "error"
    },
    {
      "inputs": [],
      "name": "NoHandleFoundForRequestID",
      "type": "error"
    },
    {
      "inputs": [],
      "name": "ReentrancyGuardReentrantCall",
      "type": "error"
    },
    {
      "inputs": [
        {
          "internalType": "uint8",
          "name": "bits",
          "type": "uint8"
        },
        {
          "internalType": "uint256",
          "name": "value",
          "type": "uint256"
        }
      ],
      "name": "SafeCastOverflowedUintDowncast",
      "type": "error"
    },
    {
      "inputs": [],
      "name": "UnsupportedHandleType",
      "type": "error"
    },
    {
      "inputs": [],
      "name": "UnwrapFailed",
      "type": "error"
    },
    {
      "anonymous": false,
      "inputs": [
        {
          "indexed": true,
          "internalType": "uint256",
          "name": "requestID",
          "type": "uint256"
        }
      ],
      "name": "DecryptionFulfilled",
      "type": "event"
    },
    {
      "anonymous": false,
      "inputs": [
        {
          "indexed": true,
          "internalType": "address",
          "name": "user",
          "type": "address"
        },
        {
          "indexed": false,
          "internalType": "uint256",
          "name": "ethAmount",
          "type": "uint256"
        }
      ],
      "name": "ETHUnwrapped",
      "type": "event"
    },
    {
      "anonymous": false,
      "inputs": [
        {
          "indexed": true,
          "internalType": "address",
          "name": "user",
          "type": "address"
        },
        {
          "indexed": false,
          "internalType": "uint256",
          "name": "ethAmount",
          "type": "uint256"
        },
        {
          "indexed": false,
          "internalType": "uint64",
          "name": "zlethAmount",
          "type": "uint64"
        }
      ],
      "name": "ETHWrapped",
      "type": "event"
    },
    {
      "anonymous": false,
      "inputs": [
        {
          "indexed": true,
          "internalType": "address",
          "name": "user",
          "type": "address"
        },
        {
          "indexed": false,
          "internalType": "uint256",
          "name": "requestId",
          "type": "uint256"
        }
      ],
      "name": "UnwrapRequested",
      "type": "event"
    },
    {
      "inputs": [
        {
          "internalType": "address",
          "name": "spender",
          "type": "address"
        }
      ],
      "name": "allowDecryption",
      "outputs": [],
      "stateMutability": "nonpayable",
      "type": "function"
    },
    {
      "inputs": [
        {
          "internalType": "address",
          "name": "account",
          "type": "address"
        }
      ],
      "name": "balanceOf",
      "outputs": [
        {
          "internalType": "euint64",
          "name": "",
          "type": "bytes32"
        }
      ],
      "stateMutability": "view",
      "type": "function"
    },
    {
      "inputs": [
        {
          "internalType": "address",
          "name": "to",
          "type": "address"
        },
        {
          "internalType": "externalEuint64",
          "name": "encryptedAmount",
          "type": "bytes32"
        },
        {
          "internalType": "bytes",
          "name": "inputProof",
          "type": "bytes"
        }
      ],
      "name": "confidentialTransfer",
      "outputs": [],
      "stateMutability": "nonpayable",
      "type": "function"
    },
    {
      "inputs": [
        {
          "internalType": "address",
          "name": "to",
          "type": "address"
        },
        {
          "internalType": "euint64",
          "name": "amount",
          "type": "bytes32"
        }
      ],
      "name": "confidentialTransfer",
      "outputs": [],
      "stateMutability": "nonpayable",
      "type": "function"
    },
    {
      "inputs": [],
      "name": "contractHealth",
      "outputs": [
        {
          "internalType": "uint256",
          "name": "ethBalance",
          "type": "uint256"
        },
        {
          "internalType": "uint256",
          "name": "ethLocked",
          "type": "uint256"
        },
        {
          "internalType": "bool",
          "name": "isHealthy",
          "type": "bool"
        }
      ],
      "stateMutability": "view",
      "type": "function"
    },
    {
      "inputs": [],
      "name": "decimals",
      "outputs": [
        {
          "internalType": "uint8",
          "name": "",
          "type": "uint8"
        }
      ],
      "stateMutability": "view",
      "type": "function"
    },
    {
      "inputs": [
        {
          "internalType": "address",
          "name": "to",
          "type": "address"
        }
      ],
      "name": "deposit",
      "outputs": [],
      "stateMutability": "payable",
      "type": "function"
    },
    {
      "inputs": [],
      "name": "emergencyWithdrawETH",
      "outputs": [],
      "stateMutability": "nonpayable",
      "type": "function"
    },
    {
      "inputs": [
        {
          "internalType": "uint256",
          "name": "requestID",
          "type": "uint256"
        },
        {
          "internalType": "uint64",
          "name": "zlethAmount",
          "type": "uint64"
        },
        {
          "internalType": "bytes[]",
          "name": "signatures",
          "type": "bytes[]"
        }
      ],
      "name": "finalizeWithdraw",
      "outputs": [],
      "stateMutability": "nonpayable",
      "type": "function"
    },
    {
      "inputs": [],
      "name": "name",
      "outputs": [
        {
          "internalType": "string",
          "name": "",
          "type": "string"
        }
      ],
      "stateMutability": "view",
      "type": "function"
    },
    {
      "inputs": [],
      "name": "rate",
      "outputs": [
        {
          "internalType": "uint256",
          "name": "",
          "type": "uint256"
        }
      ],
      "stateMutability": "view",
      "type": "function"
    },
    {
      "inputs": [],
      "name": "symbol",
      "outputs": [
        {
          "internalType": "string",
          "name": "",
          "type": "string"
        }
      ],
      "stateMutability": "view",
      "type": "function"
    },
    {
      "inputs": [],
      "name": "totalEthLocked",
      "outputs": [
        {
          "internalType": "uint256",
          "name": "",
          "type": "uint256"
        }
      ],
      "stateMutability": "view",
      "type": "function"
    },
    {
      "inputs": [
        {
          "internalType": "address",
          "name": "from",
          "type": "address"
        },
        {
          "internalType": "address",
          "name": "to",
          "type": "address"
        },
        {
          "internalType": "externalEuint64",
          "name": "encryptedAmount",
          "type": "bytes32"
        },
        {
          "internalType": "bytes",
          "name": "inputProof",
          "type": "bytes"
        }
      ],
      "name": "withdraw",
      "outputs": [],
      "stateMutability": "nonpayable",
      "type": "function"
    },
    {
      "inputs": [
        {
          "internalType": "address",
          "name": "from",
          "type": "address"
        },
        {
          "internalType": "address",
          "name": "to",
          "type": "address"
        },
        {
          "internalType": "euint64",
          "name": "amount",
          "type": "bytes32"
        }
      ],
      "name": "withdraw",
      "outputs": [],
      "stateMutability": "nonpayable",
      "type": "function"
    },
    {
      "stateMutability": "payable",
      "type": "receive"
    }
  ],
  "bytecode": "0x60c060405234620002ab575f606062000017620002ea565b828152826020820152826040820152015262000032620002ea565b606073687820221192c5b662b25367f70076a37bc79b6c9182815273848b0066793bcc60346da1f49049357399b8d595806020830152731364cbbf2cdf5032c47d8226a6f6fbd2afcdacac9182604082015273bc91f3dad1a5f19f8390c400196e58073b6a0bc4938491015260018060a01b0319937fed8d60e34876f751cc8b014c560745351147d9de11b9347c854e881b128ea60090858254161790557fed8d60e34876f751cc8b014c560745351147d9de11b9347c854e881b128ea60190848254161790557fed8d60e34876f751cc8b014c560745351147d9de11b9347c854e881b128ea60290838254161790557fed8d60e34876f751cc8b014c560745351147d9de11b9347c854e881b128ea603908282541617905573a02cda4ca3a71d7c46997716f4283aa851c288127f5ea69329017273582817d320489fbd94f775580e90c092699ca6f3d12fdf7d00918254161790556001805f55620001998154620002af565b601f81116200027c575b507f5a616d61204c696e6b204554480000000000000000000000000000000000001a8155600254620001d590620002af565b601f811162000232575b600a640b4988aa8960db1b016002556009608052633b9aca0060a052604051611a5690816200031f8239608051816103fc015260a05181818161030d01528181610a1001528181610c6a0152610d880152f35b60025f52601f0160051c7f405787fa12a823e0f2b7631cc41b3ba8828b3321ca811111fa75cd3aa3bb5ace908101905b818110620002715750620001df565b5f8155820162000262565b815f5281601f60205f20920160051c8201915b8281106200029f575050620001a3565b5f81550182906200028f565b5f80fd5b90600182811c92168015620002df575b6020831014620002cb57565b634e487b7160e01b5f52602260045260245ffd5b91607f1691620002bf565b60405190608082016001600160401b038111838210176200030a57604052565b634e487b7160e01b5f52604160045260245ffdfe60806040526004361015610022575b3615610018575f80fd5b610020610d6f565b005b5f3560e01c806306fdde0314610111578063234e1da11461010c5780632c4e722e146101075780632fb74e6214610102578063313ce567146100fd5780635bebed7e146100f857806370a08231146100f357806384536017146100ee5780638e210861146100e957806392686944146100e457806395d89b41146100df578063a34eb1da146100da578063d2701f99146100d5578063e479c8f7146100d05763f340fa010361000e576109ec565b6109cf565b61092d565b610866565b61073b565b61053b565b61050d565b61047e565b610446565b610420565b6103e3565b61038a565b6102f6565b6102ca565b6101c5565b5f91031261012057565b5f80fd5b634e487b7160e01b5f52604160045260245ffd5b67ffffffffffffffff811161014c57604052565b610124565b90601f8019910116810190811067ffffffffffffffff82111761014c57604052565b91908251928382525f5b84811061019d575050825f602080949584010152601f8019910116010190565b60208183018101518483018201520161017d565b9060206101c2928181520190610173565b90565b34610120575f366003190112610120576040515f60018054908160011c91600181169182156102c0575b6020916020851084146102ac57848752602087019390811561028d5750600114610234575b6102308661022481880382610151565b604051918291826101b1565b0390f35b60015f90815294509192917fb10e2d527612073b26eecdfd717e6a320cf44b4afac2b0732d9fcbe2b7fa0cf65b83861061027c5750505091019050610224826102305f610214565b805485870152948201948101610261565b60ff1916845250505090151560051b019050610224826102305f610214565b634e487b7160e01b5f52602260045260245ffd5b92607f16926101ef565b34610120575f366003190112610120576060476005546040519180835281602084015210156040820152f35b34610120575f3660031901126101205760206040517f00000000000000000000000000000000000000000000000000000000000000008152f35b600435906001600160a01b038216820361012057565b602435906001600160a01b038216820361012057565b9181601f840112156101205782359167ffffffffffffffff8311610120576020838186019501011161012057565b34610120576060366003190112610120576103a3610330565b6044359067ffffffffffffffff8211610120576103dc6103d46103cd61002094369060040161035c565b3691610830565b602435610ebe565b9033610ff1565b34610120575f36600319011261012057602060405160ff7f0000000000000000000000000000000000000000000000000000000000000000168152f35b346101205760403660031901126101205761002061043c610330565b6024359033610ff1565b34610120576020366003190112610120576001600160a01b03610467610330565b165f526003602052602060405f2054604051908152f35b34610120575f3660031901126101205747600554809111156104c8575f80806104a8819447610bbc565b8181156104bf575b3390f1156104ba57005b610bce565b506108fc6104b0565b60405162461bcd60e51b815260206004820152601960248201527f4e6f206578636573732045544820746f207769746864726177000000000000006044820152606490fd5b3461012057602036600319011261012057610020610529610330565b335f52600360205260405f205461146d565b3461012057608036600319011261012057610554610330565b61055c610346565b9060643567ffffffffffffffff81116101205761058b61058361059392369060040161035c565b6103cd61111b565b604435610ebe565b9061059c61111b565b6001600160a01b0380841615610729578116923384036106e4576106bf6106848461066c8561060a7f23817986d1dba52af945be8ef92eef267d76712726850a98cea5fdfe6ca2b8e0986106046106cf996001600160a01b03165f52600360205260405f2090565b546113d5565b610625826001600160a01b03165f52600360205260405f2090565b5561064a610644826001600160a01b03165f52600360205260405f2090565b5461136c565b50610666816001600160a01b03165f52600360205260405f2090565b5461146d565b610674611222565b9061067e82611261565b52611809565b91610697835f52600460205260405f2090565b906001600160a01b031673ffffffffffffffffffffffffffffffffffffffff19825416179055565b6040519081529081906020820190565b0390a26106db60015f55565b61002060015f55565b60405162461bcd60e51b815260206004820152600c60248201527f556e617574686f72697a656400000000000000000000000000000000000000006044820152606490fd5b604051631e4ec46b60e01b8152600490fd5b34610120575f366003190112610120576040515f60025460018160011c91600181169182156107f2575b6020916020851084146102ac57848752602087019390811561028d5750600114610799576102308661022481880382610151565b60025f90815294509192917f405787fa12a823e0f2b7631cc41b3ba8828b3321ca811111fa75cd3aa3bb5ace5b8386106107e15750505091019050610224826102305f610214565b8054858701529482019481016107c6565b92607f1692610765565b67ffffffffffffffff811161014c5760051b60200190565b67ffffffffffffffff811161014c57601f01601f191660200190565b92919261083c82610814565b9161084a6040519384610151565b829481845281830111610120578281602093845f960137010152565b346101205760603660031901126101205767ffffffffffffffff602480358281168103610120576044916044359084821161012057366023830112156101205781600401356108b4816107fc565b946108c26040519687610151565b8186526020966024602088019360051b860101943686116101205760248101935b8685106108f7576100208989600435610bec565b843583811161012057820136604382011215610120578a9161092283923690888b8201359101610830565b8152019401936108e3565b3461012057606036600319011261012057610946610330565b61094e610346565b906044359061095b61111b565b6001600160a01b0380841615610729578116923384036106e4576106bf6106848461066c8561060a7f23817986d1dba52af945be8ef92eef267d76712726850a98cea5fdfe6ca2b8e0986106046109c3996001600160a01b03165f52600360205260405f2090565b0390a261002060015f55565b34610120575f366003190112610120576020600554604051908152f35b602036600319011261012057610a00610330565b610a0861111b565b3415610b96577f000000000000000000000000000000000000000000000000000000000000000090610a42610a3d8334610d3b565b611287565b9167ffffffffffffffff8316908115610b9657610a5f9034610d4a565b9081158015610b6b575b50916109c3610b4583610ae5610ac47f4df0715e64e925c8800d7b4e8fc78c1cc94390aba798c793562aa1509249d21097610abf610aba610ab26001600160a01b039a34610bbc565b600554610d62565b600555565b6116fd565b610adf866001600160a01b03165f52600360205260405f2090565b546112bb565b610b00856001600160a01b03165f52600360205260405f2090565b55610b1f610644856001600160a01b03165f52600360205260405f2090565b50610b3f84610666816001600160a01b03165f52600360205260405f2090565b34610bbc565b9460405193849316958390929167ffffffffffffffff6020916040840195845216910152565b91809391925f90610b8d575b5f80809381933390f1156104ba5791905f610a69565b506108fc610b77565b604051631a84bc4160e21b8152600490fd5b634e487b7160e01b5f52601160045260245ffd5b91908203918211610bc957565b610ba8565b6040513d5f823e3d90fd5b81810292918115918404141715610bc957565b9091610bf8908261113c565b6001600160a01b03610c22610c15835f52600460205260405f2090565b546001600160a01b031690565b16918215610d1557610c5f610c42610c90935f52600460205260405f2090565b73ffffffffffffffffffffffffffffffffffffffff198154169055565b67ffffffffffffffff7f00000000000000000000000000000000000000000000000000000000000000009116610bd9565b478111610d0e575b6005548111610d0057610cb0610aba82600554610bbc565b5f81838115610cf6575b5f92839283928392f1156104ba576040519081527f15e8b36d3d0b29693f4c47e496ea5b386255eec3298d3396880f76fce9add29690602090a2565b6108fc9250610cba565b610d095f600555565b610cb0565b5047610c98565b6040516341abc80160e01b8152600490fd5b634e487b7160e01b5f52601260045260245ffd5b8115610d45570490565b610d27565b8115610d45570690565b9060208201809211610bc957565b91908201809211610bc957565b34158015610d7a5750565b610d8261111b565b610b96577f0000000000000000000000000000000000000000000000000000000000000000610db4610a3d8234610d3b565b9067ffffffffffffffff8216908115610b9657610dd19034610d4a565b80158015610e98575b50610e6781610e2d610e1a7f4df0715e64e925c8800d7b4e8fc78c1cc94390aba798c793562aa1509249d21095610abf610aba610ab2610e8a9834610bbc565b335f908152600360205260409020610adf565b335f908152600360205260409020908155610e4790610644565b50610b3f33610666336001600160a01b03165f52600360205260405f2090565b6040805191825267ffffffffffffffff9094166020820152339390918291820190565b0390a2610e9660015f55565b565b81905f90610eb5575b5f80809381933390f1156104ba575f610dda565b506108fc610ea1565b610f2891602091610f08610efc610efc7fed8d60e34876f751cc8b014c560745351147d9de11b9347c854e881b128ea601546001600160a01b031690565b6001600160a01b031690565b905f60405180968195829463196d0b9b60e01b84523390600485016113a3565b03925af19081156104ba575f91610fc2575b50610f72610efc610efc7fed8d60e34876f751cc8b014c560745351147d9de11b9347c854e881b128ea600546001600160a01b031690565b803b1561012057604051630f8e573b60e21b815260048101839052336024820152905f908290604490829084905af180156104ba57610faf575090565b80610fbc6101c292610138565b80610116565b610fe4915060203d602011610fea575b610fdc8183610151565b810190611376565b5f610f3a565b503d610fd2565b916001600160a01b038216156110d657826110628261102b6110bb94610604610e96986001600160a01b03165f52600360205260405f2090565b611046846001600160a01b03165f52600360205260405f2090565b55610adf856001600160a01b03165f52600360205260405f2090565b61107d846001600160a01b03165f52600360205260405f2090565b5561109c610644826001600160a01b03165f52600360205260405f2090565b5061064a610644846001600160a01b03165f52600360205260405f2090565b610666816001600160a01b03165f52600360205260405f2090565b60405162461bcd60e51b815260206004820152601860248201527f5472616e7366657220746f207a65726f206164647265737300000000000000006044820152606490fd5b60025f541461112a5760025f55565b604051633ee5aeb560e01b8152600490fd5b90815f527f5ea69329017273582817d320489fbd94f775580e90c092699ca6f3d12fdf7d026020908060205260405f20541561121057835f5260205260405f206040519182602083549182815201925f5260205f20915f905b8282106111f9575050505091816111b46111b9936111bd950382610151565b6115ea565b1590565b6111e7577f1af0453083661051f6e56e5c070792320652e612154bf9af8637bb1e7655b99d5f80a2565b60405163cf6c44e960e01b8152600490fd5b835485529384019360019384019390910190611195565b60405163d66ca67560e01b8152600490fd5b604051906040820182811067ffffffffffffffff82111761014c576040526001825260203681840137565b634e487b7160e01b5f52603260045260245ffd5b80511561126e5760200190565b61124d565b805182101561126e5760209160051b010190565b67ffffffffffffffff9081811161129c571690565b604490604051906306dfcc6560e41b8252604060048301526024820152fd5b90811561135c575b801561134a575b60209060646001600160a01b037fed8d60e34876f751cc8b014c560745351147d9de11b9347c854e881b128ea6015416935f604051958694859363022f65e760e31b8552600485015260248401528160448401525af19081156104ba575f91611331575090565b6101c2915060203d602011610fea57610fdc8183610151565b506020611355611760565b90506112ca565b9050611366611760565b906112c3565b6101c2308261146d565b90816020910312610120575190565b6054111561138f57565b634e487b7160e01b5f52602160045260245ffd5b93926113d0906001600160a01b036005946060948852166020870152608060408701526080860190610173565b930152565b90811561145d575b801561144b575b60209060646001600160a01b037fed8d60e34876f751cc8b014c560745351147d9de11b9347c854e881b128ea6015416935f60405195869485936303056db360e31b8552600485015260248401528160448401525af19081156104ba575f91611331575090565b506020611456611760565b90506113e4565b9050611467611760565b906113dd565b6001600160a01b037fed8d60e34876f751cc8b014c560745351147d9de11b9347c854e881b128ea600541691823b1561012057604051635ca4b5b160e11b815260048101929092526001600160a01b03166024820152905f908290604490829084905af180156104ba576114de5750565b610e9690610138565b906114f182610814565b6114fe6040519182610151565b828152809261150f601f1991610814565b0190602036910137565b90816020910312610120575180151581036101205790565b9081518082526020808093019301915f5b828110611550575050505090565b835185529381019392810192600101611542565b919061157b61158a91606085526060850190611531565b60209284820384860152610173565b9160408184039101528251908183528083019281808460051b8301019501935f915b8483106115bc5750505050505090565b90919293949584806115da600193601f198682030187528a51610173565b98019301930191949392906115ac565b80515f905f905b8082106116ae5750509160209161160a61167094610d54565b611613816114e7565b906024858301375f611652610efc610efc7fed8d60e34876f751cc8b014c560745351147d9de11b9347c854e881b128ea602546001600160a01b031690565b9260405196879586948593632c027b1360e21b855260048501611564565b03925af19081156104ba575f91611685575090565b6101c2915060203d6020116116a7575b61169f8183610151565b810190611519565b503d611695565b909160096116bc8486611273565b51601e1a6116c981611385565b6116d281611385565b10156116eb576116e3600191610d54565b9201906115f1565b60405163ce54a8d160e01b8152600490fd5b60205f9160446001600160a01b037fed8d60e34876f751cc8b014c560745351147d9de11b9347c854e881b128ea6015416916040519485938492639cd07acb60e01b84526004840152600560248401525af19081156104ba575f91611331575090565b5f60206001600160a01b037fed8d60e34876f751cc8b014c560745351147d9de11b9347c854e881b128ea6015416604460405180948193639cd07acb60e01b8352816004840152600560248401525af19081156104ba575f91611331575090565b9060206101c2928181520190611531565b92916117eb918452606060208501526060840190611531565b9160406351a758ed60e11b910152565b5f198114610bc95760010190565b907f5ea69329017273582817d320489fbd94f775580e90c092699ca6f3d12fdf7d0191825492611866610efc610efc7fed8d60e34876f751cc8b014c560745351147d9de11b9347c854e881b128ea600546001600160a01b031690565b803b15610120575f6040518092637d6e912360e11b825281838161188d89600483016117c1565b03925af180156104ba5761195c575b506118d4610efc610efc7f5ea69329017273582817d320489fbd94f775580e90c092699ca6f3d12fdf7d00546001600160a01b031690565b90813b15610120575f6040518093633263b83b60e01b82528183816118fd898c600484016117d2565b03925af180156104ba57610e96936119259361191f92611949575b508661196f565b546117fb565b7f5ea69329017273582817d320489fbd94f775580e90c092699ca6f3d12fdf7d0155565b80610fbc61195692610138565b5f611918565b80610fbc61196992610138565b5f61189c565b805f527f5ea69329017273582817d320489fbd94f775580e90c092699ca6f3d12fdf7d026020918160205260405f2054611a37575f5260205260405f209082519267ffffffffffffffff841161014c5768010000000000000000841161014c578254848455808510611a11575b5060206119ee9101925f5260205f2090565b905f5b8481106119ff575050505050565b835183820155928101926001016119f1565b835f528460205f2091820191015b818110611a2c57506119dc565b5f8155600101611a1f565b604051633f06d22b60e01b8152600490fdfea164736f6c6343000818000a",
  "linkReferences": {},
  "deployedLinkReferences": {}
}