{
  "address": "0x1F82F70F67B03E05a86dD356762aC5d6f7DB2849",
  "abi": [
    {
      "inputs": [
        {
          "internalType": "address",
          "name": "_wrapper",
          "type": "address"
        },
        {
          "internalType": "address",
          "name": "_oracle",
          "type": "address"
        }
      ],
      "stateMutability": "nonpayable",
      "type": "constructor"
    },
    {
      "inputs": [],
      "name": "HandlesAlreadySavedForRequestID",
      "type": "error"
    },
    {
      "inputs": [],
      "name": "InvalidKMSSignatures",
      "type": "error"
    },
    {
      "inputs": [],
      "name": "NoHandleFoundForRequestID",
      "type": "error"
    },
    {
      "inputs": [],
      "name": "UnsupportedHandleType",
      "type": "error"
    },
    {
      "anonymous": false,
      "inputs": [
        {
          "indexed": true,
          "internalType": "bytes32",
          "name": "campaignId",
          "type": "bytes32"
        },
        {
          "indexed": true,
          "internalType": "address",
          "name": "creator",
          "type": "address"
        }
      ],
      "name": "CampaignCreated",
      "type": "event"
    },
    {
      "anonymous": false,
      "inputs": [
        {
          "indexed": true,
          "internalType": "bytes32",
          "name": "campaignId",
          "type": "bytes32"
        },
        {
          "indexed": true,
          "internalType": "uint256",
          "name": "requestId",
          "type": "uint256"
        },
        {
          "indexed": false,
          "internalType": "bytes32",
          "name": "totalHandle",
          "type": "bytes32"
        }
      ],
      "name": "ClaimRequested",
      "type": "event"
    },
    {
      "anonymous": false,
      "inputs": [
        {
          "indexed": true,
          "internalType": "bytes32",
          "name": "campaignId",
          "type": "bytes32"
        },
        {
          "indexed": true,
          "internalType": "address",
          "name": "creator",
          "type": "address"
        },
        {
          "indexed": false,
          "internalType": "uint128",
          "name": "amountWei",
          "type": "uint128"
        }
      ],
      "name": "Claimed",
      "type": "event"
    },
    {
      "anonymous": false,
      "inputs": [
        {
          "indexed": true,
          "internalType": "uint256",
          "name": "requestID",
          "type": "uint256"
        }
      ],
      "name": "DecryptionFulfilled",
      "type": "event"
    },
    {
      "anonymous": false,
      "inputs": [
        {
          "indexed": true,
          "internalType": "bytes32",
          "name": "campaignId",
          "type": "bytes32"
        },
        {
          "indexed": true,
          "internalType": "address",
          "name": "donor",
          "type": "address"
        },
        {
          "indexed": false,
          "internalType": "bytes32",
          "name": "amountHandle",
          "type": "bytes32"
        }
      ],
      "name": "DonationRecorded",
      "type": "event"
    },
    {
      "inputs": [
        {
          "internalType": "bytes32",
          "name": "campaignId",
          "type": "bytes32"
        },
        {
          "internalType": "address",
          "name": "creator",
          "type": "address"
        }
      ],
      "name": "createCampaign",
      "outputs": [],
      "stateMutability": "nonpayable",
      "type": "function"
    },
    {
      "inputs": [],
      "name": "decryptionOracle",
      "outputs": [
        {
          "internalType": "address",
          "name": "",
          "type": "address"
        }
      ],
      "stateMutability": "view",
      "type": "function"
    },
    {
      "inputs": [
        {
          "internalType": "bytes32",
          "name": "campaignId",
          "type": "bytes32"
        },
        {
          "internalType": "externalEuint128",
          "name": "amountExt",
          "type": "bytes32"
        },
        {
          "internalType": "bytes",
          "name": "att",
          "type": "bytes"
        }
      ],
      "name": "donateZLETH",
      "outputs": [],
      "stateMutability": "nonpayable",
      "type": "function"
    },
    {
      "inputs": [
        {
          "internalType": "uint256",
          "name": "requestId",
          "type": "uint256"
        },
        {
          "internalType": "uint128",
          "name": "amountWei",
          "type": "uint128"
        },
        {
          "internalType": "bytes[]",
          "name": "signatures",
          "type": "bytes[]"
        }
      ],
      "name": "onClaimCallback",
      "outputs": [],
      "stateMutability": "nonpayable",
      "type": "function"
    },
    {
      "inputs": [
        {
          "internalType": "bytes32",
          "name": "campaignId",
          "type": "bytes32"
        }
      ],
      "name": "requestClaim",
      "outputs": [
        {
          "internalType": "uint256",
          "name": "requestId",
          "type": "uint256"
        }
      ],
      "stateMutability": "nonpayable",
      "type": "function"
    },
    {
      "inputs": [
        {
          "internalType": "bytes32",
          "name": "campaignId",
          "type": "bytes32"
        }
      ],
      "name": "viewTotalHandle",
      "outputs": [
        {
          "internalType": "bytes32",
          "name": "",
          "type": "bytes32"
        }
      ],
      "stateMutability": "view",
      "type": "function"
    },
    {
      "inputs": [],
      "name": "wrapper",
      "outputs": [
        {
          "internalType": "address",
          "name": "",
          "type": "address"
        }
      ],
      "stateMutability": "view",
      "type": "function"
    }
  ],
  "transactionHash": "0xb23f27942e40a0ba3d59ef764f7dde23fda1ac9b01f32786e5255bc58f2ea58e",
  "args": [
    "0x7bE2cB768B2c5C226FFf8B475bb50d6A2d70C487",
    "0xa02Cda4Ca3a71D7C46997716F4283aa851C28812"
  ],
  "numDeployments": 1,
  "solcInputHash": "f9c13f07a99bb4f63e47c19bfa10edc6",
  "bytecode": "0x60c03461013b57601f6200184c38819003918201601f19168301916001600160401b0383118484101761013f57808492604094855283398101031261013b57610053602061004c83610153565b9201610153565b6001600160a01b03828116156101075781169182156100d45760805260a0527f5ea69329017273582817d320489fbd94f775580e90c092699ca6f3d12fdf7d0080546001600160a01b03191690911790556040516116e4908162000168823960805181818161041201526109f8015260a05181818161045501526108ed0152f35b60405162461bcd60e51b815260206004820152600b60248201526a4f5241434c455f5a45524f60a81b6044820152606490fd5b60405162461bcd60e51b815260206004820152600c60248201526b575241505045525f5a45524f60a01b6044820152606490fd5b5f80fd5b634e487b7160e01b5f52604160045260245ffd5b51906001600160a01b038216820361013b5756fe60806040526004361015610011575f80fd5b5f3560e01c806319c7418f146100845780632479926c1461007f578063465d52451461007a5780634b7a387a14610075578063ac210cc714610070578063b3fa6dec1461006b5763d1b68a9614610066575f80fd5b610479565b610436565b6103f3565b61027a565b610200565b6101ba565b346101b65760203660031901126101b6576101b26101856004356100aa6002541561070a565b6001600255805f525f6020526100c960ff600260405f20015416610756565b805f525f6020526100f76100f06001600160a01b0360405f2054166001600160a01b031690565b33146107a2565b610114600161010d835f525f60205260405f2090565b0154611029565b61011c61085d565b906001610130825f525f60205260405f2090565b015461013b8361089c565b527f2c902269b6522d3693e9cb064ce2a3043bb85b514fd3420a15b9d054d3d8a45861019661016984611107565b9485948461017f875f52600160205260405f2090565b5561089c565b516040519081529081906020820190565b0390a36101a25f600255565b6040519081529081906020820190565b0390f35b5f80fd5b346101b65760203660031901126101b657600435805f525f6020526101e860ff600260405f20015416610756565b5f525f6020526020600160405f200154604051908152f35b346101b65760603660031901126101b6576024356fffffffffffffffffffffffffffffffff811681036101b6576044359067ffffffffffffffff908183116101b657366023840112156101b65782600401359182116101b6573660248360051b850101116101b65760246102789301906004356108c2565b005b346101b65760403660031901126101b657600435602435906001600160a01b038216918281036101b6576103bc906102b46002541561070a565b60016002556102e66102e16102dd60026102d5875f525f60205260405f2090565b015460ff1690565b1590565b610c47565b6102f1841515610c93565b6103836102fc611492565b61030461083d565b6001600160a01b03841681529060208201526001604082015261032e855f525f60205260405f2090565b60026040916001600160a01b038451167fffffffffffffffffffffffff00000000000000000000000000000000000000008254161781556020840151600182015501910151151560ff80198354169116179055565b6103a26001610399855f525f60205260405f2090565b01543090611556565b60016103b5845f525f60205260405f2090565b0154611556565b7f56419e16617c73fd93c78ff2bdc4b1dc1dae51571a63e868c6fdab1e9b244f325f80a36102785f600255565b5f9103126101b657565b346101b6575f3660031901126101b65760206040516001600160a01b037f0000000000000000000000000000000000000000000000000000000000000000168152f35b346101b6575f3660031901126101b65760206040516001600160a01b037f0000000000000000000000000000000000000000000000000000000000000000168152f35b346101b65760603660031901126101b65760443560043567ffffffffffffffff8083116101b657366023840112156101b65782600401359081116101b65736602482850101116101b6576105666105025f946020936104da6002541561070a565b60016002558587528685526104f860ff600260408a20015416610756565b6024369201610b37565b6105456105396105397fed8d60e34876f751cc8b014c560745351147d9de11b9347c854e881b128ea601546001600160a01b031690565b6001600160a01b031690565b9060405195868094819363196d0b9b60e01b835233602435600485016115bd565b03925af19182156106d4575f926106d9575b506105b06105396105397fed8d60e34876f751cc8b014c560745351147d9de11b9347c854e881b128ea600546001600160a01b031690565b803b156101b657604051630f8e573b60e21b815260048101849052336024820152905f908290604490829084905af180156106d4576106bb575b506105fc6105f783610ec1565b610cdf565b61061a826001610613845f525f60205260405f2090565b0154610f4d565b600161062d835f525f60205260405f2090565b01556106456001610399835f525f60205260405f2090565b610684600161065b835f525f60205260405f2090565b015461067e610671845f525f60205260405f2090565b546001600160a01b031690565b90611556565b60405191825233917f191e70f45bc62412866a3942254b6ecea26e75449d4f5b4dbdf4b4662572a24090602090a36102785f600255565b806106c86106ce92610802565b806103e9565b5f6105ea565b610c3c565b6106fc91925060203d602011610703575b6106f4818361081b565b810190611465565b905f610578565b503d6106ea565b1561071157565b60405162461bcd60e51b815260206004820152600a60248201527f5245454e5452414e4359000000000000000000000000000000000000000000006044820152606490fd5b1561075d57565b60405162461bcd60e51b815260206004820152601260248201527f43414d504149474e5f4e4f545f464f554e4400000000000000000000000000006044820152606490fd5b156107a957565b60405162461bcd60e51b815260206004820152600c60248201527f4f4e4c595f43524541544f5200000000000000000000000000000000000000006044820152606490fd5b634e487b7160e01b5f52604160045260245ffd5b67ffffffffffffffff811161081657604052565b6107ee565b90601f8019910116810190811067ffffffffffffffff82111761081657604052565b604051906060820182811067ffffffffffffffff82111761081657604052565b604051906040820182811067ffffffffffffffff821117610816576040526001825260203681840137565b634e487b7160e01b5f52603260045260245ffd5b8051156108a95760200190565b610888565b80518210156108a95760209160051b010190565b9161091b610921919492946108d96002541561070a565b60016002556001600160a01b0393610914857f0000000000000000000000000000000000000000000000000000000000000000163314610acf565b3691610b6d565b83610d2b565b5f610965610937845f52600160205260405f2090565b549361095761095260026102d5885f525f60205260405f2090565b610bf0565b5f52600160205260405f2090565b5561097a610671835f525f60205260405f2090565b906109b36109996fffffffffffffffffffffffffffffffff86166114f3565b60016109ac865f525f60205260405f2090565b0154610e0d565b60016109c6855f525f60205260405f2090565b01556109de6001610399855f525f60205260405f2090565b6109f58260016103b5865f525f60205260405f2090565b807f00000000000000000000000000000000000000000000000000000000000000001691823b156101b65760405163eae6ca2760e01b81526fffffffffffffffffffffffffffffffff861660048201526001600160a01b0382166024820152925f908490604490829084905af19283156106d4577f60f5dd4df570f84626ff160e3cd3f50b7b40cffd358fc5e428d46cb9a8af324c93610abc575b506040516fffffffffffffffffffffffffffffffff9590951685521692602090a3610aba5f600255565b565b806106c8610ac992610802565b5f610a90565b15610ad657565b60405162461bcd60e51b815260206004820152600b60248201527f4f4e4c595f4f5241434c450000000000000000000000000000000000000000006044820152606490fd5b67ffffffffffffffff811161081657601f01601f191660200190565b929192610b4382610b1b565b91610b51604051938461081b565b8294818452818301116101b6578281602093845f960137010152565b9291909267ffffffffffffffff91828511610816578460051b6020936020604051610b9a8285018261081b565b8098815201918401938385116101b65780925b858410610bbd5750505050505050565b83358381116101b657820185601f820112156101b6578791610be58783858095359101610b37565b815201930192610bad565b15610bf757565b60405162461bcd60e51b815260206004820152600d60248201527f434c41494d5f554e4b4e4f574e000000000000000000000000000000000000006044820152606490fd5b6040513d5f823e3d90fd5b15610c4e57565b60405162461bcd60e51b815260206004820152600f60248201527f43414d504149474e5f45584953545300000000000000000000000000000000006044820152606490fd5b15610c9a57565b60405162461bcd60e51b815260206004820152600c60248201527f43524541544f525f5a45524f00000000000000000000000000000000000000006044820152606490fd5b15610ce657565b60405162461bcd60e51b815260206004820152600b60248201527f4e4f545f414c4c4f5745440000000000000000000000000000000000000000006044820152606490fd5b90815f527f5ea69329017273582817d320489fbd94f775580e90c092699ca6f3d12fdf7d026020908060205260405f205415610dfb57835f5260205260405f206040519182602083549182815201925f5260205f20915f905b828210610de457505050509181610da36102dd93610da895038261081b565b61137b565b610dd2577f1af0453083661051f6e56e5c070792320652e612154bf9af8637bb1e7655b99d5f80a2565b60405163cf6c44e960e01b8152600490fd5b835485529384019360019384019390910190610d84565b60405163d66ca67560e01b8152600490fd5b908115610eb1575b8015610e9f575b60209060646001600160a01b037fed8d60e34876f751cc8b014c560745351147d9de11b9347c854e881b128ea6015416935f60405195869485936303056db360e31b8552600485015260248401528160448401525af19081156106d4575f91610e83575090565b610e9c915060203d602011610703576106f4818361081b565b90565b506020610eaa611492565b9050610e1c565b9050610ebb611492565b90610e15565b7fed8d60e34876f751cc8b014c560745351147d9de11b9347c854e881b128ea600546040516382027b6d60e01b81526004810192909252336024830152602090829060449082906001600160a01b03165afa9081156106d4575f91610f24575090565b610e9c915060203d602011610f46575b610f3e818361081b565b81019061129f565b503d610f34565b908115610fd5575b8015610fc3575b60209060646001600160a01b037fed8d60e34876f751cc8b014c560745351147d9de11b9347c854e881b128ea6015416935f604051958694859363022f65e760e31b8552600485015260248401528160448401525af19081156106d4575f91610e83575090565b506020610fce611492565b9050610f5c565b9050610fdf611492565b90610f55565b9081518082526020808093019301915f5b828110611004575050505090565b835185529381019392810192600101610ff6565b906020610e9c928181520190610fe5565b61103161085d565b908151156108a95760208201526001600160a01b037fed8d60e34876f751cc8b014c560745351147d9de11b9347c854e881b128ea6005416803b156101b657604051637d6e912360e11b815260206004820152915f91839182908490829061109d906024830190610fe5565b03925af180156106d4576110ae5750565b610aba90610802565b92916110d0918452606060208501526060840190610fe5565b91604063465d524560e01b910152565b634e487b7160e01b5f52601160045260245ffd5b5f1981146111025760010190565b6110e0565b907f5ea69329017273582817d320489fbd94f775580e90c092699ca6f3d12fdf7d01918254926111646105396105397fed8d60e34876f751cc8b014c560745351147d9de11b9347c854e881b128ea600546001600160a01b031690565b803b156101b6575f6040518092637d6e912360e11b825281838161118b8960048301611018565b03925af180156106d45761125a575b506111d26105396105397f5ea69329017273582817d320489fbd94f775580e90c092699ca6f3d12fdf7d00546001600160a01b031690565b90813b156101b6575f6040518093633263b83b60e01b82528183816111fb898c600484016110b7565b03925af180156106d457610aba936112239361121d92611247575b50866115ef565b546110f4565b7f5ea69329017273582817d320489fbd94f775580e90c092699ca6f3d12fdf7d0155565b806106c861125492610802565b5f611216565b806106c861126792610802565b5f61119a565b9061127782610b1b565b611284604051918261081b565b8281528092611295601f1991610b1b565b0190602036910137565b908160209103126101b6575180151581036101b65790565b91908251928382525f5b8481106112e1575050825f602080949584010152601f8019910116010190565b6020818301810151848301820152016112c1565b919061130c61131b91606085526060850190610fe5565b602092848203848601526112b7565b9160408184039101528251908183528083019281808460051b8301019501935f915b84831061134d5750505050505090565b909192939495848061136b600193601f198682030187528a516112b7565b980193019301919493929061133d565b80515f905f905b8082106114165750509160209161139b611401946116c9565b6113a48161126d565b906024858301375f6113e36105396105397fed8d60e34876f751cc8b014c560745351147d9de11b9347c854e881b128ea602546001600160a01b031690565b9260405196879586948593632c027b1360e21b8552600485016112f5565b03925af19081156106d4575f91610f24575090565b9091600961142484866108ae565b51601e1a61143181611474565b61143a81611474565b10156114535761144b6001916116c9565b920190611382565b60405163ce54a8d160e01b8152600490fd5b908160209103126101b6575190565b6054111561147e57565b634e487b7160e01b5f52602160045260245ffd5b5f60206001600160a01b037fed8d60e34876f751cc8b014c560745351147d9de11b9347c854e881b128ea6015416604460405180948193639cd07acb60e01b8352816004840152600660248401525af19081156106d4575f91610e83575090565b60205f9160446001600160a01b037fed8d60e34876f751cc8b014c560745351147d9de11b9347c854e881b128ea6015416916040519485938492639cd07acb60e01b84526004840152600660248401525af19081156106d4575f91610e83575090565b6001600160a01b037fed8d60e34876f751cc8b014c560745351147d9de11b9347c854e881b128ea600541691823b156101b657604051635ca4b5b160e11b815260048101929092526001600160a01b03166024820152905f9082908183816044810161109d565b93926115ea906001600160a01b0360069460609488521660208701526080604087015260808601906112b7565b930152565b805f527f5ea69329017273582817d320489fbd94f775580e90c092699ca6f3d12fdf7d026020918160205260405f20546116b7575f5260205260405f209082519267ffffffffffffffff841161081657680100000000000000008411610816578254848455808510611691575b50602061166e9101925f5260205f2090565b905f5b84811061167f575050505050565b83518382015592810192600101611671565b835f528460205f2091820191015b8181106116ac575061165c565b5f815560010161169f565b604051633f06d22b60e01b8152600490fd5b90602082018092116111025756fea164736f6c6343000818000a",
  "devdoc": {
    "kind": "dev",
    "methods": {
      "createCampaign(bytes32,address)": {
        "details": "Initializes encrypted total to zero and sets up access permissions",
        "params": {
          "campaignId": "Unique identifier for the campaign",
          "creator": "Address of the campaign creator"
        }
      },
      "donateZLETH(bytes32,bytes32,bytes)": {
        "details": "Requires prior ZLETH transfer to vault address via ZLETHWrapper.transfer()      Uses same encrypted input to add to campaign total without revealing amount      Separate transactions required due to FHE permission constraints with msg.sender",
        "params": {
          "amountExt": "External encrypted donation amount",
          "att": "Attestation data for encrypted input verification",
          "campaignId": "Target campaign identifier"
        }
      },
      "onClaimCallback(uint256,uint128,bytes[])": {
        "details": "Protected by oracle-only access and KMS signature verification      Reduces encrypted campaign total by claimed amount (typically to zero)      Instructs wrapper to unwrap ZLETH and send ETH to creator",
        "params": {
          "amountWei": "Decrypted campaign total in wei",
          "requestId": "Unique decryption request identifier",
          "signatures": "KMS signatures for verification"
        }
      },
      "requestClaim(bytes32)": {
        "details": "Initiates public decryption process; oracle calls onClaimCallback with plaintext result      Only campaign creator can initiate claims",
        "params": {
          "campaignId": "Campaign identifier to claim from"
        },
        "returns": {
          "requestId": "Unique identifier for the decryption request"
        }
      },
      "viewTotalHandle(bytes32)": {
        "details": "View function returns handle only, no FHE operations performed",
        "params": {
          "campaignId": "Campaign identifier"
        },
        "returns": {
          "_0": "bytes32 handle for encrypted campaign total (for frontend userDecrypt)"
        }
      }
    },
    "stateVariables": {
      "_campaigns": {
        "details": "Campaign data storage"
      },
      "_entered": {
        "details": "Simple reentrancy guard"
      },
      "_pendingClaim": {
        "details": "Maps decryption requestId to campaignId for claim processing"
      },
      "decryptionOracle": {
        "details": "Oracle address for public decryption operations"
      },
      "wrapper": {
        "details": "ZLETHWrapper contract address for fund management"
      }
    },
    "version": 1
  },
  "userdoc": {
    "errors": {
      "HandlesAlreadySavedForRequestID()": [
        {
          "notice": "Returned if some handles were already saved for corresponding ID."
        }
      ],
      "InvalidKMSSignatures()": [
        {
          "notice": "Returned if the returned KMS signatures are not valid."
        }
      ],
      "NoHandleFoundForRequestID()": [
        {
          "notice": "Returned if there was not handle found for the requested ID."
        }
      ],
      "UnsupportedHandleType()": [
        {
          "notice": "Returned if the requested handle to be decrypted is not of a supported type."
        }
      ]
    },
    "events": {
      "DecryptionFulfilled(uint256)": {
        "notice": "This event is emitted when requested decryption has been fulfilled."
      }
    },
    "kind": "user",
    "methods": {
      "createCampaign(bytes32,address)": {
        "notice": "Creates a new campaign with unique ID and creator address"
      },
      "donateZLETH(bytes32,bytes32,bytes)": {
        "notice": "Records encrypted donation to campaign"
      },
      "onClaimCallback(uint256,uint128,bytes[])": {
        "notice": "Oracle callback: processes claim after decryption and instructs wrapper to send ETH"
      },
      "requestClaim(bytes32)": {
        "notice": "Creator requests claim: vault decrypts total and sends ETH via wrapper"
      },
      "viewTotalHandle(bytes32)": {
        "notice": "Returns encrypted total handle for a campaign"
      }
    },
    "version": 1
  },
  "storageLayout": {
    "storage": [
      {
        "astId": 39514,
        "contract": "contracts/CampaignVault.sol:CampaignVault",
        "label": "_campaigns",
        "offset": 0,
        "slot": "0",
        "type": "t_mapping(t_bytes32,t_struct(Campaign)39502_storage)"
      },
      {
        "astId": 39519,
        "contract": "contracts/CampaignVault.sol:CampaignVault",
        "label": "_pendingClaim",
        "offset": 0,
        "slot": "1",
        "type": "t_mapping(t_uint256,t_bytes32)"
      },
      {
        "astId": 39522,
        "contract": "contracts/CampaignVault.sol:CampaignVault",
        "label": "_entered",
        "offset": 0,
        "slot": "2",
        "type": "t_uint256"
      }
    ],
    "types": {
      "t_address": {
        "encoding": "inplace",
        "label": "address",
        "numberOfBytes": "20"
      },
      "t_bool": {
        "encoding": "inplace",
        "label": "bool",
        "numberOfBytes": "1"
      },
      "t_bytes32": {
        "encoding": "inplace",
        "label": "bytes32",
        "numberOfBytes": "32"
      },
      "t_mapping(t_bytes32,t_struct(Campaign)39502_storage)": {
        "encoding": "mapping",
        "key": "t_bytes32",
        "label": "mapping(bytes32 => struct CampaignVault.Campaign)",
        "numberOfBytes": "32",
        "value": "t_struct(Campaign)39502_storage"
      },
      "t_mapping(t_uint256,t_bytes32)": {
        "encoding": "mapping",
        "key": "t_uint256",
        "label": "mapping(uint256 => bytes32)",
        "numberOfBytes": "32",
        "value": "t_bytes32"
      },
      "t_struct(Campaign)39502_storage": {
        "encoding": "inplace",
        "label": "struct CampaignVault.Campaign",
        "members": [
          {
            "astId": 39495,
            "contract": "contracts/CampaignVault.sol:CampaignVault",
            "label": "creator",
            "offset": 0,
            "slot": "0",
            "type": "t_address"
          },
          {
            "astId": 39498,
            "contract": "contracts/CampaignVault.sol:CampaignVault",
            "label": "total",
            "offset": 0,
            "slot": "1",
            "type": "t_userDefinedValueType(euint128)42142"
          },
          {
            "astId": 39501,
            "contract": "contracts/CampaignVault.sol:CampaignVault",
            "label": "exists",
            "offset": 0,
            "slot": "2",
            "type": "t_bool"
          }
        ],
        "numberOfBytes": "96"
      },
      "t_uint256": {
        "encoding": "inplace",
        "label": "uint256",
        "numberOfBytes": "32"
      },
      "t_userDefinedValueType(euint128)42142": {
        "encoding": "inplace",
        "label": "euint128",
        "numberOfBytes": "32"
      }
    }
  }
}