{
  "_format": "hh-sol-artifact-1",
  "contractName": "ZamaLinkCampaign",
  "sourceName": "contracts/ZamaLinkCampaign.sol",
  "abi": [
    {
      "inputs": [
        {
          "internalType": "address",
          "name": "_zlethWrapper",
          "type": "address"
        }
      ],
      "stateMutability": "nonpayable",
      "type": "constructor"
    },
    {
      "inputs": [],
      "name": "EnforcedPause",
      "type": "error"
    },
    {
      "inputs": [],
      "name": "ExpectedPause",
      "type": "error"
    },
    {
      "inputs": [
        {
          "internalType": "address",
          "name": "owner",
          "type": "address"
        }
      ],
      "name": "OwnableInvalidOwner",
      "type": "error"
    },
    {
      "inputs": [
        {
          "internalType": "address",
          "name": "account",
          "type": "address"
        }
      ],
      "name": "OwnableUnauthorizedAccount",
      "type": "error"
    },
    {
      "inputs": [],
      "name": "ReentrancyGuardReentrantCall",
      "type": "error"
    },
    {
      "inputs": [
        {
          "internalType": "uint8",
          "name": "bits",
          "type": "uint8"
        },
        {
          "internalType": "uint256",
          "name": "value",
          "type": "uint256"
        }
      ],
      "name": "SafeCastOverflowedUintDowncast",
      "type": "error"
    },
    {
      "anonymous": false,
      "inputs": [
        {
          "indexed": true,
          "internalType": "bytes32",
          "name": "campaignId",
          "type": "bytes32"
        },
        {
          "indexed": false,
          "internalType": "uint256",
          "name": "timestamp",
          "type": "uint256"
        }
      ],
      "name": "CampaignCompleted",
      "type": "event"
    },
    {
      "anonymous": false,
      "inputs": [
        {
          "indexed": true,
          "internalType": "bytes32",
          "name": "campaignId",
          "type": "bytes32"
        },
        {
          "indexed": true,
          "internalType": "address",
          "name": "organizer",
          "type": "address"
        },
        {
          "indexed": false,
          "internalType": "string",
          "name": "title",
          "type": "string"
        },
        {
          "indexed": false,
          "internalType": "uint256",
          "name": "targetAmount",
          "type": "uint256"
        },
        {
          "indexed": false,
          "internalType": "uint256",
          "name": "deadline",
          "type": "uint256"
        }
      ],
      "name": "CampaignCreated",
      "type": "event"
    },
    {
      "anonymous": false,
      "inputs": [
        {
          "indexed": true,
          "internalType": "bytes32",
          "name": "campaignId",
          "type": "bytes32"
        },
        {
          "indexed": true,
          "internalType": "address",
          "name": "organizer",
          "type": "address"
        },
        {
          "indexed": false,
          "internalType": "uint256",
          "name": "requestId",
          "type": "uint256"
        }
      ],
      "name": "FundsClaimedPrivate",
      "type": "event"
    },
    {
      "anonymous": false,
      "inputs": [
        {
          "indexed": true,
          "internalType": "address",
          "name": "previousOwner",
          "type": "address"
        },
        {
          "indexed": true,
          "internalType": "address",
          "name": "newOwner",
          "type": "address"
        }
      ],
      "name": "OwnershipTransferred",
      "type": "event"
    },
    {
      "anonymous": false,
      "inputs": [
        {
          "indexed": false,
          "internalType": "address",
          "name": "account",
          "type": "address"
        }
      ],
      "name": "Paused",
      "type": "event"
    },
    {
      "anonymous": false,
      "inputs": [
        {
          "indexed": true,
          "internalType": "bytes32",
          "name": "campaignId",
          "type": "bytes32"
        },
        {
          "indexed": true,
          "internalType": "address",
          "name": "donor",
          "type": "address"
        },
        {
          "indexed": false,
          "internalType": "uint256",
          "name": "timestamp",
          "type": "uint256"
        },
        {
          "indexed": false,
          "internalType": "bool",
          "name": "isAnonymous",
          "type": "bool"
        }
      ],
      "name": "PrivateDonationMade",
      "type": "event"
    },
    {
      "anonymous": false,
      "inputs": [
        {
          "indexed": false,
          "internalType": "address",
          "name": "account",
          "type": "address"
        }
      ],
      "name": "Unpaused",
      "type": "event"
    },
    {
      "inputs": [
        {
          "internalType": "uint256",
          "name": "",
          "type": "uint256"
        }
      ],
      "name": "activeCampaigns",
      "outputs": [
        {
          "internalType": "bytes32",
          "name": "",
          "type": "bytes32"
        }
      ],
      "stateMutability": "view",
      "type": "function"
    },
    {
      "inputs": [
        {
          "internalType": "uint256",
          "name": "",
          "type": "uint256"
        }
      ],
      "name": "allCampaigns",
      "outputs": [
        {
          "internalType": "bytes32",
          "name": "",
          "type": "bytes32"
        }
      ],
      "stateMutability": "view",
      "type": "function"
    },
    {
      "inputs": [
        {
          "internalType": "bytes32",
          "name": "campaignId",
          "type": "bytes32"
        }
      ],
      "name": "allowOrganizerDecrypt",
      "outputs": [],
      "stateMutability": "nonpayable",
      "type": "function"
    },
    {
      "inputs": [
        {
          "internalType": "bytes32",
          "name": "",
          "type": "bytes32"
        },
        {
          "internalType": "uint256",
          "name": "",
          "type": "uint256"
        }
      ],
      "name": "campaignDonations",
      "outputs": [
        {
          "internalType": "address",
          "name": "donor",
          "type": "address"
        },
        {
          "internalType": "bytes32",
          "name": "campaignId",
          "type": "bytes32"
        },
        {
          "internalType": "uint256",
          "name": "timestamp",
          "type": "uint256"
        },
        {
          "internalType": "bool",
          "name": "isAnonymous",
          "type": "bool"
        }
      ],
      "stateMutability": "view",
      "type": "function"
    },
    {
      "inputs": [
        {
          "internalType": "bytes32",
          "name": "",
          "type": "bytes32"
        }
      ],
      "name": "campaigns",
      "outputs": [
        {
          "internalType": "bytes32",
          "name": "id",
          "type": "bytes32"
        },
        {
          "internalType": "address",
          "name": "organizer",
          "type": "address"
        },
        {
          "internalType": "string",
          "name": "title",
          "type": "string"
        },
        {
          "internalType": "string",
          "name": "description",
          "type": "string"
        },
        {
          "internalType": "string",
          "name": "imageUrl",
          "type": "string"
        },
        {
          "internalType": "uint256",
          "name": "targetAmount",
          "type": "uint256"
        },
        {
          "internalType": "uint256",
          "name": "deadline",
          "type": "uint256"
        },
        {
          "internalType": "euint64",
          "name": "totalZLETHDonations",
          "type": "bytes32"
        },
        {
          "internalType": "euint32",
          "name": "donationCount",
          "type": "bytes32"
        },
        {
          "internalType": "uint256",
          "name": "publicDonorCount",
          "type": "uint256"
        },
        {
          "internalType": "bool",
          "name": "isActive",
          "type": "bool"
        },
        {
          "internalType": "bool",
          "name": "isCompleted",
          "type": "bool"
        },
        {
          "internalType": "enum ZamaLinkCampaign.CampaignCategory",
          "name": "category",
          "type": "uint8"
        },
        {
          "internalType": "uint256",
          "name": "createdAt",
          "type": "uint256"
        }
      ],
      "stateMutability": "view",
      "type": "function"
    },
    {
      "inputs": [
        {
          "internalType": "bytes32",
          "name": "campaignId",
          "type": "bytes32"
        }
      ],
      "name": "claimFunds",
      "outputs": [],
      "stateMutability": "nonpayable",
      "type": "function"
    },
    {
      "inputs": [
        {
          "internalType": "bytes32",
          "name": "campaignId",
          "type": "bytes32"
        }
      ],
      "name": "completeCampaign",
      "outputs": [],
      "stateMutability": "nonpayable",
      "type": "function"
    },
    {
      "inputs": [
        {
          "internalType": "bytes32",
          "name": "campaignId",
          "type": "bytes32"
        },
        {
          "internalType": "string",
          "name": "title",
          "type": "string"
        },
        {
          "internalType": "string",
          "name": "description",
          "type": "string"
        },
        {
          "internalType": "string",
          "name": "imageUrl",
          "type": "string"
        },
        {
          "internalType": "uint256",
          "name": "targetAmount",
          "type": "uint256"
        },
        {
          "internalType": "uint256",
          "name": "duration",
          "type": "uint256"
        },
        {
          "internalType": "enum ZamaLinkCampaign.CampaignCategory",
          "name": "category",
          "type": "uint8"
        }
      ],
      "name": "createCampaign",
      "outputs": [],
      "stateMutability": "nonpayable",
      "type": "function"
    },
    {
      "inputs": [
        {
          "internalType": "bytes32",
          "name": "campaignId",
          "type": "bytes32"
        },
        {
          "internalType": "bool",
          "name": "isAnonymous",
          "type": "bool"
        }
      ],
      "name": "donate",
      "outputs": [],
      "stateMutability": "payable",
      "type": "function"
    },
    {
      "inputs": [
        {
          "internalType": "address",
          "name": "",
          "type": "address"
        },
        {
          "internalType": "uint256",
          "name": "",
          "type": "uint256"
        }
      ],
      "name": "donorCampaigns",
      "outputs": [
        {
          "internalType": "bytes32",
          "name": "",
          "type": "bytes32"
        }
      ],
      "stateMutability": "view",
      "type": "function"
    },
    {
      "inputs": [],
      "name": "getActiveCampaigns",
      "outputs": [
        {
          "internalType": "bytes32[]",
          "name": "",
          "type": "bytes32[]"
        }
      ],
      "stateMutability": "view",
      "type": "function"
    },
    {
      "inputs": [],
      "name": "getAllCampaigns",
      "outputs": [
        {
          "internalType": "bytes32[]",
          "name": "",
          "type": "bytes32[]"
        }
      ],
      "stateMutability": "view",
      "type": "function"
    },
    {
      "inputs": [
        {
          "internalType": "bytes32",
          "name": "campaignId",
          "type": "bytes32"
        }
      ],
      "name": "getCampaignInfo",
      "outputs": [
        {
          "internalType": "address",
          "name": "organizer",
          "type": "address"
        },
        {
          "internalType": "string",
          "name": "title",
          "type": "string"
        },
        {
          "internalType": "string",
          "name": "description",
          "type": "string"
        },
        {
          "internalType": "string",
          "name": "imageUrl",
          "type": "string"
        },
        {
          "internalType": "uint256",
          "name": "targetAmount",
          "type": "uint256"
        },
        {
          "internalType": "uint256",
          "name": "deadline",
          "type": "uint256"
        },
        {
          "internalType": "uint256",
          "name": "publicDonorCount",
          "type": "uint256"
        },
        {
          "internalType": "bool",
          "name": "isActive",
          "type": "bool"
        },
        {
          "internalType": "enum ZamaLinkCampaign.CampaignCategory",
          "name": "category",
          "type": "uint8"
        },
        {
          "internalType": "uint256",
          "name": "createdAt",
          "type": "uint256"
        }
      ],
      "stateMutability": "view",
      "type": "function"
    },
    {
      "inputs": [
        {
          "internalType": "address",
          "name": "organizer",
          "type": "address"
        }
      ],
      "name": "getCampaignsByOrganizer",
      "outputs": [
        {
          "internalType": "bytes32[]",
          "name": "",
          "type": "bytes32[]"
        }
      ],
      "stateMutability": "view",
      "type": "function"
    },
    {
      "inputs": [
        {
          "internalType": "bytes32",
          "name": "campaignId",
          "type": "bytes32"
        }
      ],
      "name": "getEncryptedTotals",
      "outputs": [
        {
          "internalType": "euint64",
          "name": "totalZLETH",
          "type": "bytes32"
        },
        {
          "internalType": "euint32",
          "name": "donationCount",
          "type": "bytes32"
        }
      ],
      "stateMutability": "view",
      "type": "function"
    },
    {
      "inputs": [
        {
          "internalType": "bytes32",
          "name": "campaignId",
          "type": "bytes32"
        },
        {
          "internalType": "uint256",
          "name": "limit",
          "type": "uint256"
        }
      ],
      "name": "getRecentDonations",
      "outputs": [
        {
          "internalType": "address[]",
          "name": "donors",
          "type": "address[]"
        },
        {
          "internalType": "uint256[]",
          "name": "timestamps",
          "type": "uint256[]"
        },
        {
          "internalType": "bool[]",
          "name": "isAnonymous",
          "type": "bool[]"
        }
      ],
      "stateMutability": "view",
      "type": "function"
    },
    {
      "inputs": [
        {
          "internalType": "address",
          "name": "",
          "type": "address"
        },
        {
          "internalType": "bytes32",
          "name": "",
          "type": "bytes32"
        }
      ],
      "name": "hasDonatedTo",
      "outputs": [
        {
          "internalType": "bool",
          "name": "",
          "type": "bool"
        }
      ],
      "stateMutability": "view",
      "type": "function"
    },
    {
      "inputs": [
        {
          "internalType": "address",
          "name": "",
          "type": "address"
        },
        {
          "internalType": "uint256",
          "name": "",
          "type": "uint256"
        }
      ],
      "name": "organizerCampaigns",
      "outputs": [
        {
          "internalType": "bytes32",
          "name": "",
          "type": "bytes32"
        }
      ],
      "stateMutability": "view",
      "type": "function"
    },
    {
      "inputs": [],
      "name": "owner",
      "outputs": [
        {
          "internalType": "address",
          "name": "",
          "type": "address"
        }
      ],
      "stateMutability": "view",
      "type": "function"
    },
    {
      "inputs": [],
      "name": "pause",
      "outputs": [],
      "stateMutability": "nonpayable",
      "type": "function"
    },
    {
      "inputs": [],
      "name": "paused",
      "outputs": [
        {
          "internalType": "bool",
          "name": "",
          "type": "bool"
        }
      ],
      "stateMutability": "view",
      "type": "function"
    },
    {
      "inputs": [],
      "name": "renounceOwnership",
      "outputs": [],
      "stateMutability": "nonpayable",
      "type": "function"
    },
    {
      "inputs": [
        {
          "internalType": "address",
          "name": "newOwner",
          "type": "address"
        }
      ],
      "name": "transferOwnership",
      "outputs": [],
      "stateMutability": "nonpayable",
      "type": "function"
    },
    {
      "inputs": [],
      "name": "unpause",
      "outputs": [],
      "stateMutability": "nonpayable",
      "type": "function"
    },
    {
      "inputs": [
        {
          "internalType": "address",
          "name": "newWrapper",
          "type": "address"
        }
      ],
      "name": "updateZLETHWrapper",
      "outputs": [],
      "stateMutability": "view",
      "type": "function"
    },
    {
      "inputs": [],
      "name": "zlethWrapper",
      "outputs": [
        {
          "internalType": "contract IZLETHWrapper",
          "name": "",
          "type": "address"
        }
      ],
      "stateMutability": "view",
      "type": "function"
    },
    {
      "stateMutability": "payable",
      "type": "receive"
    }
  ],
  "bytecode": "0x60a0346200029657601f6200277d38819003918201601f19168301916001600160401b038311848410176200029a578084926020946040528339810103126200029657516001600160a01b03908181169081900362000296575f606062000065620002ae565b828152826020820152826040820152015262000080620002ae565b606073687820221192c5b662b25367f70076a37bc79b6c9182815273848b0066793bcc60346da1f49049357399b8d595806020830152731364cbbf2cdf5032c47d8226a6f6fbd2afcdacac9182604082015273bc91f3dad1a5f19f8390c400196e58073b6a0bc4938491015260018060a01b0319937fed8d60e34876f751cc8b014c560745351147d9de11b9347c854e881b128ea60090858254161790557fed8d60e34876f751cc8b014c560745351147d9de11b9347c854e881b128ea60190848254161790557fed8d60e34876f751cc8b014c560745351147d9de11b9347c854e881b128ea60290838254161790557fed8d60e34876f751cc8b014c560745351147d9de11b9347c854e881b128ea603908282541617905573a02cda4ca3a71d7c46997716f4283aa851c288127f5ea69329017273582817d320489fbd94f775580e90c092699ca6f3d12fdf7d009182541617905560015f5533156200027e5760018054610100600160a81b0319811633600881811b610100600160a81b0316929092179093556040519491901c167f8be0079c531659141344cd1fd0a4f28419497f9722a3daafe3b4186f6b6457e05f80a36080526124ae9081620002cf823960805181818161084f01528181610d1b01528181610f2801528181610f6901528181610fb4015281816110ca0152818161111701526111660152f35b604051631e4fbdf760e01b81525f6004820152602490fd5b5f80fd5b634e487b7160e01b5f52604160045260245ffd5b60405190608082016001600160401b038111838210176200029a5760405256fe60806040526004361015610083575b3615610018575f80fd5b60405162461bcd60e51b815260206004820152602b60248201527f55736520646f6e61746528292066756e6374696f6e20666f722070726976617460448201527f6520646f6e6174696f6e730000000000000000000000000000000000000000006064820152608490fd5b5f803560e01c80631465b2c314611eb7578063229dcbe314611e4157806324a1f3671461176a5780632cc6a2e4146116ee5780633f4ba83a146116855780635c975abb146116635780635cebc65814610e79578063676f940014610e315780636bd4bfe114610cbc578063715018a614610c5057806374f0de1b14610bd85780638456cb5914610b7e57806386cdf60414610b085780638da5cb5b14610ade57806394470d5114610aa55780639db112a314610a4c5780639eca2f1e14610930578063a509f4d1146108df578063a656771214610873578063af5542fc1461082f578063b0a6e3e614610678578063b999be1b14610573578063c362b156146104ed578063dc357e2e146104a6578063f2fde38b146103f35763fb13eadf146101ac575061000e565b346103f0576101ba36612135565b919080825260026020526101df6001600160a01b03600160408520015416151561219c565b8152600360205260408120908154928084115f146103e7579291905b61020484612234565b926102126040519485612012565b84845261021e85612234565b601f190136602086013761023185612234565b9461023f6040519687612012565b80865261024b81612234565b601f190136602088013761025e81612234565b9361026c6040519586612012565b81855261027882612234565b601f1901366020870137835b828110610352575050505060405193849360608501606086528151809152602060808701920190845b81811061033057505050848103602086015260208083519283815201920190835b818110610317575050508381036040850152602080845192838152019301915b8181106102fc575050500390f35b825115158452859450602093840193909201916001016102ee565b82518452879650602093840193909201916001016102ce565b82516001600160a01b03168452889750602093840193909201916001016102ad565b8383819997989903116103d3578060ff60036103b6610375600195888a03612164565b8c610395866001600160a01b0361038c858c61214b565b5054169261224c565b5260026103a2828961214b565b5001546103af868d61224c565b528661214b565b500154166103c4828a61224c565b90151590520196959496610284565b634e487b7160e01b5f52601160045260245ffd5b508291906101fb565b80fd5b50346103f05760203660031901126103f05761040d611efd565b61041561227e565b6001600160a01b0380821691821561048d5774ffffffffffffffffffffffffffffffffffffffff006001549160081b1674ffffffffffffffffffffffffffffffffffffffff001982161760015560081c167f8be0079c531659141344cd1fd0a4f28419497f9722a3daafe3b4186f6b6457e05f80a380f35b604051631e4fbdf760e01b815260048101859052602490fd5b50346103f05760403660031901126103f05760ff60406020926001600160a01b036104cf611efd565b16815260058452818120602435825284522054166040519015158152f35b50346103f057806003193601126103f057604051600880548083529083526020808301937ff3f7a9fe364faab93b216da50a3214154f22a0a2b415b23a84c8169e8b636ee392915b82821061055c576105588561054c81890382612012565b60405191829182611f5d565b0390f35b835486529485019460019384019390910190610535565b50346103f05760203660031901126103f05760406004359182815260026020526001600160a01b03926105af846001858520015416151561219c565b8152600260205220906001820154166005820154600683015461066e6009850154600a86015490600b870154936106426105eb60028a01612034565b98610634610607600461060060038501612034565b9301612034565b916106266040519c8d809d6020610140928392815201528d01906120d6565b908b820360408d01526120d6565b9089820360608b01526120d6565b95608088015260a087015260c086015260ff8116151560e086015260ff61010086019160101c16612114565b6101208301520390f35b50346103f05760208060031936011261082b5760043590818352600281526106cc6001600160a01b036106b581600160408820015416151561219c565b8385526002835260016040862001541633146121e8565b81835260028152600a6040842001805460ff8116156107e65761ffff19166101001790558183526009815260408320546008545f1991908281019081116107d25780820361078b575b505060085480156107775790807f39c59e243b727b972e7c4ce6e5d7e6ce2c886e018b0ce40d214e17624d51b0829392019061075082611f13565b909182549160031b1b19169055600855828452600981525f6040852055604051428152a280f35b634e487b7160e01b85526031600452602485fd5b61079490611f13565b90549060031b1c806107be6107a884611f13565b819391549060031b91821b915f19901b19161790565b905585526009835260408520555f80610715565b634e487b7160e01b86526011600452602486fd5b60405162461bcd60e51b815260048101849052601160248201527f416c726561647920636f6d706c657465640000000000000000000000000000006044820152606490fd5b5080fd5b50346103f057806003193601126103f05760206040516001600160a01b037f0000000000000000000000000000000000000000000000000000000000000000168152f35b50346103f05761088236612135565b919081526003602052604081209081548310156103f05760806108a5848461214b565b506001600160a01b038154169060018101549060ff6003600283015492015416916040519384526020840152604083015215156060820152f35b50346103f05760203660031901126103f05760043560075481101561082b5760209060075f527fa66cc928b5edb82af9bd49922954155ab7b0942694bea4ce44661d9a8736c6880154604051908152f35b50346103f05760203660031901126103f057600435815260026020526040902080549060018101546001600160a01b0316906002810161096f90612034565b61097b60038301612034565b9161098860048201612034565b926005820154936006830154600784015490600885015492600986015494600a87015496600b0154976040519b8c9b6101c0918d5260208d01528060408d01528b016109d3916120d6565b8a810360608c01526109e4916120d6565b89810360808b01526109f5916120d6565b9660a089015260c088015260e087015261010086015261012085015260ff811615156101408501528060081c60ff16151561016085015261018084019060101c60ff1690610a4291612114565b6101a08301520390f35b50346103f05760203660031901126103f057604080916004358082526002602052610a876001600160a01b036001858520015416151561219c565b81526002602052206008600782015491015482519182526020820152f35b50346103f05760203660031901126103f057600435906008548210156103f0576020610ad083611f13565b90546040519160031b1c8152f35b50346103f057806003193601126103f05760206001600160a01b0360015460081c16604051908152f35b50346103f057806003193601126103f057604051600780548083529083526020808301937fa66cc928b5edb82af9bd49922954155ab7b0942694bea4ce44661d9a8736c68892915b828210610b67576105588561054c81890382612012565b835486529485019460019384019390910190610b50565b50346103f057806003193601126103f057610b9761227e565b610b9f612260565b600160ff19815416176001557f62e78cea01bee320cd4e420270b5ea74000d11b0c9f74754ebdbfc544b05a2586020604051338152a180f35b50346103f05760203660031901126103f0576001600160a01b03610bfa611efd565b610c0261227e565b1615610c0b5780f35b60405162461bcd60e51b815260206004820152600f60248201527f496e76616c6964207772617070657200000000000000000000000000000000006044820152606490fd5b50346103f057806003193601126103f057610c6961227e565b5f6001600160a01b0360015474ffffffffffffffffffffffffffffffffffffffff0019811660015560081c167f8be0079c531659141344cd1fd0a4f28419497f9722a3daafe3b4186f6b6457e08280a380f35b50346103f05760208060031936011261082b5760043580835260028252826001600160a01b03610cf681600160408520015416151561219c565b82825260028452610d118160016040852001541633146121e8565b610d196122ad565b7f0000000000000000000000000000000000000000000000000000000000000000166040516370a0823160e01b81523360048201528481602481855afa908115610e26578391610df9575b50813b15610dea57829160648392604051948593849263d2701f9960e01b845233600485015233602485015260448401525af18015610dee57610dd6575b50507fc17bd84212c46947be32aca641d526ac26799ed0a7303f389cd6b2e60c63afc8604051924284523393a36001815580f35b610ddf90611ffe565b610dea57825f610da2565b8280fd5b6040513d84823e3d90fd5b90508481813d8311610e1f575b610e108183612012565b81010312610dea57515f610d64565b503d610e06565b6040513d85823e3d90fd5b50346103f05760403660031901126103f057610e4b611efd565b6001600160a01b03168152600460205260408120805460243592908310156103f0576020610ad08484611f48565b50604036600319011261147d5760243515156024350361147d576004355f526002602052610eb86001600160a01b03600160405f20015416151561219c565b6004355f52600260205260ff600a60405f200154161561161e576004355f526002602052600660405f2001544210156115d957610ef36122ad565b610efb612260565b3415611594576004355f52600260205260405f206001600160a01b03600182015416906001600160a01b037f0000000000000000000000000000000000000000000000000000000000000000163b1561147d5760405163f340fa0160e01b81523360048201525f81602481347f00000000000000000000000000000000000000000000000000000000000000006001600160a01b03165af1801561148957611581575b50604051631627391760e11b81526020816004817f00000000000000000000000000000000000000000000000000000000000000006001600160a01b03165afa908115611576578491611540575b50801561152c57340467ffffffffffffffff811161150d57602067ffffffffffffffff60446001600160a01b037fed8d60e34876f751cc8b014c560745351147d9de11b9347c854e881b128ea6015416935f6040519586948593639cd07acb60e01b8552166004840152600560248401525af19283156114895784915f946114d6575b5061107a30856123bf565b6001600160a01b037fed8d60e34876f751cc8b014c560745351147d9de11b9347c854e881b128ea6005416803b15610dea57604051630f8e573b60e21b8152600481018690526001600160a01b037f00000000000000000000000000000000000000000000000000000000000000001660248201529083908290604490829084905af1908115610e265783916114c2575b50506001600160a01b037f0000000000000000000000000000000000000000000000000000000000000000163b1561082b5760405190632df5f6bf60e11b825260048201528360248201528181604481836001600160a01b037f0000000000000000000000000000000000000000000000000000000000000000165af18015610dee576114ae575b50506111b16007820192835481811561149e575b1561149457612439565b8255600881015f815460206001600160a01b037fed8d60e34876f751cc8b014c560745351147d9de11b9347c854e881b128ea6015416604460405180958193639cd07acb60e01b835260016004840152600460248401525af1918215611489575f9261144e575b5060099461123b836112459361124d969591811561143e575b1561142e57612439565b83553090546123bf565b3090546123bf565b018054906001820180921161141a5755600435815260036020526040812090602435156114135780915b60405192608084019084821067ffffffffffffffff8311176113ff576001600160a01b039160405216835260208301600435815260408401428152606085019260243515158452805490680100000000000000008210156113eb57906112e29160018201815561214b565b9290926113d7576001600160a01b036003949596511673ffffffffffffffffffffffffffffffffffffffff1984541617835551600183015551600282015501905115159060ff199160ff83835416911617905560243515611399575b506024351561139357805b6001600160a01b03604051914283526024351515602084015216907f1cc0e78ae4ee83f519178bf749cb5a7f5429c202904e20324def4d61e6c9be64604060043592a36001815580f35b33611349565b33825260046020526113b060043560408420612171565b3382526005602052604082206004358352602052600160408320918254161790555f61133e565b634e487b7160e01b85526004859052602485fd5b634e487b7160e01b86526041600452602486fd5b634e487b7160e01b5f52604160045260245ffd5b3391611277565b634e487b7160e01b83526011600452602483fd5b905061143861235e565b90612439565b905061144861235e565b90611231565b9291506020833d602011611481575b8161146a60209383612012565b8101031261147d57915190916009611218565b5f80fd5b3d915061145d565b6040513d5f823e3d90fd5b90506114386122ce565b90506114a86122ce565b906111a7565b6114b790611ffe565b610dea57825f611193565b6114cb90611ffe565b61082b57815f61110b565b915092506020813d602011611505575b816114f360209383612012565b8101031261147d57839051925f61106f565b3d91506114e6565b604490604051906306dfcc6560e41b8252604060048301526024820152fd5b634e487b7160e01b84526012600452602484fd5b90506020813d60201161156e575b8161155b60209383612012565b8101031261156a57515f610fec565b8380fd5b3d915061154e565b6040513d86823e3d90fd5b61158c919350611ffe565b5f915f610f9e565b60405162461bcd60e51b815260206004820152600d60248201527f4d7573742073656e6420455448000000000000000000000000000000000000006044820152606490fd5b60405162461bcd60e51b815260206004820152601860248201527f43616d706169676e20646561646c696e652070617373656400000000000000006044820152606490fd5b60405162461bcd60e51b815260206004820152601360248201527f43616d706169676e206e6f7420616374697665000000000000000000000000006044820152606490fd5b3461147d575f36600319011261147d57602060ff600154166040519015158152f35b3461147d575f36600319011261147d5761169d61227e565b60015460ff8116156116dc5760ff19166001557f5db9ee0a495bf2e6ff9c91a7834c1ba4fdd244a5e8aa4e537bd38aeae4b073aa6020604051338152a1005b604051638dfc202b60e01b8152600490fd5b3461147d57602036600319011261147d57600435805f5260026020526117416001600160a01b0361172981600160405f20015416151561219c565b825f526002602052600160405f2001541633146121e8565b5f52600260205261176860405f2061175d3360078301546123bf565b6008339101546123bf565b005b3461147d5760e036600319011261147d5760243567ffffffffffffffff811161147d5761179b903690600401611f98565b60443567ffffffffffffffff811161147d576117bb903690600401611f98565b60643567ffffffffffffffff811161147d576117db903690600401611f98565b9260a435600760c435101561147d576117f2612260565b6004355f5260026020526001600160a01b03600160405f20015416611dfc578515611db75760843515611d72578015611d2d5761182f9042612164565b936118386122ce565b9261184161235e565b946004355f52600260205260405f20936004358555600185013373ffffffffffffffffffffffffffffffffffffffff1982541617905567ffffffffffffffff89116113ff576118936002860154611fc6565b601f8111611ce9575b50885f601f8211600114611c7d575f91611c72575b508960011b905f198b60031b1c19161760028601555b67ffffffffffffffff82116113ff5781906118e56003870154611fc6565b601f8111611c22575b505f90601f8311600114611bb5575f92611baa575b50508160011b915f199060031b1c19161760038401555b67ffffffffffffffff82116113ff576119366004840154611fc6565b601f8111611b66575b505f90601f8311600114611af357918061124594926119c49796945f92611ae8575b50508160011b915f199060031b1c19161760048201555b6084356005820155856006820155816007820155600881019384555f6009820155600a81016001815462ff000060c43560101b169062ffffff191617179055600b4291015530906123bf565b6008546004355f5260096020528060405f20556801000000000000000090818110156113ff576119fd816001611a189301600855611f13565b6004929192359083549060031b91821b915f19901b19161790565b9055600754908110156113ff576001810180600755811015611ad457600435907fa66cc928b5edb82af9bd49922954155ab7b0942694bea4ce44661d9a8736c6880155335f526006602052611a7260043560405f20612171565b81604051936060855281606086015260808501375f60808385010152608435602084015260408301527f6b387e868c5ae9b53f9e972e16dfd32752b9c71f38ac76eb6dc19d157eb7044c339260808160043594601f80199101168101030190a3005b634e487b7160e01b5f52603260045260245ffd5b013590508a80611961565b601f19831691600485015f5260205f20925f5b818110611b4e57509260019285926119c4999896611245989610611b35575b505050811b016004820155611978565b01355f19600384901b60f8161c191690558a8080611b25565b91936020600181928787013581550195019201611b06565b600484015f5260205f20601f840160051c810160208510611ba3575b601f830160051c82018110611b9857505061193f565b5f8155600101611b82565b5080611b82565b013590508a80611903565b909250600386015f5260205f20905f935b601f1984168510611c0a576001945083601f19811610611bf1575b505050811b01600384015561191a565b01355f19600384901b60f8161c191690558a8080611be1565b81810135835560209485019460019093019201611bc6565b909150600386015f5260205f20601f840160051c810160208510611c6b575b90849392915b601f830160051c82018110611c5d5750506118ee565b5f8155859450600101611c47565b5080611c41565b90508a01358b6118b1565b9050600286015f5260205f20905f5b8c601f198d168210611cd15750508a601f19811610611cb8575b5050600189811b0160028601556118c7565b8b01355f1960038c901b60f8161c191690558a80611ca6565b60018394602093948493013581550193019101611c8c565b600286015f5260205f20601f8b0160051c810160208c10611d26575b601f830160051c82018110611d1b57505061189c565b5f8155600101611d05565b5080611d05565b60405162461bcd60e51b815260206004820152601160248201527f4475726174696f6e2072657175697265640000000000000000000000000000006044820152606490fd5b60405162461bcd60e51b815260206004820152601660248201527f54617267657420616d6f756e74207265717569726564000000000000000000006044820152606490fd5b60405162461bcd60e51b815260206004820152600e60248201527f5469746c652072657175697265640000000000000000000000000000000000006044820152606490fd5b60405162461bcd60e51b815260206004820152601260248201527f43616d706169676e2049442065786973747300000000000000000000000000006044820152606490fd5b3461147d5760208060031936011261147d576001600160a01b03611e63611efd565b165f52600660205260405f20906040519081602084549182815201935f5260205f20915f905b828210611ea0576105588561054c81890382612012565b835486529485019460019384019390910190611e89565b3461147d57604036600319011261147d57611ed0611efd565b6001600160a01b0360243591165f52600660205260405f20805482101561147d57602091610ad091611f48565b600435906001600160a01b038216820361147d57565b600854811015611ad45760085f527ff3f7a9fe364faab93b216da50a3214154f22a0a2b415b23a84c8169e8b636ee301905f90565b8054821015611ad4575f5260205f2001905f90565b60209060206040818301928281528551809452019301915f5b828110611f84575050505090565b835185529381019392810192600101611f76565b9181601f8401121561147d5782359167ffffffffffffffff831161147d576020838186019501011161147d57565b90600182811c92168015611ff4575b6020831014611fe057565b634e487b7160e01b5f52602260045260245ffd5b91607f1691611fd5565b67ffffffffffffffff81116113ff57604052565b90601f8019910116810190811067ffffffffffffffff8211176113ff57604052565b9060405191825f825461204681611fc6565b908184526020946001916001811690815f146120b45750600114612076575b50505061207492500383612012565b565b5f90815285812095935091905b81831061209c57505061207493508201015f8080612065565b85548884018501529485019487945091830191612083565b9250505061207494925060ff191682840152151560051b8201015f8080612065565b91908251928382525f5b848110612100575050825f602080949584010152601f8019910116010190565b6020818301810151848301820152016120e0565b9060078210156121215752565b634e487b7160e01b5f52602160045260245ffd5b604090600319011261147d576004359060243590565b8054821015611ad4575f5260205f209060021b01905f90565b919082018092116103d357565b805490680100000000000000008210156113ff57816107a891600161219894018155611f48565b9055565b156121a357565b60405162461bcd60e51b815260206004820152601760248201527f43616d706169676e20646f6573206e6f742065786973740000000000000000006044820152606490fd5b156121ef57565b60405162461bcd60e51b815260206004820152601660248201527f4e6f742063616d706169676e206f7267616e697a6572000000000000000000006044820152606490fd5b67ffffffffffffffff81116113ff5760051b60200190565b8051821015611ad45760209160051b010190565b60ff6001541661226c57565b60405163d93c066560e01b8152600490fd5b6001600160a01b0360015460081c16330361229557565b60405163118cdaa760e01b8152336004820152602490fd5b60025f54146122bc5760025f55565b604051633ee5aeb560e01b8152600490fd5b5f60206001600160a01b037fed8d60e34876f751cc8b014c560745351147d9de11b9347c854e881b128ea6015416604460405180948193639cd07acb60e01b8352816004840152600560248401525af1908115611489575f9161232f575090565b90506020813d602011612356575b8161234a60209383612012565b8101031261147d575190565b3d915061233d565b5f60206001600160a01b037fed8d60e34876f751cc8b014c560745351147d9de11b9347c854e881b128ea6015416604460405180948193639cd07acb60e01b8352816004840152600460248401525af1908115611489575f9161232f575090565b6001600160a01b037fed8d60e34876f751cc8b014c560745351147d9de11b9347c854e881b128ea600541691823b1561147d57604051635ca4b5b160e11b815260048101929092526001600160a01b03166024820152905f908290604490829084905af18015611489576124305750565b61207490611ffe565b9060209060646001600160a01b037fed8d60e34876f751cc8b014c560745351147d9de11b9347c854e881b128ea6015416935f604051958694859363022f65e760e31b8552600485015260248401528160448401525af1908115611489575f9161232f57509056fea164736f6c6343000818000a",
  "linkReferences": {},
  "deployedLinkReferences": {}
}